:020000040800F2
:100000000808002031020008911B0008931B00081B
:10001000971B00089B1B00089F1B000800000000A6
:10002000000000000000000000000000A31B00080A
:10003000A51B000800000000A71B0008A91B000862
:100040004B0200084B0200084B0200084B0200085C
:100050004B0200084B0200084B0200084B0200084C
:100060004B0200084B0200084B0200084B0200083C
:100070004B0200084B0200084B0200084B0200082C
:100080004B0200084B0200084B0200084B0200081C
:100090004B0200084B0200084B0200084B0200080C
:1000A0004B0200084B0200084B0200084B020008FC
:1000B0004B0200084B0200084B0200084B020008EC
:1000C0004B0200084B0200084B0200084B020008DC
:1000D0004B020008891F00084B0200084B02000871
:1000E0004B0200084B0200084B0200084B020008BC
:1000F0004B0200084B0200084B0200084B020008AC
:100100004B0200084B0200084B0200084B0200089B
:100110004B0200084B0200084B0200084B0200088B
:100120004B020008576D00084B0200084B02000804
:100130004B0200084B0200084B0200084B0200086B
:100140004B0200084B0200084B0200084B0200085B
:100150004B0200084B0200084B0200084B0200084B
:100160004B0200084B0200084B0200084B0200083B
:100170004B0200084B0200082D6D00084B020008DE
:100180004B0200084B02000800F002F800F041F8B2
:100190000AA090E8000C82448344AAF10107DA45E2
:1001A00001D100F036F8AFF2090EBAE80F0013F0F3
:1001B000010F18BFFB1A43F0010318479C88000089
:1001C000BC880000103A24BF78C878C1FAD852071A
:1001D00024BF30C830C144BF04680C6070470000C1
:1001E0000023002400250026103A28BF78C1FBD840
:1001F000520728BF30C148BF0B607047782906F00E
:100200003B87002070471FB507F01EF81FBD10B5D3
:1002100010BD06F0E9FF1146FFF7F5FF06F0B2FE4C
:1002200007F007F803B4FFF7F2FF03BC01F048FE44
:100230000948804709480047FEE7FEE7FEE7FEE77A
:10024000FEE7FEE7FEE7FEE7FEE7FEE704480549B6
:10025000054A064B70470000891C00088901000808
:1002600008020020080800200804002008040020DC
:1002700032490143324A1160704770B500210023B2
:100280000F22C4781CB32E4C246804F4E064C4F537
:10029000E064C4F30721C1F10404E3B20A414478E5
:1002A0009C40E1B28478144021430C07210E254C78
:1002B00005786155047804F01F050124AC400578E9
:1002C0006D11AD0005F1E025C5F8004109E00478A5
:1002D00004F01F050124AC401B4D0678761145F84B
:1002E000264070BD194A0A400243154B1B1F1A6075
:1002F000704739B1124A121D12680243104B1B1D80
:100300001A6006E00E4A121D126882430C4B1B1D38
:100310001A607047042808D14FF0E021096941F0C4
:1003200004014FF0E022116107E04FF0E02109697C
:1003300021F004014FF0E022116170470000FA053E
:100340000CED00E000E400E080E100E080FFFF1F32
:10035000002061490860C8601F2048610020886152
:10036000C86108624862704700215B4A126844F223
:1003700001039A43584B1A601A46116840F6F2720C
:100380009143028843881A4383881A43C3881A43D7
:1003900003891A4343891A4383891A4311434E4AF6
:1003A000116070470021018041808180C1800181FE
:1003B0004181818170474188028841EA0241464A71
:1003C0001162C188828841EA0241434A5162704702
:1003D00030B14149096841F004013F4A116005E02C
:1003E0003D49096821F004013B4A116070470178DA
:1003F000427841EA0221827841EA0241C27841EA28
:100400000261354A9161704730B13349096841F062
:100410000801314A116005E02F49096821F00801FF
:100420002D4A1160704730B12B49096841F4804171
:10043000294A116005E02849096821F48041264ACB
:100440001160704730B12449096841F00101224A26
:10045000116005E02049096821F001011E4A116080
:1004600070471D48806A704729B11B4AD268024311
:10047000194BDA6006E0184AD268C3439BB21A40AF
:10048000154BDA60704710B50146002000230A13AF
:1004900012B9114CA36806E0022A02D10E4C63681F
:1004A00001E00D4C236903EA01040CB1012000E0D6
:1004B000002010BD08494861704701460020002215
:1004C000054B1B6903EA01020AB1012000E000208C
:1004D000704701494861704700000550016821F0EC
:1004E000010101600021016041608160C160016122
:1004F00021214161DB49884204D13D21D94A103A8A
:1005000091608CE0D7491831884205D14FF474616D
:10051000D44A103A916082E0D2493031884205D104
:100520004FF47411CF4A103A916078E0CD494831C8
:10053000884205D14FF07461CA4A103A91606EE06A
:10054000C8496031884204D1C749C64A103AD160CF
:1005500065E0C4497831884204D1C449C14A103A9F
:10056000D1605CE0BF499031884204D1C049BD4AA6
:10057000103AD16053E0BB49A831884205D14FF011
:100580003D51B84A103AD16049E0BA49884204D195
:100590003D21B84A083A116041E0B6491831884215
:1005A00005D14FF47461B34A083A116037E0B1499C
:1005B0003031884205D14FF47411AE4A083A1160C7
:1005C0002DE0AC494831884205D14FF07461A94A09
:1005D000083A116023E0A7496031884204D1A2495A
:1005E000A44A121F11601AE0A2497831884204D14E
:1005F0009E49A04A121F116011E09E499031884225
:1006000004D19B499B4A121F116008E09949A83107
:10061000884204D14FF03D51964A121F1160704735
:1006200010B500220268944B1A40CC680B68234333
:100630004C6923438C692343CC6923430C6A2343CD
:100640004C6A23438C6A23434C6B23438C6B2343B8
:100650001A430260426922F00702D1E90B342343B6
:100660001A4342610B6943604B6883608B68C360C7
:1006700010BD0021016041608160C1600161416184
:100680008161C161016241628162C1620163416352
:100690008163704721B1026842F00102026003E009
:1006A000026822F001020260704721B1026842F440
:1006B0000042026003E0026822F4004202607047D8
:1006C00021B1026842F02002026003E0026822F0D9
:1006D000200202607047416070470146486880B25E
:1006E000704722B1036843F40023036003E003680A
:1006F00023F4002303600161704721B1026842F4D2
:100700008022026003E0026822F4802202607047C7
:100710000AB1016100E0C1607047014600200A682B
:1007200002F400220AB1012000E0002070470146D7
:1007300000200A6802F001020AB1012000E0002056
:100740007047014600204A6902F03800704730B512
:1007500003460A4600200024464DAB4202D24149DE
:10076000103901E04349103902F000550DB14C68D1
:1007700000E00C68414D2C4004EA02050DB1012057
:1007800000E0002030BD02463A4B9A4202D2354882
:10079000103801E03748103801F000531BB1374BD7
:1007A0000B40C36002E0354B0B408360704710B5CF
:1007B00001F080034BB122B1436943F080034361F0
:1007C00003E0436923F08003436180290BD02AB101
:1007D000036801F01E042343036004E0036801F092
:1007E0001E04A343036010BD70B502460020002420
:1007F0000025204EB24202D21A4B103B01E01D4BA5
:10080000103B1F4E0E4036B11E2606EAD124166854
:1008100006EA040502E0566906F0800501F000567C
:100820000EB15C6800E01C68144E344004EA010616
:1008300016B10DB1012000E0002070BD02460D4B45
:100840009A4202D20748103801E00A48103801F0F5
:1008500000531BB1094B0B40C36002E0074B0B4038
:1008600083607047106002403D000020400F002070
:1008700000003D20106402403F801CF07D0F7D0F82
:100880003C0F3C0F30B943F2DB028100A1F1C041C3
:100890000A6005E043F2D2028100A1F1C0410A6082
:1008A0006FF07042411C8900A1F1C0410A608100D3
:1008B000A1F1C041C1F804217047D0E901121143F0
:1008C000C2681143026911434269114382691143AD
:1008D000C2691143026A1143426A1143826A114399
:1008E000C26A1143026B114302689200A2F1C04236
:1008F0001160816808290BD101688900A1F1C0410C
:10090000096841F0400201688900A1F1C0410A6014
:10091000416B0968426B526841EA0211426B92686E
:1009200041EA0221426B928941EA0241426B128AFA
:1009300041EA0251426B127D41EA0261426B9269C7
:1009400011430268521C9200A2F1C0421160C16AB8
:10095000B1F5804F1BD1816B0968826B526841EA07
:100960000211826B926841EA0221826B128A41EA8B
:100970000251826B127D41EA0261826B92691143DE
:1009800002689200A2F1C042C2F8041107E06FF0C1
:10099000704201688900A1F1C041C1F8042170478B
:1009A000002101600221416000218160C16001617C
:1009B00041618161C16101624FF48051416249002E
:1009C00081620021C1620163F8494163816370471C
:1009D00051B18200A2F1C042126842F001038200CC
:1009E000A2F1C042136009E08200A2F1C042126885
:1009F000EF4B1A408300A3F1C0431A6070471028E0
:100A00000AD118214FF020421166402151664FF063
:100A1000FC319166D16610E01821E64A1160402150
:100A20004FF02042C2F884104FF0FC31E14A083206
:100A300011604FF02042C2F88C10704730B5002191
:100A400000220023446844F0080485682C43C568EC
:100A50002C4305692C43456944EA4524856944EAE9
:100A60004531C4692468C5696D6844EA0524C569CF
:100A70002D8944EA0544C5692D7B44EA0562046A70
:100A80002468056A6D6844EA0524056A2D8944EAEC
:100A90000544056A2D7B44EA05630468102C05D1E2
:100AA0004FF020442166A266E36608E0C14C216055
:100AB0004FF02044C4F88820BE4C0C34236030BD75
:100AC00010210160002141608160C16001614161CC
:100AD0008161FC21C2691160C2695160C269916083
:100AE000C269D160026A1160026A5160026A916053
:100AF000026AD160704799B1102808D14FF02042A6
:100B0000126E42F004024FF020431A661DE0A94A1B
:100B1000126842F004024FF02043C3F8802014E032
:100B2000102809D14FF02042126EA14BDB1E1A4053
:100B30004FF020431A6608E09E4A12689C4BDB1E69
:100B40001A404FF02043C3F88020704799B1102815
:100B500008D14FF02042126E42F040024FF0204385
:100B60001A661DE0934A126842F040024FF020439B
:100B7000C3F8802014E0102809D14FF02042126EF3
:100B80008B4B3F3B1A404FF020431A6608E0894ADE
:100B90001268874B3F3B1A404FF02043C3F8802038
:100BA000704701460020102903D14FF02042506FBA
:100BB00002E0804A14321068704718207D492031C5
:100BC000086000200906C1F8A4004FF0FC30794904
:100BD00028310860091D0860091D08607047016818
:100BE00041F01001426841EA4221826841EA423103
:100BF000704A20321160C1680968C268526841EACF
:100C00000221C268128941EA0241C268127B41EAAC
:100C10000261684A283211600169096802695268F4
:100C200041EA02210269128941EA02410269127B0A
:100C300041EA02615F4A2C321160416909684269E8
:100C4000526841EA02214269128941EA024142693D
:100C5000127B41EA02614FF02042C2F8B0107047A7
:100C60000021016041608160FC21C2681160C2689E
:100C70005160C2689160C268D16002691160026906
:100C80005160026991600269D160426911604269F4
:100C90005160426991604269D160704748B14549ED
:100CA0002031096841F004014FF02042C2F8A01041
:100CB00009E04049203109683D4AD21E11404FF0F9
:100CC0002042C2F8A010704710B5F2B1102807D129
:100CD0004FF020435B6E0B434FF02044636632E0DD
:100CE000B0F5807F08D1334B1B1D1B680B434FF0C1
:100CF0002044C4F8843026E02E4B24331B680B4379
:100D00004FF02044C4F8A4301DE0102807D14FF064
:100D100020435B6E8B434FF02044636613E0B0F5D5
:100D2000807F08D1234B1B1D1B688B434FF0204451
:100D3000C4F8843007E01F4B24331B688B434FF00B
:100D40002044C4F8A43010BD10B502460020002392
:100D5000102A03D14FF02044636E09E0B2F5807F82
:100D600003D1144C241D236802E0124C2434236860
:100D700003EA01040CB1012000E0002010BD10289E
:100D800007D14FF02042526E8A434FF020435A66FB
:100D900019E0B0F5807F0FD1064A121D12688A4310
:100DA0004FF02043C3F884200DE000005472000887
:100DB000FEFF0F00800000A0234A12688A434FF014
:100DC0002043C3F8A420704770B5024600200023DA
:100DD00000240025102A03D14FF02046736E08E04E
:100DE000B2F5807F03D1184E203E336801E0164EE5
:100DF000336803EA010403EAD10514B10DB10120FF
:100E000000E0002070BD102808D14FF02042526E43
:100E100022EAD1024FF020435A6614E0B0F5807FF9
:100E200009D1094A203A126822EAD1024FF0204340
:100E3000C3F8842007E0044A126822EAD1024FF086
:100E40002043C3F8A4207047A40000A010B50446B6
:100E50009848844208D10121084600F086FB002111
:100E6000012000F082FB76E09348844208D1012102
:100E7000022000F07AFB0021022000F076FB6AE0FD
:100E80008E48844208D10121042000F06EFB00212D
:100E9000042000F06AFB5EE08948844208D1012109
:100EA000082000F062FB0021082000F05EFB52E009
:100EB0008448844208D10121102000F056FB002113
:100EC000102000F052FB46E07F48844208D1012107
:100ED000202000F04AFB0021202000F046FB3AE0F1
:100EE0007A48844208D10121402000F03EFB0021D5
:100EF000402000F03AFB2EE07548844208D10121E1
:100F0000802000F032FB0021802000F02EFB22E048
:100F10007048844208D10121801500F026FB002191
:100F2000A01500F022FB16E06B48844208D1012195
:100F3000401500F01AFB0021601500F016FB0AE0D6
:100F40006648844207D10121001500F00EFB002104
:100F5000201500F00AFB10BDF0B50A460021002361
:100F6000002400BF3DE0012505FA01F3156805EAFC
:100F700003049C4234D105684F000326BE40B543AC
:100F8000056015794E00B540066835430560157952
:100F9000012D02D01579022D16D185684F00032648
:100FA000BE40B543856055794E00B54086683543EF
:100FB0008560456801268E40B54345604568967951
:100FC0008E40B6B235434560C5684F000326BE402B
:100FD000B543C560D5794E00B540C6683543C56098
:100FE000491C1029BFD3F0BD4FF6FF7101600021ED
:100FF000017141718171C171704708B54FF4803240
:101000000092009A0A430092009AC261C161009A5C
:10101000C261C2690092C269009208BD0246002006
:1010200013690B400BB1012000E00020704701461E
:10103000086980B270470246002053690B400BB12B
:10104000012000E0002070470146486980B27047E7
:1010500001837047418370470AB1018300E04183F7
:1010600070474161704742694A4042617047F0B53C
:10107000002300244D07ED0E02FA05F3CE1000F117
:10108000200555F826504E07F70E0F26BE40B543F3
:10109000CF1000F1200646F82750CE1000F12005B1
:1010A00055F8265045EA0304CE1000F1200545F816
:1010B0002640F0BD0000024000040240000802404B
:1010C000000C0240001002400014024000180240D0
:1010D000001C024000200240002402400028024080
:1010E000F948006840F00100F74908600020F6491F
:1010F00008310860F4480068F4490840F249086083
:10110000F348091D0860F348EF4984310860F0484E
:101110001038091D0860EC48006820F48020EA4976
:1011200008600020E8490C310860E7498C3108600C
:1011300070470021E44A921C1170114608707047F4
:1011400010B501460022002300204A11012A02D1D5
:10115000DD4C236808E0022A03D1DB4C703423689D
:1011600002E0D94C7434236801F01F02012494403A
:101170001C400CB1012000E0002010BD38B500205B
:1011800000900024002500BF3120FFF7D9FF05465D
:101190000098401C00900098B0F5A04F01D0002DA1
:1011A000F2D03120FFF7CCFF08B1012400E0002489
:1011B000204638BD01460020C34A106820F0F800E0
:1011C00040EAC10010607047C349086070470021C1
:1011D000BD4A703211701170012802D004280AD162
:1011E00004E00121B84A7032117005E00521B64AC9
:1011F0007032117000E000BF00BF7047B74908604F
:10120000704770B5049C41EA82150126C6EB53066F
:1012100045EA0645054345EA0465AB4E361D356093
:1012200070BDAD4908667047820142EA0172A64B63
:1012300084331A607047A8498866704710B58301E7
:1012400043EA016343EA02739F4C8834236010BD74
:10125000A14908677047A049C8647047024600204A
:10126000994B0833186820F0EC6042EA01031843F8
:10127000954B08331860704702460020924B0833A4
:10128000186820F0784042EA010318438E4B083377
:1012900018607047014600208B4A0832106820F021
:1012A000030008431060704787480830006800F06A
:1012B0000C00704701460020834A0832106820F075
:1012C000F000084310607047014600207E4A083253
:1012D000106820F4E0500843106070470146002079
:1012E000794A0832106820F4604040EAC10010607A
:1012F0007047F0B5002100220024022500260223B9
:10130000714F08373F6807F00C0121B1042905D05F
:10131000082937D105E0724F076036E0714F07604A
:1013200033E0694F3F1D3F68C7F38056664F3F1D4E
:101330003F6807F03F036EB16A4FB7FBF3F7DFF882
:1013400088C10CF1040CDCF800C0CCF3881C07FB4E
:101350000CF40CE0624FB7FBF3F7DFF86CC10CF153
:10136000040CDCF800C0CCF3881C07FB0CF4564FCF
:101370003F1D3F68C7F301477F1C7D00B4FBF5F7B5
:10138000076002E0564F076000BF00BF4E4F0837AE
:101390003F6807F0F0010909534F7A5C0768D740AE
:1013A0004760494F08373F6807F4E051890A4E4FBC
:1013B0007A5C4768D7408760434F08373F6807F437
:1013C0006041490B484F7A5C4768D740C760F0BD21
:1013D000002100F44072B2F5407F0AD13A4A083247
:1013E000116821F4F811414A02401143364A08328B
:1013F0001160354A70321268C0F30B031A43324B46
:1014000070331A6070473549443908607047334972
:10141000403908607047364908607047014600202F
:10142000294A8C32106820F01F004A1E1043264AB9
:101430008C321060704701460020234A8C321068BD
:1014400020F4F8504A1E40EA02201F4A8C321060F5
:101450007047014600201C4A8C32106820F440106E
:1014600008431060704701460020174A8C3210680C
:1014700020F4400008431060704701460020124AE3
:101480008C32106820F440300843106070471949CE
:101490000860704739B10C4A3032126802430A4B77
:1014A00030331A6006E0084A303212688243064B35
:1014B00030331A607047F9B1034A3432126802437C
:1014C000014B34331A601CE000380240FFFFF6EA9B
:1014D000103000240030002000004742800E4742B8
:1014E0000024F40000127A0000000020FFFCFF0F2F
:1014F0005C014742E01147428F4A126882438E4B9B
:101500001A60704739B18C4A121D126802438A4B27
:101510001B1D1A6006E0884A121D12688243864B22
:101520001B1D1A60704739B1834A0C32126802439E
:10153000814B0C331A6006E07F4A0C3212688243FA
:101540007D4B0C331A60704739B17B4A10321268F8
:101550000243794B10331A6006E0774A1032126862
:101560008243754B10331A60704739B1724A243A7E
:1015700012680243704B243B1A6006E06E4A243A1C
:10158000126882436C4B243B1A60704739B16A4A37
:10159000203A12680243684B203B1A6006E0664A14
:1015A000203A12688243644B203B1A60704739B17D
:1015B000614A1C3A126802435F4B1C3B1A6006E00A
:1015C0005D4A1C3A126882435B4B1C3B1A607047B1
:1015D00039B1594A143A12680243574B143B1A6006
:1015E00006E0554A143A12688243534B143B1A6082
:1015F000704739B1504A103A126802434E4B103BC3
:101600001A6006E04C4A103A126882434A4B103B7B
:101610001A60704739B1484A1C3212680243464B7F
:101620001C331A6006E0444A1C3212688243424B63
:101630001C331A60704739B13F4A203212680243A6
:101640003D4B20331A6006E03B4A20321268824349
:10165000394B20331A60704739B1374A2432126847
:101660000243354B24331A6006E0334A24321268B1
:101670008243314B24331A60704739B12E4A2C32E1
:10168000126802432C4B2C331A6006E02A4A2C3293
:1016900012688243284B2C331A60704739B1264AAE
:1016A000303212680243244B30331A6006E0224A7B
:1016B000303212688243204B30331A607047012861
:1016C00008D11D493C31096841F008011A4A3C32F1
:1016D000116007E018493C31096821F00801164AF9
:1016E0003C321160704739B1134A273A12780243ED
:1016F000114B273B1A7006E00F4A273A12788243B3
:101700000D4B273B1A7070470B484030006840F083
:101710008070094940310860704701460020064A40
:10172000283A12680A400AB1012000E00020704700
:1017300001492639087070473438024010B5044614
:10174000FA48844208D101211020FFF752FF0021FE
:101750001020FFF74EFF57E0F548844209D10121E0
:101760004804FFF735FF00214FF40030FFF730FF4A
:101770004AE0F048844209D101218804FFF728FF9C
:1017800000214FF48020FFF723FF3DE0EA48844228
:1017900009D10121C804FFF71BFF00214FF40020ED
:1017A000FFF716FF30E0E548844209D10121080522
:1017B000FFF70EFF00214FF48010FFF709FF23E031
:1017C000DF48844208D101212020FFF712FF0021C9
:1017D0002020FFF70EFF17E0DA48844209D10121EB
:1017E0008807FFF7F5FE00214FF08040FFF7F0FE7D
:1017F0000AE0D548844207D101214005FFF7E8FE01
:1018000000216005FFF7E4FE10BD2DE9FF47054606
:101810000E460024A14600BFA046B08900B100BF1B
:101820002C8A24F44054F08804432C82AC8941F281
:101830000C608443B08831890843718908430443AC
:10184000AC81AC8A24F44074B0890443AC8268460D
:10185000FFF74FFDB548854202D0B948854202D115
:10186000DDF80C9001E0DDF80890A88900F4004054
:1018700040B109EBC90000EB091031684900B0FB29
:10188000F1F707E009EBC90000EB091031688900A6
:10189000B0FBF1F76420B7FBF0F0040120096421EC
:1018A00001FB1078A88900F4004040B1322000EB21
:1018B000C800B0FBF1F000F00700044308E032205C
:1018C00000EB08106421B0FBF1F000F00F000443BE
:1018D0002C81BDE8FF874FF4165101600021818003
:1018E000C18001810C21418100218181704710B5A7
:1018F00002460020108A20F470600B884C88234335
:101900008C882343CC8823431843108210BD0021C8
:10191000018041808180C180704721B1828942F479
:101920000052828104E082894DF6FF731A40828161
:101930007047028B02F47F420283028B0A430283C8
:10194000704721B1828942F40042828103E082899A
:10195000C2F30E028281704721B1828A42F4006292
:10196000828204E0828A4FF2FF731A4082827047BB
:10197000C1F308028280704701468888C0F30800DE
:101980007047028A4FF6F0731A400282028A0A43B5
:101990000282704721B1828942F00202828104E012
:1019A00082894FF6FD731A408281704782894FF217
:1019B000FF731A40828182890A4382817047028ABA
:1019C0004FF6DF731A400282028A0A43028270478E
:1019D00021B1028A42F48042028204E0028A4BF67C
:1019E000FF731A4002827047818941F001018181B1
:1019F000704721B1828A42F00802828204E0828A22
:101A00004FF6F7731A4082827047028BD2B202837C
:101A1000028B42EA01220283704721B1828A42F09E
:101A20002002828204E0828A4FF6DF731A408282AB
:101A3000704721B1828A42F01002828204E0828AD9
:101A40004FF6EF731A4082827047828A4FF6FB731B
:101A50001A408282828A0A438282704721B1828A36
:101A600042F00202828204E0828A4FF6FD731A403D
:101A7000828270471AB1838A0B43838202E0838A91
:101A80008B4383827047F0B503460024002600256F
:101A9000002040F66A17B94200D100BF1846C1F3D2
:101AA000421401F01F06012707FA06F5012C01D1A7
:101AB0000C3004E0022C01D1103000E014301AB1D7
:101AC00007682F43076002E00768AF430760F0BD77
:101AD00002460020B1F5007F00D100BF13880B4003
:101AE0000BB1012000E00020704701F40072B2F554
:101AF000007F00D100BFCA430280704770B5024624
:101B0000002400230025002040F66A16B14200D1CF
:101B100000BFC1F3421501F01F03012606FA03F3CB
:101B2000012D13D19689334017E0000000100140C9
:101B30000044004000480040004C0040005000407D
:101B40000014014000780040007C0040022D02D1CA
:101B5000168A334001E0968A33400C12012606FAB9
:101B600004F41688344013B10CB1012000E00020C9
:101B700070BD10B50022002340F66A14A14200D1C6
:101B800000BF0A1201249440A3B2DC43048010BDBC
:101B9000704700BFFEE700BFFEE700BFFEE700BFE3
:101BA000FEE7704770477047704700000CB5002093
:101BB000019000907648006840F4803074490860D5
:101BC00000BF7348006800F4003000900198401C8A
:101BD0000190009818B90198B0F5A04FF1D16C4868
:101BE000006800F4003010B10120009001E00020F6
:101BF00000900098012846D165484030006840F0C8
:101C000080506349403108606248006840F44040B9
:101C1000604908605E48083000685D490831086026
:101C20000846006840F4004008600846006840F438
:101C3000A05008605848091F0860081F006840F05D
:101C40008070091F086000BF5148006800F00070F4
:101C50000028F9D040F20570504908604C4808301F
:101C6000006820F003004A4908310860084600680F
:101C700040F00200086000BF45480830006800F0EE
:101C80000C000828F8D10CBD10B54548006840F498
:101C90007000434908603E48006840F001003C493C
:101CA000086000203A4908310860394800683D4919
:101CB0000840374908603C48091D0860081F006853
:101CC00020F48020091F0860002031490C31086091
:101CD000FFF76CFF4FF0006031498039086010BD9C
:101CE00070B500200022022300240221284D08356F
:101CF0002D6805F00C0020B1042806D0082834D146
:101D000007E02A4D2A4E356033E02A4D284E3560D3
:101D10002FE01F4D2D1D2D68C5F380541C4D2D1D2A
:101D20002D6805F03F0154B1224DB5FBF1F5184E79
:101D3000361D3668C6F3881605FB06F209E01B4D12
:101D4000B5FBF1F5124E361D3668C6F3881605FB55
:101D500006F20F4D2D1D2D68C5F301456D1C6B005E
:101D6000B2FBF3F5124E356003E0104D104E3560B6
:101D700000BF00BF064D08352D68C5F303150E4E94
:101D8000705D0B4D2D68C540094E356070BD00007B
:101D9000003802400070004008544007003C0240F8
:101DA00088ED00E0FFFFF6FE103000240024F40070
:101DB0001000002000127A001400002010B5044624
:101DC0006FF00400FEF7A6FAE11704EB5171C1F3BE
:101DD000C701394A11701046007800EB4001C1EB91
:101DE000C0104FF6FF7101EAC0003449088010BDF1
:101DF0000146314A12784A434FF0E0235A610022EB
:101E00009A611A46126942F001021A6100BF4FF04E
:101E1000E022106900F001021AB100F48032002AB9
:101E2000F5D04FF0E022126922F001024FF0E023DA
:101E30001A6100229A6170470146204A12884A437B
:101E40004FF0E0235A6100229A611A46126942F06B
:101E500001021A6100BF4FF0E022106900F0010298
:101E60001AB100F48032002AF5D04FF0E022126956
:101E700022F001024FF0E0231A6100229A617047BC
:101E800070B504464FF4077094FBF0F0C6B24FF4FF
:101E9000077094FBF0F100FB114085B205E04FF4B0
:101EA0000770FFF7C9FF701EC6B2002EF7D115B13B
:101EB0002846FFF7C1FF70BD240000202600002047
:101EC000014600BF704700BF4E4A128802F0400230
:101ED000002AF9D0C2B24B4B9A80704710B588B037
:101EE000044601210846FFF7D5FA01211020FFF72B
:101EF0002BFB072209214448FFF7B9F807220A21E2
:101F00004148FFF7B4F84FF4C060069002208DF806
:101F10001C008DF81D0000208DF81E0001208DF89A
:101F20001F0006A93848FFF717F802940020ADF803
:101F30000C00ADF80E00ADF81000ADF814000C2048
:101F4000ADF8120002A92F48FFF75FFC01212D48D0
:101F5000FFF7E3FC40212B48FFF7C7FD012240F2C9
:101F600025512848FFF78FFD25208DF80400032018
:101F70008DF805008DF8060001208DF8070001A8F6
:101F8000FEF77BF908B010BD10B540F225511D4891
:101F9000FFF7B4FD10B31B48FFF7EEFCC4B21B48BB
:101FA000008800F40040C8B91848008800F4804058
:101FB00060B10A2C03D000201449088020E01348A7
:101FC000008840F400401149088019E00D2C06D12A
:101FD0000E48008840F480400C49088010E00B480F
:101FE0000088C0F30D000A490C5408480088401CC2
:101FF0000649088008460088C72801DD00200880BF
:1020000010BD000000100140000002402C00002024
:10201000D00000201CB501212020FFF73BFA4FF42F
:10202000C060009001208DF8040000208DF80600AB
:1020300003208DF8050001208DF80700694604484B
:10204000FEF78AFF4FF4C0610148FFF701F81CBD9D
:10205000001402401CB501211020FFF71BFA1820C4
:10206000009000208DF804008DF8060003208DF804
:10207000050001208DF8070069460248FEF76CFF55
:102080001CBD000000100240FB480089FB4908808D
:10209000704703B5BDF80000F8490880BDF804009A
:1020A0004FF0D841A1F880000CBD01B5BDF800008B
:1020B0000090BDF80000F149891C088008BD01B5F9
:1020C000BDF800000090BDF80000EC49088008BD94
:1020D00030B504460D46E848808849F241318842CF
:1020E00005D0E548808845F21031884214D1E24994
:1020F0004889FFF7E4FF2012FFF7D7FFE0B2FFF7B0
:10210000D4FFDD498889FFF7DAFF2812FFF7CDFFFA
:10211000E8B2FFF7CAFF5DE0D748808846F60401C1
:1021200088421DD1D4488079012804D1D248008842
:10213000401E001B84B2D0494889FFF7C0FF20121F
:10214000FFF7B3FFE0B2FFF7B0FFCB498889FFF795
:10215000B6FF2812FFF7A9FFE8B2FFF7A6FF39E0A4
:10216000C548808845F21051884220D1C24948892B
:10217000FFF7A5FF2012FFF798FFBF494989491CC7
:1021800088B2FFF79CFFE0B2FFF78FFFBA4988895A
:10219000FFF795FF2812FFF788FFB7498989491C87
:1021A00088B2FFF78CFFE8B2FFF77FFF12E0B2487A
:1021B0008079012804D1B0480088401E001B84B2F9
:1021C000AD4948892146FFF764FFAB498889294614
:1021D000FFF75FFF30BDF0B50746002435E000266D
:1021E0002FE004EB4400304481B20020FFF770FF81
:1021F000FFF74AFF002520E004EB840007EB4010C6
:1022000030F8150060B94FF6FF709C49891C0880B2
:102210004FF0D841A1F880009849891C08800AE055
:1022200000209649891C08804FF0D841A1F8800011
:102230009249891C0880681C85B2502DDCDB701C1B
:1022400086B2032ECDDB601C84B2502CC7DBF0BD00
:1022500070B504460D4616468748808849F24131DC
:10226000884205D08448808845F21031884214D1D4
:1022700081494889FFF723FF2012FFF716FFE0B2DC
:10228000FFF713FF7C498889FFF719FF2812FFF732
:102290000CFFE8B2FFF709FF5DE07748808845F260
:1022A0001051884220D174494889FFF708FF201255
:1022B000FFF7FBFE70494989491C88B2FFF7FFFE12
:1022C000E0B2FFF7F2FE6C498889FFF7F8FE2812AA
:1022D000FFF7EBFE68498989491C88B2FFF7EFFEDA
:1022E000E8B2FFF7E2FE36E06348808846F6040174
:1022F00088421DD160488079012804D15E48008859
:10230000401E001B84B25C494889FFF7D8FE2012AA
:10231000FFF7CBFEE0B2FFF7C8FE57498889FFF709
:10232000CEFE2812FFF7C1FEE8B2FFF7BEFE12E0B4
:1023300051488079012804D14F480088401E001B75
:1023400084B24D4948892146FFF7A3FE4A4988894E
:102350002946FFF79EFE48480089484908804FF00B
:10236000D840A0F8806070BD2DE9F84F80460E4639
:1023700017461C46B3462046E31704EB5373DB10A5
:1023800021464FEAE47C04EB5C7C4FEAEC0CA4EBC6
:10239000CC0CBCF1000F02D04FF0010C01E04FF06B
:1023A000000C6344224604EBD27C4FEA6C0C03FB26
:1023B0000CF3DBB20093A7F12000C7B2002556E072
:1023C0000C2C07D107EB47002D4901EB800010F8DA
:1023D000059013E0102C05D12A4800EB071010F8E7
:1023E00005900BE0182C07D107EBC700264901EB3D
:1023F000800010F8059001E0BDE8F88F4FF0000A6A
:102400002FE009F0800030B1204802883146404674
:10241000FFF71EFF07E00A9828B91D4802883146D9
:102420004046FFF715FF4FEA49604FEA1069701CFC
:1024300086B211484088B04200DCDDE7A6EB0B0015
:10244000A0420AD15E4608F101001FFA80F80A484E
:102450000088404500DCCFE706E00AF1010000F00B
:10246000FF0ABAF1080FCCDB00BF681CC5B20098A8
:102470008542A5DB00BFBFE7980100207E00006C0D
:1024800070720008E4760008D47C00082E0000205A
:102490003000002010B50246012000E050430B0040
:1024A000A1F10104E1B2F9D110BD2DE9FE4F824640
:1024B0000F4690460025102600200290C34604E0F7
:1024C0000A20BBFBF0FB681CC5B2BBF1000FF7D1C3
:1024D0003DB9002033463022514600903846FFF780
:1024E00043FF002438E0281B401EC1B20A20FFF73A
:1024F000D1FFB8FBF0F00A21B0FBF1F201FB1209A9
:102500000298B0B9681EA04213DDB9F1000F0ED1D8
:10251000002006EBD671491001FB0471CDE90006DD
:1025200088B2334620225146FFF71EFF12E00120F9
:102530000290002006EBD671491001FB0471CDE931
:10254000000688B209F13001CAB233465146FFF79E
:102550000BFF00BF601CC4B2AC42C4DBBDE8FE8F01
:1025600008B5FE4800880090BDF8000008BD01B520
:10257000BDF80000FFF7A3FD0520FFF739FCFFF7CA
:10258000EFFF08BDF5490880704730B5014601F0FE
:102590001F04C1F34513CA0AE50205EB43151544B0
:1025A000A8B230BD00BF0100A0F10102D0B2FAD143
:1025B00070473EB504460D46002002900190009001
:1025C000E7480088A04203DDE5484088A84201DCD6
:1025D00000203EBD29462046FFF77AFDE04880886E
:1025E00049F2413188420BD0DD48808846F604012B
:1025F000884205D0DA48808845F21031884203D1FC
:102600002E20FFF75CFD0DE0D548808845F2105183
:10261000884204D14FF43850FFF751FD02E02220E8
:10262000FFF74DFDCE48808849F22031884202D123
:102630000220FFF7B7FFFFF793FF0220FFF7B2FF7B
:10264000FFF78EFF0290C648808849F241318842E8
:102650000BD0C348808845F21031884205D0C0486D
:10266000808845F21051884210D10220FFF79AFF6E
:10267000FFF776FF0090BDF80800C0B20190BDF8EA
:1026800004004FF6FF7101EA00200190B4488088F1
:1026900049F22531884216D0B148808844F235513C
:1026A000884210D0AE488088091F88420BD0AC48C1
:1026B00080884BF20551884205D0A94880884CF2A9
:1026C0000551884202D1BDF8080082E7A4488088FD
:1026D00049F2413188420BD0A148808845F210313F
:1026E000884205D09E48808845F2105188420DD11D
:1026F000BDF80800C012C002BDF80410891240EAFB
:102700004110BDF8001040EAE12062E7BDF8080082
:10271000FFF73BFF5DE700B59148808849F2413102
:1027200088420BD08E48808846F60401884205D046
:102730008B48808845F21031884203D12920FFF769
:10274000BEFC0FE08648808845F21051884204D1D3
:102750004FF42450FFF7B3FC04E040F2731107205C
:10276000FFF797FC00BD00B57D48808849F24131F4
:1027700088420BD07A48808846F60401884205D00A
:102780007748808845F21031884203D12820FFF72E
:1027900096FC0EE07248808845F21051884204D1C0
:1027A0004FF42050FFF78BFC03E000210720FFF7D8
:1027B00070FC00BD2DE9F04305460024A1466848A1
:1027C000807901281ED16648808846F60401884237
:1027D00018D0082D15D2DFE805F00406080A0C0E03
:1027E000101206250DE007250BE0042509E005255C
:1027F00007E0012505E0002503E0032501E00225AF
:1028000000BF00BF5648808849F24131884211D04C
:102810005348808846F6040188420BD0504880888F
:1028200045F21031884205D04D48808845F210515C
:10283000884278D1082D1CD2DFE805F00406090C87
:102840000F12151800BF14E044F0800411E044F0AA
:1028500040040EE044F0C0040BE044F0200408E023
:1028600044F0600405E044F0A00402E044F0E00419
:1028700000BF00BF3A48808845F21051884202D11B
:102880004FF4585901E04FF036093548808845F239
:102890001031884207D03248808845F21051884272
:1028A00001D044F008042E48808846F6040188428E
:1028B00001D144F0020421464846FFF7EAFB04F048
:1028C000200018B92648807901280FD124480088B3
:1028D00023494988884218DA2148B0F800804088A6
:1028E0001F4908800846A0F802800EE01C480088B6
:1028F0001B494988884208DD1948B0F800804088A3
:10290000174908800846A0F80280154880790128F8
:102910000AD11348808846F60401884204D0104842
:102920004688078803E07FE00D48068847880C4802
:10293000808845F2105188424FD109494889FFF7F4
:10294000BEFB0020FFF7B1FB05494989491C88B24D
:10295000FFF7B5FB0020FFF7A8FB03E08000006C49
:1029600098010020FC494989891C88B2FFF7A7FB20
:10297000711EC1F30F20FFF798FBF7494989C91C65
:1029800088B2FFF79CFB711EC8B2FFF78EFBF249BD
:102990008889FFF794FB0020FFF787FBEE498989C0
:1029A000491C88B2FFF78BFB0020FFF77EFBEA494A
:1029B0008989891C88B2FFF782FB791EC1F30F2039
:1029C000FFF773FBE4498989C91C88B2FFF777FBDD
:1029D000791EC8B2FFF769FB5AE0DF494889FFF763
:1029E0006EFB0020FFF761FB0020FFF75EFB711E0E
:1029F000C1F30F20FFF759FB711EC8B2FFF755FB5B
:102A0000D5498889FFF75BFB0020FFF74EFB0020CC
:102A1000FFF74BFB791EC1F30F20FFF746FB791E32
:102A2000C8B2FFF742FB33E0082D1CD2DFE805F007
:102A300004070A0D0F12151844F0300413E044F097
:102A4000100410E044F020040DE000BF0BE044F05F
:102A5000380408E044F0280405E044F0180402E0DB
:102A600044F0080400BF00BFBB48808848F68911C5
:102A7000884205D14FF0110946F24000044303E0BB
:102A80004FF0030944F4805421464846FFF701FB08
:102A9000BDE8F08330B504460D4629462046FFF7D1
:102AA00017FBFFF7F1FAAD480088AD49088030BD4B
:102AB00010B50446002C52D1A7498871F020088037
:102AC0004FF4A07048800846808849F2413188421E
:102AD0000BD0A148808846F60401884205D09E4864
:102AE000808845F2103188421AD12C209A490881F9
:102AF0002A2048812B2088810846808846F60401D8
:102B0000884205D09448808845F21031884206D129
:102B10004FF4A070904908804FF4F070488079E03D
:102B20008D48808845F21051884210D14FF43050C2
:102B3000894908814FF4285048814FF42C508881EE
:102B40004FF4F07008804FF44870488062E0222013
:102B50008149088120204881212088815AE0012074
:102B60007D4988714FF4A0700880F02048800846A5
:102B7000808849F24131884205D07748808845F203
:102B80001031884207D12C20734908812A204881BE
:102B90002B2088812BE07048808846F6040188420B
:102BA00007D12C206C4908812B2048812A2088815C
:102BB0001DE06948808845F21051884210D14FF4D9
:102BC0003050654908814FF4285048814FF42C500B
:102BD00088814FF4487008804FF4F070488006E018
:102BE00022205D49088121204881202088815A487F
:102BF000808846F60401884205D05748808845F20F
:102C00001031884206D14FF4F070534908804FF4D8
:102C1000A07048800020FFF7CDFD10BD2DE9FF4FCB
:102C200004460D4616461F46A019401E86B2E819F6
:102C3000401E87B24848808849F2413188420BD013
:102C40004548808845F21031884205D04248808846
:102C500046F60401884220D13F494889FFF72FFA00
:102C60002012FFF722FAE0B2FFF71FFA3012FFF747
:102C70001CFAF0B2FFF719FA37498889FFF71FFAF3
:102C80002812FFF712FAE8B2FFF70FFA3812FFF72F
:102C90000CFAF8B2FFF709FA84E02F48808845F271
:102CA0001051884244D12C494889FFF708FA201274
:102CB000FFF7FBF928494989491C88B2FFF7FFF95A
:102CC000E0B2FFF7F2F924494989891C88B2FFF77D
:102CD000F6F93012FFF7E9F91F494989C91C88B292
:102CE000FFF7EDF9F0B2FFF7E0F91B498889FFF72C
:102CF000E6F92812FFF7D9F917498989491C88B2E2
:102D0000FFF7DDF9E8B2FFF7D0F913498989891C8B
:102D100088B2FFF7D4F93812FFF7C7F90E4989894D
:102D2000C91C88B2FFF7CBF9F8B2FFF7BEF939E05A
:102D300009488079012815D1A846B9460648008877
:102D4000801B401E1FFA80FA03480088001B401EAB
:102D50001FFA80FB0AE00000980100202E000020EE
:102D60008000006CA046B146AA46BB4650200390A6
:102D70005120029052200190532000904146039828
:102D8000FFF787F949460298FFF783F95146019802
:102D9000FFF77FF959460098FFF77BF9294620464F
:102DA000FFF796F9BDE8FF8F70B504460026FE4890
:102DB000058840884543FC48808846F604018842DF
:102DC00016D1F9488079012812D10020F64988717E
:102DD0002A2048812B20888100210846FFF778F9B6
:102DE0000120F14988712B2048812A20888103E045
:102DF00000210846FFF76CF9FFF746F9002602E0CC
:102E0000EA480480761CAE42FAD370BD00B5A1B08A
:102E10000020209001217A20FEF73CFB012108468A
:102E2000FEF770FB4FF400401E9001208DF87C00EF
:102E300000208DF87E0002208DF87D0001208DF8A5
:102E40007F001EA9DA48FEF787F84CF233701E9017
:102E500002208DF87C0000208DF87E0003208DF884
:102E60007D0001208DF87F001EA9D248FEF774F87E
:102E70004FF680701E9002208DF87C0000208DF8A7
:102E80007E0003208DF87D0001208DF87F001EA9B3
:102E9000C948FEF761F84FF480501E9002208DF86B
:102EA0007C0000208DF87E0003208DF87D0001203D
:102EB0008DF87F001EA9C148FEF74EF84FF48050F0
:102EC0001E9002208DF87C0000208DF87E000320EB
:102ED0008DF87D0001208DF87F001EA9B848FEF70F
:102EE0003BF80C220021B348FEF7C1F80C22012167
:102EF000B048FEF7BCF80C220421AE48FEF7B7F844
:102F00000C220521AB48FEF7B2F80C220821A94893
:102F1000FEF7ADF80C220921A648FEF7A8F80C220E
:102F20000A21A448FEF7A3F80C220E21A148FEF7BF
:102F30009EF80C220F219F48FEF799F80C220721DA
:102F40009D48FEF794F80C2208219B48FEF78FF865
:102F50000C2209219848FEF78AF80C220A2196488B
:102F6000FEF785F80C220B219348FEF780F80C221F
:102F700011469148FEF77BF80C220D218E48FEF792
:102F800076F80C220E218C48FEF771F80C220F21E6
:102F90008948FEF76CF80C2211468848FEF767F85E
:102FA0000C2211468648FEF762F80F200890002098
:102FB000099018200A9000200B900C900D900E9014
:102FC0000820019000200290082003900020049027
:102FD00005900690079006200F9000201090119009
:102FE00010201290002013901590149016901790B6
:102FF0004FF480501890002019904FF480401A90A0
:1030000000201B9008A81C9001A81D900FA8FDF798
:1030100054FC01210620FDF7DBFC3220FEF730FFD7
:1030200001210020FFF735F83220FEF729FF0020AC
:10303000FFF79DFA5C49888008468088FF280ADBF4
:10304000084680884FF6FF71884204D05648808831
:10305000B0F5134F7ED1D320FFF731F8FFF780FA98
:1030600051498880FFF77CFA4F498880FFF778FA4A
:103070004D498880084680884FF6FF7101EA00209C
:1030800049498880FFF76CFA4749898808434649CF
:1030900088800846808849F24131884278D0BF2034
:1030A000FFF70DF8FFF75CFA3F498880FFF758FA01
:1030B0003D498880FFF754FA3B498880FFF750FA72
:1030C00039498880084680884FF6FF7101EA002060
:1030D00035498880FFF744FA3349898808433249E3
:1030E00088800846808846F60401884250D0D42063
:1030F000FEF7E5FFFFF734FA2B498880FFF730FA37
:1031000029498880FFF72CFA27498880084680885B
:103110004FF6FF7101EA002023498880FFF720FA6B
:10312000214989880843204988800846808845F2DB
:10313000103188422CD04FF45A40FEF7C0FFFFF701
:103140000FFA194988804FF45B40FEF7B8FFFFF78C
:1031500007FA00E01CE014498880084680884FF692
:10316000FF7101EA0020104988804FF45C40FEF7AF
:10317000A6FFFFF7F5F90C49898808430A498880BA
:1031800008468088B0F5004F02D145F21050888083
:103190000548808849F2413188421AD00248808827
:1031A00045F2103188420DE0980100208000006C4B
:1031B00000040240000C02400010024000140240D3
:1031C0000018024005D0FB48808845F21051884223
:1031D0001DD1F948006820F00F004FF02041C1F8E0
:1031E0001C010846D0F81C0120F47060C1F81C01D5
:1031F0000846D0F81C0140F00300C1F81C01084645
:10320000D0F81C0140F40070C1F81C0128E0E94826
:10321000808846F60401884205D0E64880884CF252
:10322000055188421CD1E448006820F00F004FF09F
:103230002041C1F81C010846D0F81C0120F4706040
:10324000C1F81C010846D0F81C0140F00A00C1F882
:103250001C010846D0F81C0140F44060C1F81C0174
:10326000D4488188D5A003F0C7FED248808849F2AF
:10327000413188427ED1CF20FEF721FF0020FEF7AA
:1032800014FF2098401C2090C120FEF70EFF302034
:10329000FEF70BFFED20FEF712FF6420FEF705FF9F
:1032A0000320FEF702FF1220FEF7FFFE8120FEF74B
:1032B000FCFEE820FEF703FF8520FEF7F6FE102057
:1032C000FEF7F3FE7A20FEF7F0FECB20FEF7F7FEC6
:1032D0003920FEF7EAFE2C20FEF7E7FE0020FEF77D
:1032E000E4FE3420FEF7E1FE0220FEF7DEFEF720CA
:1032F000FEF7E5FE2020FEF7D8FEEA20FEF7DFFE0F
:103300000020FEF7D2FE0020FEF7CFFEC020FEF721
:10331000D6FE1B20FEF7C9FEC120FEF7D0FE01201D
:10332000FEF7C3FEC520FEF7CAFE3020FEF7BDFE45
:103330003020FEF7BAFEC720FEF7C1FEB720FEF729
:10334000B4FE3620FEF7BBFE4820FEF7AEFE3A2064
:10335000FEF7B5FE5520FEF7A8FEB120FEF7AFFE42
:103360000020FEF7A2FE1A20FEF79FFEB620FEF711
:10337000A6FE00E09AE00A20FEF797FEA220FEF7E4
:1033800094FEF220FEF79BFE0020FEF78EFE262024
:10339000FEF795FE0120FEF788FEE020FEF78FFE87
:1033A0000F20FEF782FE2A20FEF77FFE2820FEF780
:1033B0007CFE0820FEF779FE0E20FEF776FE082040
:1033C000FEF773FE5420FEF770FEA920FEF76DFE97
:1033D0004320FEF76AFE0A20FEF767FE0F20FEF785
:1033E00064FE0020FEF761FE0020FEF75EFE002076
:1033F000FEF75BFE0020FEF758FEE120FEF75FFEC1
:103400000020FEF752FE1520FEF74FFE1720FEF7B4
:103410004CFE0720FEF749FE1120FEF746FE06206F
:10342000FEF743FE2B20FEF740FE5620FEF73DFE42
:103430003C20FEF73AFE0520FEF737FE1020FEF78F
:1034400034FE0F20FEF731FE3F20FEF72EFE3F2018
:10345000FEF72BFE0F20FEF728FE2B20FEF72FFE97
:103460000020FEF722FE0020FEF71FFE0120FEF7DF
:103470001CFE3F20FEF719FE2A20FEF720FE00204A
:10348000FEF713FE0020FEF710FE0020FEF70DFEF3
:10349000EF20FEF70AFE1120FEF711FE7820FEF75E
:1034A000EFFC2920FEF70BFE03F068B84148808846
:1034B00046F6040188427CD11120FEF700FE14205C
:1034C000FEF7DEFCD020FEF7FAFD0720FEF7EDFD4B
:1034D0004220FEF7EAFD1D20FEF7E7FDD120FEF7B2
:1034E000EEFD0020FEF7E1FD1A20FEF7DEFD0920CB
:1034F000FEF7DBFDD220FEF7E2FD0120FEF7D5FD51
:103500002220FEF7D2FDC020FEF7D9FD1020FEF7E5
:10351000CCFD3B20FEF7C9FD0020FEF7C6FD0220D2
:10352000FEF7C3FD1120FEF7C0FDC520FEF7C7FD65
:103530000320FEF7BAFDC820FEF7C1FD0020FEF70C
:10354000B4FD2520FEF7B1FD2120FEF7AEFD0520DC
:10355000FEF7ABFD0020FEF7A8FD0A20FEF7A5FD53
:103560006520FEF7A2FD2520FEF79FFD7720FEF7E0
:103570009CFD5020FEF799FD0F20FEF796FD0020E0
:10358000FEF793FDF820FEF79AFD0120FEF78DFD72
:10359000FE20FEF794FD0020FEF787FD0220FEF7D7
:1035A00084FD2020FEF78BFD3620FEF788FD0820E5
:1035B0000CE038E0980100201C0100A0204C43449E
:1035C0002049443A25780D0A00000000FEF76DFD01
:1035D0003A20FEF774FD5520FEF767FD2B20FEF71D
:1035E0006EFD0020FEF761FD0020FEF75EFD01206C
:1035F000FEF75BFD3F20FEF758FD2A20FEF75FFD3A
:103600000020FEF752FD0020FEF74FFD0120FEF7DF
:103610004CFDDF20FEF749FD7820FEF731FC292024
:10362000FEF74DFD40E7FE48808845F210318842A4
:1036300040F07C87ED20FEF742FD0120FEF735FDCE
:10364000FE20FEF732FDEE20FEF739FDDE20FEF70C
:103650002CFD2120FEF729FDF120FEF730FD012091
:10366000FEF723FDDF20FEF72AFD1020FEF71DFDEB
:10367000C420FEF724FD8F20FEF717FDC620FEF7BD
:103680001EFD0020FEF711FDE220FEF70EFDE220F8
:10369000FEF70BFDE220FEF708FDBF20FEF70FFD51
:1036A000AA20FEF702FDB020FEF709FD0D20FEF76F
:1036B000FCFC0020FEF7F9FC0D20FEF7F6FC0020D4
:1036C000FEF7F3FC1120FEF7F0FC0020FEF7EDFC06
:1036D0001920FEF7EAFC0020FEF7E7FC2120FEF7A8
:1036E000E4FC0020FEF7E1FC2D20FEF7DEFC0020CC
:1036F000FEF7DBFC3D20FEF7D8FC0020FEF7D5FCF2
:103700005D20FEF7D2FC0020FEF7CFFC5D20FEF727
:10371000CCFC0020FEF7C9FCB120FEF7D0FC8020D5
:10372000FEF7C3FC0020FEF7C0FC8B20FEF7BDFCBB
:103730000020FEF7BAFC9620FEF7B7FC0020FEF74B
:10374000B4FCB220FEF7BBFC0020FEF7AEFC00206C
:10375000FEF7ABFC0220FEF7A8FC0020FEF7A5FC5C
:103760000320FEF7A2FC0020FEF79FFCB320FEF72B
:10377000A6FC0020FEF799FC0020FEF796FC002036
:10378000FEF793FC0020FEF790FC0020FEF78DFC76
:103790000020FEF78AFC0020FEF787FC0020FEF7E1
:1037A00084FC0020FEF781FC0020FEF77EFC002058
:1037B000FEF77BFC0020FEF778FC0020FEF775FC8E
:1037C0000020FEF772FC0020FEF76FFC0020FEF7E1
:1037D0006CFC0020FEF769FC0020FEF766FC002070
:1037E000FEF763FC0020FEF760FC0020FEF75DFCA6
:1037F0000020FEF75AFC0020FEF757FC0020FEF7E1
:1038000054FCB420FEF75BFC8B20FEF74EFC00203E
:10381000FEF74BFC9620FEF748FC0020FEF745FC27
:10382000A120FEF742FC0020FEF73FFCB520FEF78A
:1038300046FC0220FEF739FC0020FEF736FC032090
:10384000FEF733FC0020FEF730FC0420FEF72DFCD1
:103850000020FEF72AFCB620FEF731FC0020FEF720
:1038600024FC0020FEF721FCB720FEF728FC0020F6
:10387000FEF71BFC0020FEF718FC3F20FEF715FCAE
:103880000020FEF712FC5E20FEF70FFC0020FEF782
:103890000CFC6420FEF709FC0020FEF706FC8C20DF
:1038A000FEF703FC0020FEF700FCAC20FEF7FDFB5A
:1038B0000020FEF7FAFBDC20FEF7F7FB0020FEF706
:1038C000F4FB7020FEF7F1FB0020FEF7EEFB9020EA
:1038D000FEF7EBFB0020FEF7E8FBEB20FEF7E5FB35
:1038E0000020FEF7E2FBDC20FEF7DFFB0020FEF706
:1038F000DCFBB820FEF7E3FB0020FEF7D6FB002040
:10390000FEF7D3FB0020FEF7D0FB0020FEF7CDFB37
:103910000020FEF7CAFB0020FEF7C7FB0020FEF7E1
:10392000C4FB0020FEF7C1FBBA20FEF7C8FB242031
:10393000FEF7BBFB0020FEF7B8FB0020FEF7B5FB4F
:103940000020FEF7B2FBC120FEF7B9FB2020FEF7F6
:10395000ACFB0020FEF7A9FB5420FEF7A6FB0020DD
:10396000FEF7A3FBFF20FEF7A0FB0020FEF79DFB68
:10397000C220FEF7A4FB0A20FEF797FB0020FEF70B
:1039800094FB0420FEF791FB0020FEF78EFBC32082
:10399000FEF795FB3C20FEF788FB0020FEF785FB39
:1039A0003A20FEF782FB0020FEF77FFB3920FEF76E
:1039B0007CFB0020FEF779FB3720FEF776FB00202A
:1039C000FEF773FB3C20FEF770FB0020FEF76DFB5B
:1039D0003620FEF76AFB0020FEF767FB3220FEF779
:1039E00064FB0020FEF761FB2F20FEF75EFB00204A
:1039F000FEF75BFB2C20FEF758FB0020FEF755FB83
:103A00002920FEF752FB0020FEF74FFB2620FEF791
:103A10004CFB0020FEF749FB2420FEF746FB01E0AB
:103A2000980100200020FEF740FB2420FEF73DFB1C
:103A30000020FEF73AFB2320FEF737FB0020FEF7BD
:103A400034FB3C20FEF731FB0020FEF72EFB362036
:103A5000FEF72BFB0020FEF728FB3220FEF725FBAC
:103A60000020FEF722FB2F20FEF71FFB0020FEF7B1
:103A70001CFB2C20FEF719FB0020FEF716FB29206B
:103A8000FEF713FB0020FEF710FB2620FEF70DFBD0
:103A90000020FEF70AFB2420FEF707FB0020FEF7BC
:103AA00004FB2420FEF701FB0020FEF7FEFA232092
:103AB000FEF7FBFA0020FEF7F8FAC420FEF7FFFA43
:103AC0006220FEF7F2FA0020FEF7EFFA0520FEF77B
:103AD000ECFA0020FEF7E9FA8420FEF7E6FA00206F
:103AE000FEF7E3FAF020FEF7E0FA0020FEF7DDFA39
:103AF0001820FEF7DAFA0020FEF7D7FAA420FEF726
:103B0000D4FA0020FEF7D1FA1820FEF7CEFA0020F2
:103B1000FEF7CBFA5020FEF7C8FA0020FEF7C5FAF0
:103B20000C20FEF7C2FA0020FEF7BFFA1720FEF7BE
:103B3000BCFA0020FEF7B9FA9520FEF7B6FA00208D
:103B4000FEF7B3FAF320FEF7B0FA0020FEF7ADFA65
:103B5000E620FEF7AAFA0020FEF7A7FAC520FEF736
:103B6000AEFA3220FEF7A1FA0020FEF79EFA4420BA
:103B7000FEF79BFA0020FEF798FA6520FEF795FA0B
:103B80000020FEF792FA7620FEF78FFA0020FEF76B
:103B90008CFA8820FEF789FA0020FEF786FAC62004
:103BA000FEF78DFA2020FEF780FA0020FEF77DFA5E
:103BB0001720FEF77AFA0020FEF777FA0120FEF7C9
:103BC00074FA0020FEF771FAC720FEF778FA002099
:103BD000FEF76BFA0020FEF768FA0020FEF765FAA0
:103BE0000020FEF762FAC820FEF769FA0020FEF70F
:103BF0005CFA0020FEF759FA0020FEF756FA002082
:103C0000FEF753FAC920FEF75AFA0020FEF74DFAE4
:103C10000020FEF74AFA0020FEF747FA0020FEF7E0
:103C200044FA0020FEF741FA0020FEF73EFA002099
:103C3000FEF73BFA0020FEF738FA0020FEF735FACF
:103C40000020FEF732FA0020FEF72FFA0020FEF7E0
:103C50002CFA0020FEF729FA0020FEF726FA0020B1
:103C6000FEF723FA0020FEF720FAE020FEF727FAFD
:103C70001620FEF71AFA0020FEF717FA1C20FEF7AE
:103C800014FA0020FEF711FA2120FEF70EFA0020A8
:103C9000FEF70BFA3620FEF708FA0020FEF705FAC9
:103CA0004620FEF702FA0020FEF7FFF95220FEF749
:103CB000FCF90020FEF7F9F96420FEF7F6F9002080
:103CC000FEF7F3F97A20FEF7F0F90020FEF7EDF9A0
:103CD0008B20FEF7EAF90020FEF7E7F99920FEF7BE
:103CE000E4F90020FEF7E1F9A820FEF7DEF9002054
:103CF000FEF7DBF9B920FEF7D8F90020FEF7D5F979
:103D0000C420FEF7D2F90020FEF7CFF9CA20FEF753
:103D1000CCF90020FEF7C9F9D220FEF7C6F9002041
:103D2000FEF7C3F9D920FEF7C0F90020FEF7BDF970
:103D3000E020FEF7BAF90020FEF7B7F9F320FEF70E
:103D4000B4F90020FEF7B1F9E120FEF7B8F916202A
:103D5000FEF7ABF90020FEF7A8F91C20FEF7A5F945
:103D60000020FEF7A2F92220FEF79FF90020FEF7BF
:103D70009CF93620FEF799F90020FEF796F94520C8
:103D8000FEF793F90020FEF790F95220FEF78DF927
:103D90000020FEF78AF96420FEF787F90020FEF77D
:103DA00084F97A20FEF781F90020FEF77EF98B2056
:103DB000FEF77BF90020FEF778F99920FEF775F9F8
:103DC0000020FEF772F9A820FEF76FF90020FEF739
:103DD0006CF9B920FEF769F90020FEF766F9C420F6
:103DE000FEF763F90020FEF760F9CA20FEF75DF9DF
:103DF0000020FEF75AF9D220FEF757F90020FEF70F
:103E000054F9D820FEF751F90020FEF74EF9E020D2
:103E1000FEF74BF90020FEF748F9F320FEF745F9CD
:103E20000020FEF742F9E220FEF749F90520FEF7EF
:103E30003CF90020FEF739F90B20FEF736F9002097
:103E4000FEF733F91B20FEF730F90020FEF72DF9BD
:103E50003420FEF72AF90020FEF727F94420FEF768
:103E600024F90020FEF721F94F20FEF71EF900206B
:103E7000FEF71BF96120FEF718F90020FEF715F98F
:103E80007920FEF712F90020FEF70FF98820FEF7DF
:103E90000CF90020FEF709F99720FEF706F900203B
:103EA000FEF703F9A620FEF700F90020FEF7FDF863
:103EB000B720FEF7FAF80020FEF7F7F8C220FEF769
:103EC000F4F80020FEF7F1F8C720FEF7EEF8002026
:103ED000FEF7EBF8D120FEF7E8F80020FEF7E5F852
:103EE000D620FEF7E2F80020FEF7DFF8DD20FEF72F
:103EF000DCF80020FEF7D9F8F320FEF7D6F8002012
:103F0000FEF7D3F8E320FEF7DAF80520FEF7CDF848
:103F10000020FEF7CAF80A20FEF7C7F80020FEF7D7
:103F2000C4F81C20FEF7C1F80020FEF7BEF83320CD
:103F3000FEF7BBF80020FEF7B8F84420FEF7B5F80E
:103F40000020FEF7B2F85020FEF7AFF80020FEF791
:103F5000ACF86220FEF7A9F80020FEF7A6F878205A
:103F6000FEF7A3F80020FEF7A0F88820FEF79DF8E2
:103F70000020FEF79AF89720FEF797F80020FEF74A
:103F800094F8A620FEF791F80020FEF78EF8B720EF
:103F9000FEF78BF80020FEF788F8C220FEF785F8C0
:103FA0000020FEF782F8C720FEF77FF80020FEF71A
:103FB0007CF8D120FEF779F80020FEF776F8D520BE
:103FC000FEF773F80020FEF770F8DD20FEF76DF8BD
:103FD0000020FEF76AF8F320FEF767F80020FEF7EE
:103FE00064F8E420FEF76BF80120FEF75EF800208D
:103FF000FEF75BF80120FEF758F80020FEF755F8B1
:104000000220FEF752F80020FEF74FF82A20FEF7B4
:104010004CF80020FEF749F83C20FEF746F8002057
:10402000FEF743F84B20FEF740F80020FEF73DF87E
:104030005D20FEF73AF80020FEF737F87420FEF70F
:1040400034F80020FEF731F88420FEF72EF8002027
:10405000FEF72BF89320FEF728F80020FEF725F84E
:10406000A220FEF722F80020FEF71FF8B320FEF78B
:104070001CF80020FEF719F8BE20FEF716F8002005
:10408000FEF713F8C420FEF710F80020FEF70DF835
:10409000CD20FEF70AF80020FEF707F8D320FEF740
:1040A00004F80020FEF701F8DD20FDF7FEFF0020F8
:1040B000FDF7FBFFF320FDF7F8FF0020FDF7F5FF0C
:1040C000E520FDF7FCFF0020FDF7EFFF0020FDF7E6
:1040D000ECFF0020FDF7E9FF0020FDF7E6FF0220DE
:1040E000FDF7E3FF0020FDF7E0FF2920FDF7DDFFEE
:1040F0000020FDF7DAFF3C20FDF7D7FF0020FDF799
:10410000D4FF4B20FDF7D1FF0020FDF7CEFF5D204F
:10411000FDF7CBFF0020FDF7C8FF7420FDF7C5FFBA
:104120000020FDF7C2FF8420FDF7BFFF0020FDF750
:10413000BCFF9320FDF7B9FF0020FDF7B6FFA220DA
:10414000FDF7B3FF0020FDF7B0FFB320FDF7ADFF93
:104150000020FDF7AAFFBE20FDF7A7FF0020FDF716
:10416000A4FFC420FDF7A1FF0020FDF79EFFCD2096
:10417000FDF79BFF0020FDF798FFD320FDF795FF8B
:104180000020FDF792FFDC20FDF78FFF0020FDF7F8
:104190008CFFF320FDF789FF0020FDF786FFE62066
:1041A000FDF78DFF1120FDF780FF0020FDF77DFF5B
:1041B0003420FDF77AFF0020FDF777FF5620FDF74A
:1041C00074FF0020FDF771FF7620FDF76EFF0020E1
:1041D000FDF76BFF7720FDF768FF0020FDF765FF17
:1041E0006620FDF762FF0020FDF75FFF8820FDF7E6
:1041F0005CFF0020FDF759FF9920FDF756FF0020D6
:10420000FDF753FFBB20FDF750FF0020FDF74DFFEA
:104210009920FDF74AFF0020FDF747FF6620FDF7D4
:1042200044FF0020FDF741FF5520FDF73EFF002031
:10423000FDF73BFF5520FDF738FF0020FDF735FF68
:104240004520FDF732FF0020FDF72FFF4320FDF74B
:104250002CFF0020FDF729FF4420FDF726FF00205A
:10426000FDF723FFE720FDF72AFF3220FDF71DFFB2
:104270000020FDF71AFF5520FDF717FF0020FDF77E
:1042800014FF7620FDF711FF0020FDF70EFF6620DA
:10429000FDF70BFF0020FDF708FF6720FDF705FF86
:1042A0000020FDF702FF6720FDF7FFFE0020FDF76D
:1042B000FCFE8720FDF7F9FE0020FDF7F6FE9920B1
:1042C000FDF7F3FE0020FDF7F0FEBB20FDF7EDFE4D
:1042D0000020FDF7EAFE9920FDF7E7FE0020FDF73C
:1042E000E4FE7720FDF7E1FE0020FDF7DEFE44202E
:1042F000FDF7DBFE0020FDF7D8FE5620FDF7D5FECA
:104300000020FDF7D2FE2320FDF7CFFE0020FDF7B1
:10431000CCFE3320FDF7C9FE0020FDF7C6FE452088
:10432000FDF7C3FE0020FDF7C0FEE820FDF7C7FE45
:104330000020FDF7BAFE0020FDF7B7FE9920FDF73B
:10434000B4FE0020FDF7B1FE8720FDF7AEFE002091
:10435000FDF7ABFE8820FDF7A8FE0020FDF7A5FEC7
:104360007720FDF7A2FE0020FDF79FFE6620FDF7F7
:104370009CFE0020FDF799FE8820FDF796FE0020A8
:10438000FDF793FEAA20FDF790FE0020FDF78DFEBD
:10439000BB20FDF78AFE0020FDF787FE9920FDF780
:1043A00084FE0020FDF781FE6620FDF77EFE0020E2
:1043B000FDF77BFE5520FDF778FE0020FDF775FE2A
:1043C0005520FDF772FE0020FDF76FFE4420FDF73B
:1043D0006CFE0020FDF769FE4420FDF766FE00201C
:1043E000FDF763FE5520FDF760FE0020FDF75DFE42
:1043F000E920FDF764FEAA20FDF757FE0020FDF737
:1044000054FE0020FDF751FE0020FDF74EFE002077
:10441000FDF755FEAA20FDF748FECF20FDF74FFE21
:104420000020FDF742FE0020FDF73FFE0020FDF7D3
:104430003CFE0020FDF739FE0020FDF736FE00208F
:10444000FDF733FE0020FDF730FE0020FDF72DFEC6
:104450000020FDF72AFE0020FDF727FE0020FDF7D3
:1044600024FE0020FDF721FE0020FDF71EFE0020A7
:10447000FDF71BFE0020FDF718FE0020FDF715FEDE
:104480000020FDF712FEF020FDF719FE0020FDF7D9
:104490000CFE5020FDF709FE0020FDF706FE00206F
:1044A000FDF703FE0020FDF700FEF320FDF707FEF9
:1044B0000020FDF7FAFDF920FDF701FE0620FDF7CB
:1044C000F4FD1020FDF7F1FD2920FDF7EEFD0020A1
:1044D000FDF7EBFD3A20FDF7F2FD5520FDF7E5FD78
:1044E0001120FDF7ECFD6420FDF7CAFC2920FDF743
:1044F000E6FD3520FDF7E3FD0020FDF7D6FD512058
:10450000FDF7DDFDFF20FDF7D0FD5320FDF7D7FDC2
:104510002C20FDF7CAFD5520FDF7D1FD8220FDF7C7
:10452000C4FD2C20FDF7CBFD02F028B8FE488088A2
:1045300045F2105188427DD155214FF47040FDF76E
:10454000A8FDAA214FF20100FDF7A3FD52214FF271
:104550000200FDF79EFD08214FF20300FDF799FDD3
:1045600001214FF20400FDF794FD0D214FF430407E
:10457000FDF78FFD0D214BF20100FDF78AFD0D21A6
:104580004BF20200FDF785FD34214FF43640FDF774
:1045900080FD34214BF20160FDF77BFD34214BF2AD
:1045A0000260FDF776FD0D214FF43140FDF771FDFE
:1045B0000D214BF20110FDF76CFD0D214BF20210A5
:1045C000FDF767FD34214FF43740FDF762FD3421DC
:1045D0004BF20170FDF75DFD34214BF20270FDF7E7
:1045E00058FD00214FF43240FDF753FD00214BF2FE
:1045F0000120FDF74EFD00214BF20220FDF749FDA1
:1046000024214FF43840FDF744FD24214BF60100EE
:10461000FDF73FFD24214BF60200FDF73AFD012195
:104620004FF43F40FDF735FD0F214FF43340FDF7C8
:1046300030FD00E0FDE30F214BF20130FDF729FDD5
:104640000F214BF20230FDF724FD34214FF43940A5
:10465000FDF71FFD34214BF60110FDF71AFD342143
:104660004BF60210FDF715FD08214FF43540FDF71C
:1046700010FD08214BF20150FDF70BFD08214BF214
:104680000250FDF706FD03214FF44240FDF701FD06
:1046900024214FF43A40FDF7FCFC24214BF6012085
:1046A000FDF7F7FC24214BF60220FDF7F2FC002178
:1046B0004FF43C40FDF7EDFC78214BF60140FDF74F
:1046C000E8FC00214BF60240FDF7E3FC00214FF42B
:1046D0003D40FDF7DEFC78214BF60150FDF7D9FC9B
:1046E00000214BF60250FDF7D4FC00214FF43E4070
:1046F000FDF7CFFC64214BF60160FDF7CAFC0021F9
:104700004FF45140FDF7C5FC33214DF20110FDF788
:10471000C0FC00214DF20210FDF7BBFC34214DF22C
:104720000310FDF7B6FC00214DF20410FDF7B1FCBB
:104730003A214DF20510FDF7ACFC00214DF20610B8
:10474000FDF7A7FC4A214DF20710FDF7A2FC00215E
:104750004DF20810FDF79DFC5C214DF20910FDF7AC
:1047600098FC00214DF20A10FDF793FC81214DF2D7
:104770000B10FDF78EFC00214DF20C10FDF789FCAB
:10478000A6214DF20D10FDF784FC00214DF20E1014
:10479000FDF77FFCE5214DF20F10FDF77AFC0121BA
:1047A0004DF21010FDF775FC13214DF21110FDF7BD
:1047B00070FC01214DF21210FDF76BFC54214DF2FB
:1047C0001310FDF766FC01214DF21410FDF761FC9A
:1047D00082214DF21510FDF75CFC01214DF21610FF
:1047E000FDF757FCCA214DF21710FDF752FC0221CC
:1047F0004DF21810FDF74DFC00214DF21910FDF798
:1048000048FC02214DF21A10FDF743FC01214DF244
:104810001B10FDF73EFC02214DF21C10FDF739FC88
:1048200034214DF21D10FDF734FC02214DF21E1013
:10483000FDF72FFC67214DF21F10FDF72AFC022126
:104840004DF22010FDF725FC84214DF22110FDF7DB
:1048500020FC02214DF22210FDF71BFCA4214DF299
:104860002310FDF716FC02214DF22410FDF711FC78
:10487000B7214DF22510FDF70CFC02214DF2261058
:10488000FDF707FCCF214DF22710FDF702FC0221B6
:104890004DF22810FDF7FDFBDE214DF22910FDF74A
:1048A000F8FB02214DF22A10FDF7F3FBF2214DF245
:1048B0002B10FDF7EEFB02214DF22C10FDF7E9FB6A
:1048C000FE214DF22D10FDF7E4FB03214DF22E10D9
:1048D000FDF7DFFB10214DF22F10FDF7DAFB03216E
:1048E0004DF23010FDF7D5FB33214DF23110FDF7BD
:1048F000D0FB03214DF23210FDF7CBFB6D214DF2C1
:104900003310FDF7C6FB00214FF45240FDF7C1FB09
:1049100033214DF20120FDF7BCFB00214DF20220B6
:10492000FDF7B7FB342101E0980100204DF2032090
:10493000FDF7AFFB00214DF20420FDF7AAFB3A2161
:104940004DF20520FDF7A5FB00214DF20620FDF7F5
:10495000A0FB4A214DF20720FDF79BFB00214DF201
:104960000820FDF796FB5C214DF20920FDF791FB35
:1049700000214DF20A20FDF78CFB81214DF20B2026
:10498000FDF787FB00214DF20C20FDF782FBA621ED
:104990004DF20D20FDF77DFB00214DF20E20FDF7BD
:1049A00078FBE5214DF20F20FDF773FB01214DF25D
:1049B0001020FDF76EFB13214DF21120FDF769FB6E
:1049C00001214DF21220FDF764FB54214DF213201A
:1049D000FDF75FFB01214DF21420FDF75AFB822108
:1049E0004DF21520FDF755FB01214DF21620FDF784
:1049F00050FBCA214DF21720FDF74BFB02214DF26F
:104A00001820FDF746FB00214DF21920FDF741FB70
:104A100002214DF21A20FDF73CFB01214DF21B2033
:104A2000FDF737FB02214DF21C20FDF732FB34214C
:104A30004DF21D20FDF72DFB02214DF21E20FDF74A
:104A400028FB67214DF21F20FDF723FB02214DF2C9
:104A50002020FDF71EFB84214DF22120FDF719FBDC
:104A600002214DF22220FDF714FBA4214DF2232058
:104A7000FDF70FFB02214DF22420FDF70AFBB721C1
:104A80004DF22520FDF705FB02214DF22620FDF712
:104A900000FBCF214DF22720FDF7FBFA02214DF25A
:104AA0002820FDF7F6FADE214DF22920FDF7F1FA74
:104AB00002214DF22A20FDF7ECFAF2214DF22B20D3
:104AC000FDF7E7FA02214DF22C20FDF7E2FAFE2174
:104AD0004DF22D20FDF7DDFA03214DF22E20FDF7DA
:104AE000D8FA10214DF22F20FDF7D3FA03214DF211
:104AF0003020FDF7CEFA33214DF23120FDF7C9FA0F
:104B000003214DF23220FDF7C4FA6D214DF233201E
:104B1000FDF7BFFA00214FF45340FDF7BAFA3321F5
:104B20004DF20130FDF7B5FA00214DF20230FDF7EC
:104B3000B0FA34214DF20330FDF7ABFA00214DF20B
:104B40000430FDF7A6FA3A214DF20530FDF7A1FA3F
:104B500000214DF20630FDF79CFA4A214DF2073054
:104B6000FDF797FA00214DF20830FDF792FA5C212B
:104B70004DF20930FDF78DFA00214DF20A30FDF7B4
:104B800088FA81214DF20B30FDF783FA00214DF2B6
:104B90000C30FDF77EFAA6214DF20D30FDF779FAC3
:104BA00000214DF20E30FDF774FAE5214DF20F3081
:104BB000FDF76FFA01214DF21030FDF76AFA13216B
:104BC0004DF21130FDF765FA01214DF21230FDF77B
:104BD00060FA54214DF21330FDF75BFA01214DF2DA
:104BE0001430FDF756FA82214DF21530FDF751FAD7
:104BF00001214DF21630FDF74CFACA214DF2173063
:104C0000FDF747FA02214DF21830FDF742FA002174
:104C10004DF21930FDF73DFA02214DF21A30FDF741
:104C200038FA01214DF21B30FDF733FA02214DF223
:104C30001C30FDF72EFA34214DF21D30FDF729FA14
:104C400002214DF21E30FDF724FA67214DF21F308C
:104C5000FDF71FFA02214DF22030FDF71AFA8421E8
:104C60004DF22130FDF715FA02214DF22230FDF709
:104C700010FAA4214DF22330FDF70BFA02214DF278
:104C80002430FDF706FAB7214DF22530FDF701FA81
:104C900002214DF22630FDF7FCF9CF214DF22730ED
:104CA000FDF7F7F902214DF22830FDF7F2F9DE2188
:104CB0004DF22930FDF7EDF902214DF22A30FDF7D2
:104CC000E8F9F2214DF22B30FDF7E3F902214DF224
:104CD0002C30FDF7DEF9FE214DF22D30FDF7D9F92C
:104CE00003214DF22E30FDF7D4F910214DF22F3073
:104CF000FDF7CFF903214DF23030FDF7CAF933212A
:104D00004DF23130FDF7C5F903214DF23230FDF798
:104D1000C0F96D214DF23330FDF7BBF900214FF49E
:104D20005440FDF7B6F933214DF20140FDF7B1F9DA
:104D300000214DF20240FDF7ACF934214DF2034061
:104D4000FDF7A7F900214DF20440FDF7A2F93A2141
:104D50004DF20540FDF79DF900214DF20640FDF7AB
:104D600098F94A214DF20740FDF793F900214DF2E1
:104D70000840FDF78EF95C214DF20940FDF789F9F5
:104D800000214DF20A40FDF784F981214DF20B40DC
:104D9000FDF77FF900214DF20C40FDF77AF9A621CD
:104DA0004DF20D40FDF775F900214DF20E40FDF773
:104DB00070F9E5214DF20F40FDF76BF901214DF23D
:104DC0001040FDF766F913214DF21140FDF761F92E
:104DD00001214DF21240FDF75CF954214DF21340D0
:104DE000FDF757F901214DF21440FDF752F98221E8
:104DF0004DF21540FDF74DF901214DF21640FDF73A
:104E000048F9CA214DF21740FDF743F902214DF24E
:104E10001840FDF73EF900214DF21940FDF739F930
:104E200002214DF21A40FDF734F901214DF21B40E9
:104E300000E006E3FDF72DF902214DF21C40FDF7DD
:104E400028F934214DF21D40FDF723F902214DF2DE
:104E50001E40FDF71EF967214DF21F40FDF719F9BD
:104E600002214DF22040FDF714F984214DF221403A
:104E7000FDF70FF902214DF22240FDF70AF9A421B6
:104E80004DF22340FDF705F902214DF22440FDF7D4
:104E900000F9B7214DF22540FDF7FBF802214DF254
:104EA0002640FDF7F6F8CF214DF22740FDF7F1F847
:104EB00002214DF22840FDF7ECF8DE214DF22940A9
:104EC000FDF7E7F802214DF22A40FDF7E2F8F22162
:104ED0004DF22B40FDF7DDF802214DF22C40FDF79D
:104EE000D8F8FE214DF22D40FDF7D3F803214DF205
:104EF0002E40FDF7CEF810214DF22F40FDF7C9F8F6
:104F000003214DF23040FDF7C4F833214DF231401A
:104F1000FDF7BFF803214DF23240FDF7BAF86D21DD
:104F20004DF23340FDF7B5F800214FF45540FDF741
:104F3000B0F833214DF20150FDF7ABF800214DF2EE
:104F40000250FDF7A6F834214DF20350FDF7A1F809
:104F500000214DF20450FDF79CF83A214DF2055026
:104F6000FDF797F800214DF20650FDF792F84A211F
:104F70004DF20750FDF78DF800214DF20850FDF776
:104F800088F85C214DF20950FDF783F800214DF2BD
:104F90000A50FDF77EF881214DF20B50FDF779F8AC
:104FA00000214DF20C50FDF774F8A6214DF20D5082
:104FB000FDF76FF800214DF20E50FDF76AF8E5217C
:104FC0004DF20F50FDF765F801214DF21050FDF73D
:104FD00060F813214DF21150FDF75BF801214DF2FD
:104FE0001250FDF756F854214DF21350FDF751F8C9
:104FF00001214DF21450FDF74CF882214DF215506D
:10500000FDF747F801214DF21650FDF742F8CA218D
:105010004DF21750FDF73DF802214DF21850FDF703
:1050200038F800214DF21950FDF733F802214DF206
:105030001A50FDF72EF801214DF21B50FDF729F80B
:1050400002214DF21C50FDF724F834214DF21D5081
:10505000FDF71FF802214DF21E50FDF71AF86721E7
:105060004DF21F50FDF715F802214DF22050FDF7CB
:1050700010F884214DF22150FDF70BF802214DF27A
:105080002250FDF706F8A4214DF22350FDF701F858
:1050900002214DF22450FCF7FCFFB7214DF22550C0
:1050A000FCF7F7FF02214DF22650FCF7F2FFCF216B
:1050B0004DF22750FCF7EDFF02214DF22850FCF78E
:1050C000E8FFDE214DF22950FCF7E3FF02214DF20B
:1050D0002A50FCF7DEFFF2214DF22B50FCF7D9FFEE
:1050E00002214DF22C50FCF7D4FFFE214DF22D5041
:1050F000FCF7CFFF03214DF22E50FCF7CAFF102121
:105100004DF22F50FCF7C5FF03214DF23050FCF754
:10511000C0FF33214DF23150FCF7BBFF03214DF2AC
:105120003250FCF7B6FF6D214DF23350FCF7B1FF62
:1051300000214FF45640FCF7ACFF33214DF20160E3
:10514000FCF7A7FF00214DF20260FCF7A2FF34211B
:105150004DF20360FCF79DFF00214DF20460FCF767
:1051600098FF3A214DF20560FCF793FF00214DF2C4
:105170000660FCF78EFF4A214DF20760FCF789FFBD
:1051800000214DF20860FCF784FF5C214DF20960BC
:10519000FCF77FFF00214DF20A60FCF77AFF8121C6
:1051A0004DF20B60FCF775FF00214DF20C60FCF72F
:1051B00070FFA6214DF20D60FCF76BFF00214DF250
:1051C0000E60FCF766FFE5214DF20F60FCF761FF12
:1051D00001214DF21060FCF75CFF13214DF21160CC
:1051E000FCF757FF01214DF21260FCF752FF5421EA
:1051F0004DF21360FCF74DFF01214DF21460FCF7F6
:1052000048FF82214DF21560FCF743FF01214DF26A
:105210001660FCF73EFFCA214DF21760FCF739FF1C
:1052200002214DF21860FCF734FF00214DF21960A5
:10523000FCF72FFF02214DF21A60FCF72AFF012133
:105240004DF21B60FCF725FF02214DF21C60FCF7BC
:1052500020FF34214DF21D60FCF71BFF02214DF2AF
:105260001E60FCF716FF67214DF21F60FCF711FF6F
:1052700002214DF22060FCF70CFF84214DF22160E9
:10528000FCF707FF02214DF22260FCF702FFA42188
:105290004DF22360FCF7FDFE02214DF22460FCF785
:1052A000F8FEB7214DF22560FCF7F3FE02214DF226
:1052B0002660FCF7EEFECF214DF22760FCF7E9FEF9
:1052C00002214DF22860FCF7E4FEDE214DF2296058
:1052D000FCF7DFFE02214DF22A60FCF7DAFEF22134
:1052E0004DF22B60FCF7D5FE02214DF22C60FCF74D
:1052F000D0FEFE214DF22D60FCF7CBFE03214DF2D6
:105300002E60FCF7C6FE10214DF22F60FCF7C1FEA7
:1053100003214DF23060FCF7BCFE33214DF23160C9
:10532000FCF7B7FE03214DF23260FCF7B2FE6D21AF
:105330004DF23360FCF7ADFE55214FF47040FCF7A1
:10534000A8FEAA214FF20100FCF7A3FE52214FF262
:105350000200FCF79EFE08214FF20300FCF799FEC5
:1053600000214FF20400FCF794FECC214FF43140B1
:10537000FCF78FFE00214BF20110FCF78AFE05219D
:105380004FF43640FCF785FE70214FF43740FCF7B0
:1053900080FE70214BF20170FCF77BFE01214FF47F
:1053A0003840FCF776FE03214BF60100FCF771FE56
:1053B00003214BF60200FCF76CFE03214BF60300C1
:1053C000FCF767FE02214FF43C40FCF762FE00212F
:1053D0004BF60140FCF75DFE00214BF60240FCF766
:1053E00058FED0214FF44940FCF753FE02214CF601
:1053F0000110FCF74EFE50214CF60210FCF749FE5E
:1054000050214CF60310FCF744FE50214CF60410DA
:10541000FCF73FFE00214FF45450FCF73AFE5521B3
:105420004FF46850FCF735FE4FF48850FCF747FE08
:105430007820FCF7DDFC4FF42450FCF740FE01F02F
:105440009DB8FE48808849F2253188427ED147F6D2
:10545000F001E520FCF71DFE4FF480710120FCF700
:1054600018FE4FF4E0610220FCF713FE41F2300118
:105470000320FCF70EFE00210420FCF70AFE40F298
:1054800002210820FCF705FE00210920FCF701FE9F
:1054900000210A20FCF7FDFD00210C20FCF7F9FD9E
:1054A00000210D20FCF7F5FD00210F20FCF7F1FD98
:1054B00000211020FCF7EDFD07211120FCF7E9FD8C
:1054C00000211220FCF7E5FD00211320FCF7E1FD8F
:1054D00000210720FCF7DDFD41F290611020FCF770
:1054E000D8FD40F227211120FCF7D3FD9D21122089
:1054F000FCF7CFFD4FF4C8511320FCF7CAFD25215E
:105500002920FCF7C6FD0D212B20FCF7C2FD072149
:105510003020FCF7BEFD40F203313120FCF7B9FD2D
:1055200003213220FCF7B5FD40F206213520FCF7BF
:10553000B0FD08213620FCF7ACFD40F206413720D3
:10554000FCF7A7FD4FF44171382000E057E0FCF76D
:10555000A0FD07213920FCF79CFD40F202613C20B0
:10556000FCF797FD08213D20FCF793FD002150201A
:10557000FCF78FFDEF215120FCF78BFD002152201D
:10558000FCF787FD40F23F115320FCF782FD4FF4FA
:1055900027416020FCF77DFD01216120FCF779FDAA
:1055A00000216A20FCF775FD00218020FCF771FDC9
:1055B00000218120FCF76DFD00218220FCF769FDB0
:1055C00000218320FCF765FD00218420FCF761FDAC
:1055D00000218520FCF75DFD10219020FCF759FD8E
:1055E0004FF4C0619220FCF754FD40F233110720C4
:1055F000FCF74FFD22210020FCF74BFD1FE78F48F1
:10560000808849F2283188427ED141F28F01EC2016
:10561000FCF73FFD41F23421EF20FCF73AFD4FF457
:1056200080710120FCF735FD4FF4E0610220FCF7AA
:1056300030FD41F230010320FCF72BFD0021042056
:10564000FCF727FD40F202210820FCF722FD002193
:105650000920FCF71EFD00210A20FCF71AFD01219C
:105660000C20FCF716FD00210D20FCF712FD002197
:105670000F20FCF70EFD00211020FCF70AFD07218A
:105680001120FCF706FD00211220FCF702FD00218D
:105690001320FCF7FEFC01210720FCF7FAFC322066
:1056A000FCF7EEFB41F290411020FCF7F2FC40F2D7
:1056B00027211120FCF7EDFC3220FCF7E1FB8A21C9
:1056C0001220FCF7E6FC3220FCF7DAFB4FF4D05155
:1056D0001320FCF7DEFC06212920FCF7DAFC0D2163
:1056E0002B20FCF7D6FC3220FCF7CAFB002120203F
:1056F000FCF7CFFC00212120FCF7CBFC3220FCF78B
:10570000BFFB0021302000E074E0FCF7C2FC40F257
:1057100004613120FCF7BDFC40F205313220FCF77A
:10572000B8FC00213520FCF7B4FC40F609413620D6
:10573000FCF7AFFC4FF401713720FCF7AAFC40F2F4
:1057400001313820FCF7A5FC40F207713920FCF745
:10575000A0FC00213C20FCF79CFC40F60A213D20E7
:10576000FCF797FC3220FCF78BFB00215020FCF764
:1057700090FCEF215120FCF78CFC00215220FCF71B
:1057800088FC40F23F115320FCF783FC4FF4274183
:105790006020FCF77EFC01216120FCF77AFC0021EF
:1057A0006A20FCF776FC00218020FCF772FC0021C7
:1057B0008120FCF76EFC00218220FCF76AFC0021AE
:1057C0008320FCF766FC00218420FCF762FC0021AA
:1057D0008520FCF75EFC10219020FCF75AFC4FF46A
:1057E000C0619220FCF755FC40F233110720FCF712
:1057F00050FC24E61148808849F2203188427DD14E
:1058000000210846FCF745FC4FF480710120FCF7AD
:1058100040FC4FF4E0610220FCF73BFC41F2300118
:105820000320FCF736FC00210420FCF732FC40F298
:1058300002210820FCF72DFC002101E09801002046
:105840000920FCF726FC00210A20FCF722FC01219C
:105850000C20FCF71EFC00210D20FCF71AFC002197
:105860000F20FCF716FC3220FCF70AFB40F2011176
:105870000720FCF70EFC3220FCF702FB4FF48651A8
:105880001020FCF706FC07211120FCF702FC4FF466
:1058900088711220FCF7FDFB4FF430611320FCF7F8
:1058A000F8FB00212920FCF7F4FB44F210012B2027
:1058B000FCF7EFFB00215020FCF7EBFBEF21512020
:1058C000FCF7E7FB00215220FCF7E3FB40F23F111D
:1058D0005320FCF7DEFB4FF41C516020FCF7D9FB92
:1058E00001216120FCF7D5FB00216A20FCF7D1FBE8
:1058F00000218020FCF7CDFB002100E031E0812079
:10590000FCF7C7FB00218220FCF7C3FB00218320AA
:10591000FCF7BFFB00218420FCF7BBFB00218520A6
:10592000FCF7B7FB10219020FCF7B3FB002192207D
:10593000FCF7AFFB01219320FCF7ABFB4FF4887120
:105940009520FCF7A6FB00219720FCF7A2FB002185
:105950009820FCF79EFB40F273110720FCF799FB9F
:105960006DE5FE48808849F2313188427DD141F2AF
:105970001401E720FCF78DFB4FF480710120FCF748
:1059800088FB4FF400710220FCF783FB41F23801E1
:105990000320FCF77EFB40F202210820FCF779FB94
:1059A00000210920FCF775FB00210A20FCF771FBA0
:1059B00000210C20FCF76DFB00210D20FCF769FB9A
:1059C00000210F20FCF765FB00211020FCF761FB94
:1059D00007211120FCF75DFB00211220FCF759FB89
:1059E00000211320FCF755FBC820FCF749FA41F2CF
:1059F00090611020FCF74DFB40F227211120FCF7AD
:105A000048FB3220FCF73CFA0C211220FCF741FB4A
:105A10003220FCF735FA4FF400611320FCF739FB14
:105A200011212920FCF735FB0B212B20FCF731FB42
:105A30003220FCF725FA00212020FCF72AFB40F257
:105A40003F112120FCF725FB00213020FCF721FB32
:105A50004FF483713120FCF71CFB00213220FCF74E
:105A600018FB4FF40171352000E064E0FCF711FBF6
:105A700041F20A613620FCF70CFB40F20771372037
:105A8000FCF707FB4FF483713820FCF702FB40F270
:105A900007713920FCF7FDFA40F202413C20FCF787
:105AA000F8FA40F60F413D20FCF7F3FA00215020B0
:105AB000FCF7EFFAEF215120FCF7EBFA002152201E
:105AC000FCF7E7FA40F23F115320FCF7E2FA4FF4FB
:105AD0001C516020FCF7DDFA01216120FCF7D9FAA6
