:020000040800F2
:100000002008002031020008911B0008931B000803
:10001000971B00089B1B00089F1B000800000000A6
:10002000000000000000000000000000A31B00080A
:10003000A51B000800000000A71B0008A91B000862
:100040004B0200084B0200084B0200084B0200085C
:100050004B0200084B0200084B0200084B0200084C
:100060004B0200084B0200084B0200084B0200083C
:100070004B0200084B0200084B0200084B0200082C
:100080004B0200084B0200084B0200084B0200081C
:100090004B0200084B0200084B0200084B0200080C
:1000A0004B0200084B0200084B0200084B020008FC
:1000B0004B0200084B0200084B0200084B020008EC
:1000C0004B0200084B0200084B0200084B020008DC
:1000D0004B020008891F00084B0200084B02000871
:1000E0004B0200084B0200084B0200084B020008BC
:1000F0004B0200084B0200084B0200084B020008AC
:100100004B0200084B0200084B0200084B0200089B
:100110004B0200084B0200084B0200084B0200088B
:100120004B020008E17200084B0200084B02000875
:100130004B0200084B0200084B0200084B0200086B
:100140004B0200084B0200084B0200084B0200085B
:100150004B0200084B0200084B0200084B0200084B
:100160004B0200084B0200084B0200084B0200083B
:100170004B0200084B020008417200084B020008C5
:100180004B0200084B02000800F002F800F041F8B2
:100190000AA090E8000C82448344AAF10107DA45E2
:1001A00001D100F036F8AFF2090EBAE80F0013F0F3
:1001B000010F18BFFB1A43F001031847308C0000F1
:1001C000508C0000103A24BF78C878C1FAD8520782
:1001D00024BF30C830C144BF04680C6070470000C1
:1001E0000023002400250026103A28BF78C1FBD840
:1001F000520728BF30C148BF0B607047782907F00D
:100200000581002070471FB507F0E8F91FBD10B544
:1002100010BD07F0B3F91146FFF7F5FF07F073F8CB
:1002200007F0D1F903B4FFF7F2FF03BC01F048FE79
:100230000948804709480047FEE7FEE7FEE7FEE77A
:10024000FEE7FEE7FEE7FEE7FEE7FEE704480549B6
:10025000054A064B70470000891C00088901000808
:10026000200200202008002020040020200400207C
:1002700032490143324A1160704770B500210023B2
:100280000F22C4781CB32E4C246804F4E064C4F537
:10029000E064C4F30721C1F10404E3B20A414478E5
:1002A0009C40E1B28478144021430C07210E254C78
:1002B00005786155047804F01F050124AC400578E9
:1002C0006D11AD0005F1E025C5F8004109E00478A5
:1002D00004F01F050124AC401B4D0678761145F84B
:1002E000264070BD194A0A400243154B1B1F1A6075
:1002F000704739B1124A121D12680243104B1B1D80
:100300001A6006E00E4A121D126882430C4B1B1D38
:100310001A607047042808D14FF0E021096941F0C4
:1003200004014FF0E022116107E04FF0E02109697C
:1003300021F004014FF0E022116170470000FA053E
:100340000CED00E000E400E080E100E080FFFF1F32
:10035000002061490860C8601F2048610020886152
:10036000C86108624862704700215B4A126844F223
:1003700001039A43584B1A601A46116840F6F2720C
:100380009143028843881A4383881A43C3881A43D7
:1003900003891A4343891A4383891A4311434E4AF6
:1003A000116070470021018041808180C1800181FE
:1003B0004181818170474188028841EA0241464A71
:1003C0001162C188828841EA0241434A5162704702
:1003D00030B14149096841F004013F4A116005E02C
:1003E0003D49096821F004013B4A116070470178DA
:1003F000427841EA0221827841EA0241C27841EA28
:100400000261354A9161704730B13349096841F062
:100410000801314A116005E02F49096821F00801FF
:100420002D4A1160704730B12B49096841F4804171
:10043000294A116005E02849096821F48041264ACB
:100440001160704730B12449096841F00101224A26
:10045000116005E02049096821F001011E4A116080
:1004600070471D48806A704729B11B4AD268024311
:10047000194BDA6006E0184AD268C3439BB21A40AF
:10048000154BDA60704710B50146002000230A13AF
:1004900012B9114CA36806E0022A02D10E4C63681F
:1004A00001E00D4C236903EA01040CB1012000E0D6
:1004B000002010BD08494861704701460020002215
:1004C000054B1B6903EA01020AB1012000E000208C
:1004D000704701494861704700000550016821F0EC
:1004E000010101600021016041608160C160016122
:1004F00021214161DB49884204D13D21D94A103A8A
:1005000091608CE0D7491831884205D14FF474616D
:10051000D44A103A916082E0D2493031884205D104
:100520004FF47411CF4A103A916078E0CD494831C8
:10053000884205D14FF07461CA4A103A91606EE06A
:10054000C8496031884204D1C749C64A103AD160CF
:1005500065E0C4497831884204D1C449C14A103A9F
:10056000D1605CE0BF499031884204D1C049BD4AA6
:10057000103AD16053E0BB49A831884205D14FF011
:100580003D51B84A103AD16049E0BA49884204D195
:100590003D21B84A083A116041E0B6491831884215
:1005A00005D14FF47461B34A083A116037E0B1499C
:1005B0003031884205D14FF47411AE4A083A1160C7
:1005C0002DE0AC494831884205D14FF07461A94A09
:1005D000083A116023E0A7496031884204D1A2495A
:1005E000A44A121F11601AE0A2497831884204D14E
:1005F0009E49A04A121F116011E09E499031884225
:1006000004D19B499B4A121F116008E09949A83107
:10061000884204D14FF03D51964A121F1160704735
:1006200010B500220268944B1A40CC680B68234333
:100630004C6923438C692343CC6923430C6A2343CD
:100640004C6A23438C6A23434C6B23438C6B2343B8
:100650001A430260426922F00702D1E90B342343B6
:100660001A4342610B6943604B6883608B68C360C7
:1006700010BD0021016041608160C1600161416184
:100680008161C161016241628162C1620163416352
:100690008163704721B1026842F00102026003E009
:1006A000026822F001020260704721B1026842F440
:1006B0000042026003E0026822F4004202607047D8
:1006C00021B1026842F02002026003E0026822F0D9
:1006D000200202607047416070470146486880B25E
:1006E000704722B1036843F40023036003E003680A
:1006F00023F4002303600161704721B1026842F4D2
:100700008022026003E0026822F4802202607047C7
:100710000AB1016100E0C1607047014600200A682B
:1007200002F400220AB1012000E0002070470146D7
:1007300000200A6802F001020AB1012000E0002056
:100740007047014600204A6902F03800704730B512
:1007500003460A4600200024464DAB4202D24149DE
:10076000103901E04349103902F000550DB14C68D1
:1007700000E00C68414D2C4004EA02050DB1012057
:1007800000E0002030BD02463A4B9A4202D2354882
:10079000103801E03748103801F000531BB1374BD7
:1007A0000B40C36002E0354B0B408360704710B5CF
:1007B00001F080034BB122B1436943F080034361F0
:1007C00003E0436923F08003436180290BD02AB101
:1007D000036801F01E042343036004E0036801F092
:1007E0001E04A343036010BD70B502460020002420
:1007F0000025204EB24202D21A4B103B01E01D4BA5
:10080000103B1F4E0E4036B11E2606EAD124166854
:1008100006EA040502E0566906F0800501F000567C
:100820000EB15C6800E01C68144E344004EA010616
:1008300016B10DB1012000E0002070BD02460D4B45
:100840009A4202D20748103801E00A48103801F0F5
:1008500000531BB1094B0B40C36002E0074B0B4038
:1008600083607047106002403D000020400F002070
:1008700000003D20106402403F801CF07D0F7D0F82
:100880003C0F3C0F30B943F2DB028100A1F1C041C3
:100890000A6005E043F2D2028100A1F1C0410A6082
:1008A0006FF07042411C8900A1F1C0410A608100D3
:1008B000A1F1C041C1F804217047D0E901121143F0
:1008C000C2681143026911434269114382691143AD
:1008D000C2691143026A1143426A1143826A114399
:1008E000C26A1143026B114302689200A2F1C04236
:1008F0001160816808290BD101688900A1F1C0410C
:10090000096841F0400201688900A1F1C0410A6014
:10091000416B0968426B526841EA0211426B92686E
:1009200041EA0221426B928941EA0241426B128AFA
:1009300041EA0251426B127D41EA0261426B9269C7
:1009400011430268521C9200A2F1C0421160C16AB8
:10095000B1F5804F1BD1816B0968826B526841EA07
:100960000211826B926841EA0221826B128A41EA8B
:100970000251826B127D41EA0261826B92691143DE
:1009800002689200A2F1C042C2F8041107E06FF0C1
:10099000704201688900A1F1C041C1F8042170478B
:1009A000002101600221416000218160C16001617C
:1009B00041618161C16101624FF48051416249002E
:1009C00081620021C1620163F8494163816370471C
:1009D00051B18200A2F1C042126842F001038200CC
:1009E000A2F1C042136009E08200A2F1C042126885
:1009F000EF4B1A408300A3F1C0431A6070471028E0
:100A00000AD118214FF020421166402151664FF063
:100A1000FC319166D16610E01821E64A1160402150
:100A20004FF02042C2F884104FF0FC31E14A083206
:100A300011604FF02042C2F88C10704730B5002191
:100A400000220023446844F0080485682C43C568EC
:100A50002C4305692C43456944EA4524856944EAE9
:100A60004531C4692468C5696D6844EA0524C569CF
:100A70002D8944EA0544C5692D7B44EA0562046A70
:100A80002468056A6D6844EA0524056A2D8944EAEC
:100A90000544056A2D7B44EA05630468102C05D1E2
:100AA0004FF020442166A266E36608E0C14C216055
:100AB0004FF02044C4F88820BE4C0C34236030BD75
:100AC00010210160002141608160C16001614161CC
:100AD0008161FC21C2691160C2695160C269916083
:100AE000C269D160026A1160026A5160026A916053
:100AF000026AD160704799B1102808D14FF02042A6
:100B0000126E42F004024FF020431A661DE0A94A1B
:100B1000126842F004024FF02043C3F8802014E032
:100B2000102809D14FF02042126EA14BDB1E1A4053
:100B30004FF020431A6608E09E4A12689C4BDB1E69
:100B40001A404FF02043C3F88020704799B1102815
:100B500008D14FF02042126E42F040024FF0204385
:100B60001A661DE0934A126842F040024FF020439B
:100B7000C3F8802014E0102809D14FF02042126EF3
:100B80008B4B3F3B1A404FF020431A6608E0894ADE
:100B90001268874B3F3B1A404FF02043C3F8802038
:100BA000704701460020102903D14FF02042506FBA
:100BB00002E0804A14321068704718207D492031C5
:100BC000086000200906C1F8A4004FF0FC30794904
:100BD00028310860091D0860091D08607047016818
:100BE00041F01001426841EA4221826841EA423103
:100BF000704A20321160C1680968C268526841EACF
:100C00000221C268128941EA0241C268127B41EAAC
:100C10000261684A283211600169096802695268F4
:100C200041EA02210269128941EA02410269127B0A
:100C300041EA02615F4A2C321160416909684269E8
:100C4000526841EA02214269128941EA024142693D
:100C5000127B41EA02614FF02042C2F8B0107047A7
:100C60000021016041608160FC21C2681160C2689E
:100C70005160C2689160C268D16002691160026906
:100C80005160026991600269D160426911604269F4
:100C90005160426991604269D160704748B14549ED
:100CA0002031096841F004014FF02042C2F8A01041
:100CB00009E04049203109683D4AD21E11404FF0F9
:100CC0002042C2F8A010704710B5F2B1102807D129
:100CD0004FF020435B6E0B434FF02044636632E0DD
:100CE000B0F5807F08D1334B1B1D1B680B434FF0C1
:100CF0002044C4F8843026E02E4B24331B680B4379
:100D00004FF02044C4F8A4301DE0102807D14FF064
:100D100020435B6E8B434FF02044636613E0B0F5D5
:100D2000807F08D1234B1B1D1B688B434FF0204451
:100D3000C4F8843007E01F4B24331B688B434FF00B
:100D40002044C4F8A43010BD10B502460020002392
:100D5000102A03D14FF02044636E09E0B2F5807F82
:100D600003D1144C241D236802E0124C2434236860
:100D700003EA01040CB1012000E0002010BD10289E
:100D800007D14FF02042526E8A434FF020435A66FB
:100D900019E0B0F5807F0FD1064A121D12688A4310
:100DA0004FF02043C3F884200DE00000E8750008F0
:100DB000FEFF0F00800000A0234A12688A434FF014
:100DC0002043C3F8A420704770B5024600200023DA
:100DD00000240025102A03D14FF02046736E08E04E
:100DE000B2F5807F03D1184E203E336801E0164EE5
:100DF000336803EA010403EAD10514B10DB10120FF
:100E000000E0002070BD102808D14FF02042526E43
:100E100022EAD1024FF020435A6614E0B0F5807FF9
:100E200009D1094A203A126822EAD1024FF0204340
:100E3000C3F8842007E0044A126822EAD1024FF086
:100E40002043C3F8A4207047A40000A010B50446B6
:100E50009848844208D10121084600F086FB002111
:100E6000012000F082FB76E09348844208D1012102
:100E7000022000F07AFB0021022000F076FB6AE0FD
:100E80008E48844208D10121042000F06EFB00212D
:100E9000042000F06AFB5EE08948844208D1012109
:100EA000082000F062FB0021082000F05EFB52E009
:100EB0008448844208D10121102000F056FB002113
:100EC000102000F052FB46E07F48844208D1012107
:100ED000202000F04AFB0021202000F046FB3AE0F1
:100EE0007A48844208D10121402000F03EFB0021D5
:100EF000402000F03AFB2EE07548844208D10121E1
:100F0000802000F032FB0021802000F02EFB22E048
:100F10007048844208D10121801500F026FB002191
:100F2000A01500F022FB16E06B48844208D1012195
:100F3000401500F01AFB0021601500F016FB0AE0D6
:100F40006648844207D10121001500F00EFB002104
:100F5000201500F00AFB10BDF0B50A460021002361
:100F6000002400BF3DE0012505FA01F3156805EAFC
:100F700003049C4234D105684F000326BE40B543AC
:100F8000056015794E00B540066835430560157952
:100F9000012D02D01579022D16D185684F00032648
:100FA000BE40B543856055794E00B54086683543EF
:100FB0008560456801268E40B54345604568967951
:100FC0008E40B6B235434560C5684F000326BE402B
:100FD000B543C560D5794E00B540C6683543C56098
:100FE000491C1029BFD3F0BD4FF6FF7101600021ED
:100FF000017141718171C171704708B54FF4803240
:101000000092009A0A430092009AC261C161009A5C
:10101000C261C2690092C269009208BD0246002006
:1010200013690B400BB1012000E00020704701461E
:10103000086980B270470246002053690B400BB12B
:10104000012000E0002070470146486980B27047E7
:1010500001837047418370470AB1018300E04183F7
:1010600070474161704742694A4042617047F0B53C
:10107000002300244D07ED0E02FA05F3CE1000F117
:10108000200555F826504E07F70E0F26BE40B543F3
:10109000CF1000F1200646F82750CE1000F12005B1
:1010A00055F8265045EA0304CE1000F1200545F816
:1010B0002640F0BD0000024000040240000802404B
:1010C000000C0240001002400014024000180240D0
:1010D000001C024000200240002402400028024080
:1010E000F948006840F00100F74908600020F6491F
:1010F00008310860F4480068F4490840F249086083
:10110000F348091D0860F348EF4984310860F0484E
:101110001038091D0860EC48006820F48020EA4976
:1011200008600020E8490C310860E7498C3108600C
:1011300070470021E44A921C1170114608707047F4
:1011400010B501460022002300204A11012A02D1D5
:10115000DD4C236808E0022A03D1DB4C703423689D
:1011600002E0D94C7434236801F01F02012494403A
:101170001C400CB1012000E0002010BD38B500205B
:1011800000900024002500BF3120FFF7D9FF05465D
:101190000098401C00900098B0F5A04F01D0002DA1
:1011A000F2D03120FFF7CCFF08B1012400E0002489
:1011B000204638BD01460020C34A106820F0F800E0
:1011C00040EAC10010607047C349086070470021C1
:1011D000BD4A703211701170012802D004280AD162
:1011E00004E00121B84A7032117005E00521B64AC9
:1011F0007032117000E000BF00BF7047B74908604F
:10120000704770B5049C41EA82150126C6EB53066F
:1012100045EA0645054345EA0465AB4E361D356093
:1012200070BDAD4908667047820142EA0172A64B63
:1012300084331A607047A8498866704710B58301E7
:1012400043EA016343EA02739F4C8834236010BD74
:10125000A14908677047A049C8647047024600204A
:10126000994B0833186820F0EC6042EA01031843F8
:10127000954B08331860704702460020924B0833A4
:10128000186820F0784042EA010318438E4B083377
:1012900018607047014600208B4A0832106820F021
:1012A000030008431060704787480830006800F06A
:1012B0000C00704701460020834A0832106820F075
:1012C000F000084310607047014600207E4A083253
:1012D000106820F4E0500843106070470146002079
:1012E000794A0832106820F4604040EAC10010607A
:1012F0007047F0B5002100220024022500260223B9
:10130000714F08373F6807F00C0121B1042905D05F
:10131000082937D105E0724F076036E0714F07604A
:1013200033E0694F3F1D3F68C7F38056664F3F1D4E
:101330003F6807F03F036EB16A4FB7FBF3F7DFF882
:1013400088C10CF1040CDCF800C0CCF3881C07FB4E
:101350000CF40CE0624FB7FBF3F7DFF86CC10CF153
:10136000040CDCF800C0CCF3881C07FB0CF4564FCF
:101370003F1D3F68C7F301477F1C7D00B4FBF5F7B5
:10138000076002E0564F076000BF00BF4E4F0837AE
:101390003F6807F0F0010909534F7A5C0768D740AE
:1013A0004760494F08373F6807F4E051890A4E4FBC
:1013B0007A5C4768D7408760434F08373F6807F437
:1013C0006041490B484F7A5C4768D740C760F0BD21
:1013D000002100F44072B2F5407F0AD13A4A083247
:1013E000116821F4F811414A02401143364A08328B
:1013F0001160354A70321268C0F30B031A43324B46
:1014000070331A6070473549443908607047334972
:10141000403908607047364908607047014600202F
:10142000294A8C32106820F01F004A1E1043264AB9
:101430008C321060704701460020234A8C321068BD
:1014400020F4F8504A1E40EA02201F4A8C321060F5
:101450007047014600201C4A8C32106820F440106E
:1014600008431060704701460020174A8C3210680C
:1014700020F4400008431060704701460020124AE3
:101480008C32106820F440300843106070471949CE
:101490000860704739B10C4A3032126802430A4B77
:1014A00030331A6006E0084A303212688243064B35
:1014B00030331A607047F9B1034A3432126802437C
:1014C000014B34331A601CE000380240FFFFF6EA9B
:1014D000103000240030002000004742800E4742B8
:1014E0000024F40000127A0000000020FFFCFF0F2F
:1014F0005C014742E01147428F4A126882438E4B9B
:101500001A60704739B18C4A121D126802438A4B27
:101510001B1D1A6006E0884A121D12688243864B22
:101520001B1D1A60704739B1834A0C32126802439E
:10153000814B0C331A6006E07F4A0C3212688243FA
:101540007D4B0C331A60704739B17B4A10321268F8
:101550000243794B10331A6006E0774A1032126862
:101560008243754B10331A60704739B1724A243A7E
:1015700012680243704B243B1A6006E06E4A243A1C
:10158000126882436C4B243B1A60704739B16A4A37
:10159000203A12680243684B203B1A6006E0664A14
:1015A000203A12688243644B203B1A60704739B17D
:1015B000614A1C3A126802435F4B1C3B1A6006E00A
:1015C0005D4A1C3A126882435B4B1C3B1A607047B1
:1015D00039B1594A143A12680243574B143B1A6006
:1015E00006E0554A143A12688243534B143B1A6082
:1015F000704739B1504A103A126802434E4B103BC3
:101600001A6006E04C4A103A126882434A4B103B7B
:101610001A60704739B1484A1C3212680243464B7F
:101620001C331A6006E0444A1C3212688243424B63
:101630001C331A60704739B13F4A203212680243A6
:101640003D4B20331A6006E03B4A20321268824349
:10165000394B20331A60704739B1374A2432126847
:101660000243354B24331A6006E0334A24321268B1
:101670008243314B24331A60704739B12E4A2C32E1
:10168000126802432C4B2C331A6006E02A4A2C3293
:1016900012688243284B2C331A60704739B1264AAE
:1016A000303212680243244B30331A6006E0224A7B
:1016B000303212688243204B30331A607047012861
:1016C00008D11D493C31096841F008011A4A3C32F1
:1016D000116007E018493C31096821F00801164AF9
:1016E0003C321160704739B1134A273A12780243ED
:1016F000114B273B1A7006E00F4A273A12788243B3
:101700000D4B273B1A7070470B484030006840F083
:101710008070094940310860704701460020064A40
:10172000283A12680A400AB1012000E00020704700
:1017300001492639087070473438024010B5044614
:10174000FA48844208D101211020FFF752FF0021FE
:101750001020FFF74EFF57E0F548844209D10121E0
:101760004804FFF735FF00214FF40030FFF730FF4A
:101770004AE0F048844209D101218804FFF728FF9C
:1017800000214FF48020FFF723FF3DE0EA48844228
:1017900009D10121C804FFF71BFF00214FF40020ED
:1017A000FFF716FF30E0E548844209D10121080522
:1017B000FFF70EFF00214FF48010FFF709FF23E031
:1017C000DF48844208D101212020FFF712FF0021C9
:1017D0002020FFF70EFF17E0DA48844209D10121EB
:1017E0008807FFF7F5FE00214FF08040FFF7F0FE7D
:1017F0000AE0D548844207D101214005FFF7E8FE01
:1018000000216005FFF7E4FE10BD2DE9FF47054606
:101810000E460024A14600BFA046B08900B100BF1B
:101820002C8A24F44054F08804432C82AC8941F281
:101830000C608443B08831890843718908430443AC
:10184000AC81AC8A24F44074B0890443AC8268460D
:10185000FFF74FFDB548854202D0B948854202D115
:10186000DDF80C9001E0DDF80890A88900F4004054
:1018700040B109EBC90000EB091031684900B0FB29
:10188000F1F707E009EBC90000EB091031688900A6
:10189000B0FBF1F76420B7FBF0F0040120096421EC
:1018A00001FB1078A88900F4004040B1322000EB21
:1018B000C800B0FBF1F000F00700044308E032205C
:1018C00000EB08106421B0FBF1F000F00F000443BE
:1018D0002C81BDE8FF874FF4165101600021818003
:1018E000C18001810C21418100218181704710B5A7
:1018F00002460020108A20F470600B884C88234335
:101900008C882343CC8823431843108210BD0021C8
:10191000018041808180C180704721B1828942F479
:101920000052828104E082894DF6FF731A40828161
:101930007047028B02F47F420283028B0A430283C8
:10194000704721B1828942F40042828103E082899A
:10195000C2F30E028281704721B1828A42F4006292
:10196000828204E0828A4FF2FF731A4082827047BB
:10197000C1F308028280704701468888C0F30800DE
:101980007047028A4FF6F0731A400282028A0A43B5
:101990000282704721B1828942F00202828104E012
:1019A00082894FF6FD731A408281704782894FF217
:1019B000FF731A40828182890A4382817047028ABA
:1019C0004FF6DF731A400282028A0A43028270478E
:1019D00021B1028A42F48042028204E0028A4BF67C
:1019E000FF731A4002827047818941F001018181B1
:1019F000704721B1828A42F00802828204E0828A22
:101A00004FF6F7731A4082827047028BD2B202837C
:101A1000028B42EA01220283704721B1828A42F09E
:101A20002002828204E0828A4FF6DF731A408282AB
:101A3000704721B1828A42F01002828204E0828AD9
:101A40004FF6EF731A4082827047828A4FF6FB731B
:101A50001A408282828A0A438282704721B1828A36
:101A600042F00202828204E0828A4FF6FD731A403D
:101A7000828270471AB1838A0B43838202E0838A91
:101A80008B4383827047F0B503460024002600256F
:101A9000002040F66A17B94200D100BF1846C1F3D2
:101AA000421401F01F06012707FA06F5012C01D1A7
:101AB0000C3004E0022C01D1103000E014301AB1D7
:101AC00007682F43076002E00768AF430760F0BD77
:101AD00002460020B1F5007F00D100BF13880B4003
:101AE0000BB1012000E00020704701F40072B2F554
:101AF000007F00D100BFCA430280704770B5024624
:101B0000002400230025002040F66A16B14200D1CF
:101B100000BFC1F3421501F01F03012606FA03F3CB
:101B2000012D13D19689334017E0000000100140C9
:101B30000044004000480040004C0040005000407D
:101B40000014014000780040007C0040022D02D1CA
:101B5000168A334001E0968A33400C12012606FAB9
:101B600004F41688344013B10CB1012000E00020C9
:101B700070BD10B50022002340F66A14A14200D1C6
:101B800000BF0A1201249440A3B2DC43048010BDBC
:101B9000704700BFFEE700BFFEE700BFFEE700BFE3
:101BA000FEE7704770477047704700000CB5002093
:101BB000019000907648006840F4803074490860D5
:101BC00000BF7348006800F4003000900198401C8A
:101BD0000190009818B90198B0F5A04FF1D16C4868
:101BE000006800F4003010B10120009001E00020F6
:101BF00000900098012846D165484030006840F0C8
:101C000080506349403108606248006840F44040B9
:101C1000604908605E48083000685D490831086026
:101C20000846006840F4004008600846006840F438
:101C3000A05008605848091F0860081F006840F05D
:101C40008070091F086000BF5148006800F00070F4
:101C50000028F9D040F20570504908604C4808301F
:101C6000006820F003004A4908310860084600680F
:101C700040F00200086000BF45480830006800F0EE
:101C80000C000828F8D10CBD10B54548006840F498
:101C90007000434908603E48006840F001003C493C
:101CA000086000203A4908310860394800683D4919
:101CB0000840374908603C48091D0860081F006853
:101CC00020F48020091F0860002031490C31086091
:101CD000FFF76CFF4FF0006031498039086010BD9C
:101CE00070B500200022022300240221284D08356F
:101CF0002D6805F00C0020B1042806D0082834D146
:101D000007E02A4D2A4E356033E02A4D284E3560D3
:101D10002FE01F4D2D1D2D68C5F380541C4D2D1D2A
:101D20002D6805F03F0154B1224DB5FBF1F5184E79
:101D3000361D3668C6F3881605FB06F209E01B4D12
:101D4000B5FBF1F5124E361D3668C6F3881605FB55
:101D500006F20F4D2D1D2D68C5F301456D1C6B005E
:101D6000B2FBF3F5124E356003E0104D104E3560B6
:101D700000BF00BF064D08352D68C5F303150E4E94
:101D8000705D0B4D2D68C540094E356070BD00007B
:101D9000003802400070004008544007003C0240F8
:101DA00088ED00E0FFFFF6FE103000240024F40070
:101DB0001000002000127A001400002010B5044624
:101DC0006FF00400FEF7A6FAE11704EB5171C1F3BE
:101DD000C701394A11701046007800EB4001C1EB91
:101DE000C0104FF6FF7101EAC0003449088010BDF1
:101DF0000146314A12784A434FF0E0235A610022EB
:101E00009A611A46126942F001021A6100BF4FF04E
:101E1000E022106900F001021AB100F48032002AB9
:101E2000F5D04FF0E022126922F001024FF0E023DA
:101E30001A6100229A6170470146204A12884A437B
:101E40004FF0E0235A6100229A611A46126942F06B
:101E500001021A6100BF4FF0E022106900F0010298
:101E60001AB100F48032002AF5D04FF0E022126956
:101E700022F001024FF0E0231A6100229A617047BC
:101E800070B504464FF4077094FBF0F0C6B24FF4FF
:101E9000077094FBF0F100FB114085B205E04FF4B0
:101EA0000770FFF7C9FF701EC6B2002EF7D115B13B
:101EB0002846FFF7C1FF70BD240000202600002047
:101EC000014600BF704700BF4E4A128802F0400230
:101ED000002AF9D0C2B24B4B9A80704710B588B037
:101EE000044601210846FFF7D5FA01211020FFF72B
:101EF0002BFB072209214448FFF7B9F807220A21E2
:101F00004148FFF7B4F84FF4C060069002208DF806
:101F10001C008DF81D0000208DF81E0001208DF89A
:101F20001F0006A93848FFF717F802940020ADF803
:101F30000C00ADF80E00ADF81000ADF814000C2048
:101F4000ADF8120002A92F48FFF75FFC01212D48D0
:101F5000FFF7E3FC40212B48FFF7C7FD012240F2C9
:101F600025512848FFF78FFD25208DF80400032018
:101F70008DF805008DF8060001208DF8070001A8F6
:101F8000FEF77BF908B010BD10B540F225511D4891
:101F9000FFF7B4FD10B31B48FFF7EEFCC4B21B48BB
:101FA000008800F40040C8B91848008800F4804058
:101FB00060B10A2C03D000201449088020E01348A7
:101FC000008840F400401149088019E00D2C06D12A
:101FD0000E48008840F480400C49088010E00B480F
:101FE0000088C0F30D000A490C5408480088401CC2
:101FF0000649088008460088C72801DD00200880BF
:1020000010BD000000100140000002402C00002024
:10201000E40000201CB501212020FFF73BFA4FF41B
:10202000C060009001208DF8040000208DF80600AB
:1020300003208DF8050001208DF80700694604484B
:10204000FEF78AFF4FF4C0610148FFF701F81CBD9D
:10205000001402401CB501211020FFF71BFA1820C4
:10206000009000208DF804008DF8060003208DF804
:10207000050001208DF8070069460248FEF76CFF55
:102080001CBD00000010024003B5BDF80000FD4972
:102090000880BDF804004FF0D841A1F880000CBDC5
:1020A00001B5BDF800000090BDF80000F549891C9D
:1020B000088008BD01B5BDF800000090BDF8000023
:1020C000F049088008BD2DE9F04305460024A146EB
:1020D000ED48807901281ED1EB48808846F604013E
:1020E000884218D0082D15D2DFE805F00406080A4A
:1020F0000C0E101206250DE007250BE0042509E063
:10210000052507E0012505E0002503E0032501E0A2
:10211000022500BF00BFDC48808849F24131884277
:1021200011D0D948808846F6040188420BD0D648A1
:10213000808845F21031884205D0D348808845F226
:102140001051884278D1082D1CD2DFE805F0040632
:10215000090C0F12151800BF14E044F0800411E0C0
:1021600044F040040EE044F0C0040BE044F02004CE
:1021700008E044F0600405E044F0A00402E044F00C
:10218000E00400BF00BFC048808845F2105188427B
:1021900002D14FF4585901E04FF03609BA4880880F
:1021A00045F21031884207D0B748808845F2105177
:1021B000884201D044F00804B348808846F6040100
:1021C000884201D144F0020421464846FFF75CFFF3
:1021D00004F0200018B9AC48807901280FD1AA4832
:1021E0000088A9494988884218DAA748B0F80080D1
:1021F0004088A54908800846A0F802800EE0A24861
:102200000088A1494988884208DD9F48B0F80080CD
:1022100040889D4908800846A0F802809A48807945
:1022200001280AD19848808846F60401884204D0E3
:1022300095484688078803E07AE0934806884788EF
:102240009148808845F2105188424AD18E49488988
:10225000FFF730FF0020FFF723FF8B494989491C16
:1022600088B2FFF727FF0020FFF71AFF8649498948
:10227000891C88B2FFF71EFF711EC1F30F20FFF704
:102280000FFF81494989C91C88B2FFF713FF711EEE
:10229000C8B2FFF705FF7C498889FFF70BFF0020D4
:1022A000FFF7FEFE78498989491C88B2FFF702FFD3
:1022B0000020FFF7F5FE74498989891C88B2FFF771
:1022C000F9FE791EC1F30F20FFF7EAFE6E498989F6
:1022D000C91C88B2FFF7EEFE791EC8B2FFF7E0FE18
:1022E0005AE069494889FFF7E5FE0020FFF7D8FE6C
:1022F0000020FFF7D5FE711EC1F30F20FFF7D0FEBF
:10230000711EC8B2FFF7CCFE5F498889FFF7D2FE85
:102310000020FFF7C5FE0020FFF7C2FE791EC1F3C3
:102320000F20FFF7BDFE791EC8B2FFF7B9FE33E0FC
:10233000082D1CD2DFE805F004070A0D0F1215184E
:1023400044F0300413E044F0100410E044F02004A2
:102350000DE000BF0BE044F0380408E044F028042E
:1023600005E044F0180402E044F0080400BF00BF98
:102370004548808848F68911884205D14FF01109F7
:1023800046F24000044303E04FF0030944F4805454
:1023900021464846FFF778FEBDE8F0833A480089B9
:1023A00038490880704730B504460D463648808865
:1023B00049F24131884205D03348808845F21031D6
:1023C000884214D130494889FFF774FE2012FFF784
:1023D00067FEE0B2FFF764FE2B498889FFF76AFECB
:1023E0002812FFF75DFEE8B2FFF75AFE61E02648CB
:1023F000808846F6040188421DD12348807901284F
:1024000004D121480088401E001B84B21E4948891F
:10241000FFF750FE2012FFF743FEE0B2FFF740FE49
:1024200019498889FFF746FE2812FFF739FEE8B2FE
:10243000FFF736FE3DE01448808845F2105188428F
:1024400024D111494889FFF735FE2012FFF728FEF5
:102450000D494989491C88B2FFF72CFEE0B2FFF70D
:102460001FFE09498889FFF725FE2812FFF718FE8D
:1024700005498989491C88B2FFF71CFEE8B2FFF7BD
:102480000FFE16E07E00006CAC010020FA48807957
:10249000012804D1F8480088401E001B84B2F64988
:1024A00048892146FFF7F0FDF34988892946FFF75F
:1024B000EBFD30BDF0B507460320FFF704FE002416
:1024C00031E000262BE004EB4400304481B20020D0
:1024D000FFF769FFFFF762FF00251CE004EB8400B3
:1024E00007EB401030F8150050B94FF6FF70E34984
:1024F00008804FF0D841A1F88000E049088008E04A
:102500000020DE4908804FF0D841A1F88000DB4967
:102510000880681C85B2502DE0DB701C86B2032E4B
:10252000D1DB601C84B2502CCBDB0520FFF7CBFD48
:10253000F0BD70B504460D461646CF48808849F276
:102540004131884205D0CC48808845F2103188421C
:1025500014D1C9494889FFF7ADFD2012FFF7A0FD4E
:10256000E0B2FFF79DFDC4498889FFF7A3FD28125B
:10257000FFF796FDE8B2FFF793FD5DE0BE48808867
:1025800045F21051884220D1BB494889FFF792FD9E
:102590002012FFF785FDB8494989491C88B2FFF729
:1025A00089FDE0B2FFF77CFDB3498889FFF782FD22
:1025B0002812FFF775FDB0498989491C88B2FFF7D9
:1025C00079FDE8B2FFF76CFD36E0AB48808846F64F
:1025D000040188421DD1A8488079012804D1A64869
:1025E0000088401E001B84B2A3494889FFF762FDA2
:1025F0002012FFF755FDE0B2FFF752FD9E49888992
:10260000FFF758FD2812FFF74BFDE8B2FFF748FD32
:1026100012E099488079012804D197480088401E2B
:10262000001B84B2944948892146FFF72DFD924949
:1026300088892946FFF728FD8F4800898F49891E20
:1026400008804FF0D840A0F8806070BD2DE9F84FA9
:1026500080460E4617461C46B3462046E31704EB59
:102660005373DB1021464FEAE47C04EB5C7C4FEAB9
:10267000EC0CA4EBCC0CBCF1000F02D04FF0010C21
:1026800001E04FF0000C6344224604EBD27C4FEA99
:102690006C0C03FB0CF3DBB20093A7F12000C7B274
:1026A000002556E00C2C07D107EB4700744901EBDD
:1026B000800010F8059013E0102C05D1714800EB54
:1026C000071010F805900BE0182C07D107EBC70096
:1026D0006D4901EB800010F8059001E0BDE8F88F2E
:1026E0004FF0000A2FE009F0800030B167480288FF
:1026F00031464046FFF71DFF07E00A9828B96448B5
:10270000028831464046FFF714FF4FEA49604FEA1E
:102710001069701C86B258484088B04200DCDDE782
:10272000A6EB0B00A0420AD15E4608F101001FFA99
:1027300080F851480088404500DCCFE706E00AF108
:10274000010000F0FF0ABAF1080FCCDB00BF681CE3
:10275000C5B200988542A5DB00BFBFE710B50246B1
:10276000012000E050430B00A1F10104E1B2F9D1D6
:1027700010BD2DE9FE4F82460F46904600251026DB
:1027800000200290C3460320FFF79DFC04E00A20CE
:10279000BBFBF0FB681CC5B2BBF1000FF7D13DB924
:1027A000002033463022514600903846FFF74EFF56
:1027B000002438E0281B401EC1B20A20FFF7CEFFDC
:1027C000B8FBF0F00A21B0FBF1F201FB120902980C
:1027D000B0B9681EA04213DDB9F1000F0ED1002080
:1027E00006EBD671491001FB0471CDE9000688B2F1
:1027F000334620225146FFF729FF12E001200290C4
:10280000002006EBD671491001FB0471CDE90006EA
:1028100088B209F13001CAB233465146FFF716FFBC
:1028200000BF601CC4B2AC42C4DB0520FFF74BFC08
:10283000BDE8FE8F08B5114800880090BDF8000083
:1028400008BD01B5BDF80000FFF734FC0520FFF717
:10285000CFFAFFF7EFFF08BD08490880704730B591
:10286000014601F01F04C1F34513CA0AE50205EB56
:1028700043151544A8B230BDAC0100208000006CA7
:1028800004760008787A0008688000082E0000208E
:102890003000002000BF0100A0F10102D0B2FAD147
:1028A00070473EB504460D4600200290019000900E
:1028B000FE480088A04203DDFC484088A84201DCB5
:1028C00000203EBD29462046FFF76DFDF748808871
:1028D00049F2413188420BD0F448808846F6040121
:1028E000884205D0F148808845F21031884203D1F2
:1028F0002E20FFF7DFFB0DE0EC48808845F21051F9
:10290000884204D14FF43850FFF7D4FB02E0222074
:10291000FFF7D0FBE548808849F22031884202D198
:102920000220FFF7B7FFFFF785FF0220FFF7B2FF96
:10293000FFF780FF0290DD48808849F241318842EC
:102940000BD0DA48808845F21031884205D0D7484C
:10295000808845F21051884210D10220FFF79AFF7B
:10296000FFF768FF0090BDF80800C0B20190BDF805
:1029700004004FF6FF7101EA00200190CB488088E7
:1029800049F22531884216D0C848808844F2355132
:10299000884210D0C5488088091F88420BD0C348A0
:1029A00080884BF20551884205D0C04880884CF29F
:1029B0000551884202D1BDF8080082E7BB488088F3
:1029C00049F2413188420BD0B848808845F2103135
:1029D000884205D0B548808845F2105188420DD113
:1029E000BDF80800C012C002BDF80410891240EA08
:1029F0004110BDF8001040EAE12062E7BDF8080090
:102A0000FFF72DFF5DE700B5A848808849F2413106
:102A100088420BD0A548808846F60401884205D03C
:102A2000A248808845F21031884203D12920FFF75F
:102A300041FB0FE09D48808845F21051884204D147
:102A40004FF42450FFF736FB04E040F273110720E7
:102A5000FFF71AFB00BD00B59448808849F2413168
:102A600088420BD09148808846F60401884205D000
:102A70008E48808845F21031884203D12820FFF724
:102A800019FB0EE08948808845F21051884204D134
:102A90004FF42050FFF70EFB03E000210720FFF763
:102AA000F3FA00BD30B504460D4629462046FFF72F
:102AB0007AFCFFF773FC7E4800887E49088030BDB1
:102AC00010B50446002C52D178498871F020088056
:102AD0004FF4A07048800846808849F2413188420E
:102AE0000BD07248808846F60401884205D06F48B2
:102AF000808845F2103188421AD12C206B49088118
:102B00002A2048812B2088810846808846F60401C7
:102B1000884205D06548808845F21031884206D148
:102B20004FF4A070614908804FF4F070488079E05C
:102B30005E48808845F21051884210D14FF43050E1
:102B40005A4908814FF4285048814FF42C5088810D
:102B50004FF4F07008804FF44870488062E0222003
:102B60005249088120204881212088815AE0012093
:102B70004E4988714FF4A0700880F02048800846C4
:102B8000808849F24131884205D04848808845F222
:102B90001031884207D12C20444908812A204881DD
:102BA0002B2088812BE04148808846F6040188422A
:102BB00007D12C203D4908812B2048812A2088817B
:102BC0001DE03A48808845F21051884210D14FF4F8
:102BD0003050364908814FF4285048814FF42C502A
:102BE00088814FF4487008804FF4F070488006E008
:102BF00022202E49088121204881202088812B48CD
:102C0000808846F60401884205D02848808845F22D
:102C10001031884206D14FF4F070244908804FF4F7
:102C2000A07048800020FFF74EFA10BD2DE9FF4F3D
:102C300004460D4616461F46A019401E86B2E819E6
:102C4000401E87B21948808849F2413188420BD032
:102C50001648808845F21031884205D01348808894
:102C600046F60401884227D110494889FFF722FA25
:102C70002012FFF715FAE0B2FFF712FA3012FFF751
:102C80000FFAF0B2FFF70CFA08498889FFF712FA39
:102C90002812FFF705FAE8B2FFF702FA3812FFF739
:102CA000FFF9F8B2FFF7FCF984E00000AC01002066
:102CB0002E0000208000006CFE48808845F21051F4
:102CC000884244D1FB494889FFF7F4F92012FFF705
:102CD000E7F9F8494989491C88B2FFF7EBF9E0B2F6
:102CE000FFF7DEF9F3494989891C88B2FFF7E2F959
:102CF0003012FFF7D5F9EF494989C91C88B2FFF7AF
:102D0000D9F9F0B2FFF7CCF9EA498889FFF7D2F98F
:102D10002812FFF7C5F9E7498989491C88B2FFF7EE
:102D2000C9F9E8B2FFF7BCF9E2498989891C88B280
:102D3000FFF7C0F93812FFF7B3F9DE498989C91CDA
:102D400088B2FFF7B7F9F8B2FFF7AAF932E0D9482D
:102D5000807901280ED1A846B946D6480088801B44
:102D6000401E1FFA80FAD3480088001B401E1FFA3D
:102D700080FB03E0A046B146AA46BB465020039024
:102D80005120029052200190532000904146039818
:102D9000FFF77AF949460298FFF776F9514601980C
:102DA000FFF772F959460098FFF76EF92946204659
:102DB000FFF7F9FABDE8FF8F70B504460026BD485D
:102DC000058840884543BB48808846F60401884210
:102DD00016D1B8488079012812D10020B5498871F0
:102DE0002A2048812B20888100210846FFF7DBFA42
:102DF0000120B04988712B2048812A20888103E076
:102E000000210846FFF7CFFAFFF7C8FA002602E0D4
:102E1000A9480480761CAE42FAD370BD00B5A1B0BB
:102E20000020209001217A20FEF734FB0121084682
:102E3000FEF768FB4FF400401E9001208DF87C00E7
:102E400000208DF87E0002208DF87D0001208DF895
:102E50007F001EA99948FEF77FF84CF233701E9050
:102E600002208DF87C0000208DF87E0003208DF874
:102E70007D0001208DF87F001EA99148FEF76CF8B7
:102E80004FF680701E9002208DF87C0000208DF897
:102E90007E0003208DF87D0001208DF87F001EA9A3
:102EA0008848FEF759F84FF480501E9002208DF8A4
:102EB0007C0000208DF87E0003208DF87D0001202D
:102EC0008DF87F001EA98048FEF746F84FF4805029
:102ED0001E9002208DF87C0000208DF87E000320DB
:102EE0008DF87D0001208DF87F001EA97748FEF740
:102EF00033F80C2200217248FEF7B9F80C220121A8
:102F00006F48FEF7B4F80C2204216D48FEF7AFF8C5
:102F10000C2205216A48FEF7AAF80C22082168480D
:102F2000FEF7A5F80C2209216548FEF7A0F80C224F
:102F30000A216348FEF79BF80C220E216048FEF739
:102F400096F80C220F215E48FEF791F80C2207211B
:102F50005C48FEF78CF80C2208215A48FEF787F8E7
:102F60000C2209215748FEF782F80C220A21554805
:102F7000FEF77DF80C220B215248FEF778F80C2260
:102F800011465048FEF773F80C220D214D48FEF70C
:102F90006EF80C220E214B48FEF769F80C220F2127
:102FA0004848FEF764F80C2211464748FEF75FF8E0
:102FB0000C2211464548FEF75AF80F2008900020D1
:102FC000099018200A9000200B900C900D900E9004
:102FD0000820019000200290082003900020049017
:102FE00005900690079006200F90002010901190F9
:102FF00010201290002013901590149016901790A6
:103000004FF480501890002019904FF480401A908F
:1030100000201B9008A81C9001A81D900FA8FDF788
:103020004CFC01210620FDF7D3FC3220FEF728FFDF
:1030300001210020FFF728F83220FEF721FF0020B1
:10304000FFF7FFFB1B49888008468088FF280ADBC2
:10305000084680884FF6FF71884204D01548808862
:10306000B0F5134F7ED1D320FFF724F8FFF7E2FB32
:1030700010498880FFF7DEFB0E498880FFF7DAFBF6
:103080000C498880084680884FF6FF7101EA0020CD
:1030900008498880FFF7CEFB06498988084305491F
:1030A00088800846808849F2413188425AD0BF2042
:1030B0000EE00000AC0100208000006C0004024023
:1030C000000C0240001002400014024000180240B0
:1030D000FEF7F0FFFFF7AEFBF9498880FFF7AAFB88
:1030E000F7498880FFF7A6FBF5498880FFF7A2FB28
:1030F000F3498880084680884FF6FF7101EA002076
:10310000EF498880FFF796FBED4989880843EC4931
:1031100088800846808846F60401884250D0D42032
:10312000FEF7C8FFFFF786FBE5498880FFF782FBC3
:10313000E3498880FFF77EFBE14988800846808864
:103140004FF6FF7101EA0020DD498880FFF772FB2E
:10315000DB4989880843DA4988800846808845F237
:10316000103100E02CE088422AD04FF45A40FEF79C
:10317000A1FFFFF75FFBD24988804FF45B40FEF769
:1031800099FFFFF757FBCE498880084680884FF6A5
:10319000FF7101EA0020CA4988804FF45C40FEF7C5
:1031A00089FFFFF747FBC64989880843C4498880DF
:1031B00008468088B0F5004F02D145F21050888053
:1031C000BF48808849F2413188420BD0BC48808892
:1031D00045F21031884205D0B948808845F2105137
:1031E00088421DD1B748006820F00F004FF0204101
:1031F000C1F81C010846D0F81C0120F47060C1F829
:103200001C010846D0F81C0140F00300C1F81C0165
:103210000846D0F81C0140F40070C1F81C0128E0F9
:10322000A748808846F60401884205D0A4488088D3
:103230004CF2055188421CD1A248006820F00F00D2
:103240004FF02041C1F81C010846D0F81C0120F4C1
:103250007060C1F81C010846D0F81C0140F00A005B
:10326000C1F81C010846D0F81C0140F44060C1F8C8
:103270001C019348818894A004F088F890488088C5
:1032800049F2413188427CD1CF20FEF713FF002064
:10329000FEF706FF2098401C2090C120FEF700FF9B
:1032A0003020FEF7FDFEED20FEF704FF6420FEF760
:1032B000F7FE0320FEF7F4FE1220FEF7F1FE812058
:1032C000FEF7EEFEE820FEF7F5FE8520FEF7E8FEAD
:1032D0001020FEF7E5FE7A20FEF7E2FECB20FEF797
:1032E000E9FE3920FEF7DCFE2C20FEF7D9FE002097
:1032F000FEF7D6FE3420FEF7D3FE0220FEF7D0FE06
:10330000F720FEF7D7FE2020FEF7CAFEEA20FEF7E0
:10331000D1FE0020FEF7C4FE0020FEF7C1FEC02053
:10332000FEF7C8FE1B20FEF7BBFEC120FEF7C2FE63
:103330000120FEF7B5FEC520FEF7BCFE3020FEF7EB
:10334000AFFE3020FEF7ACFEC720FEF7B3FEB7207D
:10335000FEF7A6FE3620FEF7ADFE4820FEF7A0FEE3
:103360003A20FEF7A7FE5520FEF79AFEB120FEF7A1
:10337000A1FE0020FEF794FE1A20FEF791FEB62073
:1033800000E0A9E0FEF796FE0A20FEF789FEA220E3
:10339000FEF786FEF220FEF78DFE0020FEF780FE8F
:1033A0002620FEF787FE0120FEF77AFEE020FEF7DA
:1033B00081FE0F20FEF774FE2A20FEF771FE282002
:1033C000FEF76EFE0820FEF76BFE0E20FEF768FE8D
:1033D0000820FEF765FE5420FEF762FEA920FEF7E6
:1033E0005FFE4320FEF75CFE0A20FEF759FE0F2029
:1033F000FEF756FE0020FEF753FE0020FEF750FEBB
:103400000020FEF74DFE0020FEF74AFEE120FEF709
:1034100051FE0020FEF744FE1520FEF741FE172066
:10342000FEF73EFE0720FEF73BFE1120FEF738FEBA
:103430000620FEF735FE2B20FEF732FE5620FEF763
:103440002FFE3C20FEF72CFE0520FEF729FE102063
:10345000FEF726FE0F20FEF723FE3F20FEF720FE9C
:103460003F20FEF71DFE0F20FEF71AFE2B20FEF771
:1034700021FE0020FEF714FE0020FEF711FE0120C1
:10348000FEF70EFE3F20FEF70BFE2A20FEF712FE8F
:103490000020FEF705FE0020FEF702FE0020FEF7EA
:1034A000FFFDEF20FEF7FCFD1120FEF703FE782064
:1034B000FEF7E6FC2920FEF7FDFD03F069B80000E9
:1034C000AC0100201C0100A0204C43442049443A98
:1034D00025780D0A00000000FE48808846F60401A9
:1034E00088427CD11120FEF7E5FD1420FEF7C8FCD0
:1034F000D020FEF7DFFD0720FEF7D2FD4220FEF7C9
:10350000CFFD1D20FEF7CCFDD120FEF7D3FD00201E
:10351000FEF7C6FD1A20FEF7C3FD0920FEF7C0FD29
:10352000D220FEF7C7FD0120FEF7BAFD2220FEF7EC
:10353000B7FDC020FEF7BEFD1020FEF7B1FD3B2019
:10354000FEF7AEFD0020FEF7ABFD0220FEF7A8FD62
:103550001120FEF7A5FDC520FEF7ACFD0320FEF708
:103560009FFDC820FEF7A6FD0020FEF799FD25204F
:10357000FEF796FD2120FEF793FD0520FEF790FD56
:103580000020FEF78DFD0A20FEF78AFD6520FEF77C
:1035900087FD2520FEF784FD7720FEF781FD502072
:1035A000FEF77EFD0F20FEF77BFD0020FEF778FD85
:1035B000F820FEF77FFD0120FEF772FDFE20FEF7EA
:1035C00079FD0020FEF76CFD0220FEF769FD20204A
:1035D000FEF770FD3620FEF76DFD082000E02CE0C0
:1035E000FEF75EFD3A20FEF765FD5520FEF758FD1B
:1035F0002B20FEF75FFD0020FEF752FD0020FEF7B6
:103600004FFD0120FEF74CFD3F20FEF749FD2A202B
:10361000FEF750FD0020FEF743FD0020FEF740FDC1
:103620000120FEF73DFDDF20FEF73AFD7820FEF792
:1036300027FC2920FEF73EFD3FE7A648808845F29B
:103640001031884240F07C87ED20FEF733FD0120E9
:10365000FEF726FDFE20FEF723FDEE20FEF72AFDF5
:10366000DE20FEF71DFD2120FEF71AFDF120FEF7FA
:1036700021FD0120FEF714FDDF20FEF71BFD1020C9
:10368000FEF70EFDC420FEF715FD8F20FEF708FDA6
:10369000C620FEF70FFD0020FEF702FDE220FEF738
:1036A000FFFCE220FEF7FCFCE220FEF7F9FCBF2065
:1036B000FEF700FDAA20FEF7F3FCB020FEF7FAFCAF
:1036C0000D20FEF7EDFC0020FEF7EAFC0D20FEF7D2
:1036D000E7FC0020FEF7E4FC1120FEF7E1FC0020EF
:1036E000FEF7DEFC1920FEF7DBFC0020FEF7D8FC1D
:1036F0002120FEF7D5FC0020FEF7D2FC2D20FEF79E
:10370000CFFC0020FEF7CCFC3D20FEF7C9FC0020DA
:10371000FEF7C6FC5D20FEF7C3FC0020FEF7C0FCF0
:103720005D20FEF7BDFC0020FEF7BAFCB120FEF7DD
:10373000C1FC8020FEF7B4FC0020FEF7B1FC8B201A
:10374000FEF7AEFC0020FEF7ABFC9620FEF7A8FCCF
:103750000020FEF7A5FCB220FEF7ACFC0020FEF72F
:103760009FFC0020FEF79CFC0220FEF799FC002045
:10377000FEF796FC0320FEF793FC0020FEF790FC7A
:10378000B320FEF797FC0020FEF78AFC0020FEF72E
:1037900087FC0020FEF784FC0020FEF781FC00205F
:1037A000FEF77EFC0020FEF77BFC0020FEF778FC95
:1037B0000020FEF775FC0020FEF772FC0020FEF7EB
:1037C0006FFC0020FEF76CFC0020FEF769FC002077
:1037D000FEF766FC0020FEF763FC0020FEF760FCAD
:1037E0000020FEF75DFC0020FEF75AFC0020FEF7EB
:1037F00057FC0020FEF754FC0020FEF751FC00208F
:10380000FEF74EFC0020FEF74BFC0020FEF748FCC4
:103810000020FEF745FCB420FEF74CFC8B20FEF7A1
:103820003FFC0020FEF73CFC9620FEF739FC002010
:10383000FEF736FCA120FEF733FC0020FEF730FC3B
:10384000B520FEF737FC0220FEF72AFC0020FEF729
:1038500027FC0320FEF724FC0020FEF721FC0420B7
:10386000FEF71EFC0020FEF71BFCB620FEF722FC34
:103870000020FEF715FC0020FEF712FCB720FEF733
:1038800019FC0020FEF70CFC0020FEF709FC3F208D
:10389000FEF706FC0020FEF703FC5E20FEF700FCAE
:1038A0000020FEF7FDFB6420FEF7FAFB0020FEF788
:1038B000F7FB8C20FEF7F4FB0020FEF7F1FBAC20B9
:1038C000FEF7EEFB0020FEF7EBFBDC20FEF7E8FB4B
:1038D000002001E0AC010020FEF7E2FB7020FEF7C3
:1038E000DFFB0020FEF7DCFB9020FEF7D9FB002079
:1038F000FEF7D6FBEB20FEF7D3FB0020FEF7D0FB54
:10390000DC20FEF7CDFB0020FEF7CAFBB820FEF757
:10391000D1FB0020FEF7C4FB0020FEF7C1FB002016
:10392000FEF7BEFB0020FEF7BBFB0020FEF7B8FB56
:103930000020FEF7B5FB0020FEF7B2FB0020FEF7EB
:10394000AFFBBA20FEF7B6FB2420FEF7A9FB002050
:10395000FEF7A6FB0020FEF7A3FB0020FEF7A0FB6E
:10396000C120FEF7A7FB2020FEF79AFB0020FEF700
:1039700097FB5420FEF794FB0020FEF791FBFF20FD
:10398000FEF78EFB0020FEF78BFBC220FEF792FBBA
:103990000A20FEF785FB0020FEF782FB0420FEF7DD
:1039A0007FFB0020FEF77CFBC320FEF783FB3C205F
:1039B000FEF776FB0020FEF773FB3A20FEF770FB64
:1039C0000020FEF76DFB3920FEF76AFB0020FEF7B2
:1039D00067FB3720FEF764FB0020FEF761FB3C200D
:1039E000FEF75EFB0020FEF75BFB3620FEF758FB80
:1039F0000020FEF755FB3220FEF752FB0020FEF7B9
:103A00004FFB2F20FEF74CFB0020FEF749FB2C203C
:103A1000FEF746FB0020FEF743FB2920FEF740FBA4
:103A20000020FEF73DFB2620FEF73AFB0020FEF7C4
:103A300037FB2420FEF734FB0020FEF731FB242067
:103A4000FEF72EFB0020FEF72BFB2320FEF728FBC2
:103A50000020FEF725FB3C20FEF722FB0020FEF7AE
:103A60001FFB3620FEF71CFB0020FEF719FB32205F
:103A7000FEF716FB0020FEF713FB2F20FEF710FBCE
:103A80000020FEF70DFB2C20FEF70AFB0020FEF7BE
:103A900007FB2920FEF704FB0020FEF701FB262090
:103AA000FEF7FEFA0020FEF7FBFA2420FEF7F8FAF4
:103AB0000020FEF7F5FA2420FEF7F2FA0020FEF7C8
:103AC000EFFA2320FEF7ECFA0020FEF7E9FAC42013
:103AD000FEF7F0FA6220FEF7E3FA0020FEF7E0FAC4
:103AE0000520FEF7DDFA0020FEF7DAFA8420FEF763
:103AF000D7FA0020FEF7D4FAF020FEF7D1FA002022
:103B0000FEF7CEFA1820FEF7CBFA0020FEF7C8FA2F
:103B1000A420FEF7C5FA0020FEF7C2FA1820FEF72F
:103B2000BFFA0020FEF7BCFA5020FEF7B9FA0020D9
:103B3000FEF7B6FA0C20FEF7B3FA0020FEF7B0FA53
:103B40001720FEF7ADFA0020FEF7AAFA9520FEF73F
:103B5000A7FA0020FEF7A4FAF320FEF7A1FA00204E
:103B6000FEF79EFAE620FEF79BFA0020FEF798FA91
:103B7000C520FEF79FFA3220FEF792FA0020FEF7EA
:103B80008FFA4420FEF78CFA0020FEF789FA6520B0
:103B9000FEF786FA0020FEF783FA7620FEF780FA19
:103BA0000020FEF77DFA8820FEF77AFA0020FEF763
:103BB00077FAC620FEF77EFA2020FEF771FA002081
:103BC000FEF76EFA1720FEF76BFA0020FEF768FA90
:103BD0000120FEF765FA0020FEF762FAC720FEF723
:103BE00069FA0020FEF75CFA0020FEF759FA00207F
:103BF000FEF756FA0020FEF753FAC820FEF75AFAED
:103C00000020FEF74DFA0020FEF74AFA0020FEF7EA
:103C100047FA0020FEF744FAC920FEF74BFA0020CD
:103C2000FEF73EFA0020FEF73BFA0020FEF738FAD6
:103C30000020FEF735FA0020FEF732FA0020FEF7EA
:103C40002FFA0020FEF72CFA0020FEF729FA0020B8
:103C5000FEF726FA0020FEF723FA0020FEF720FAEE
:103C60000020FEF71DFA0020FEF71AFA0020FEF7EA
:103C700017FA0020FEF714FA0020FEF711FAE020F0
:103C8000FEF718FA1620FEF70BFA0020FEF708FAE6
:103C90001C20FEF705FA0020FEF702FA2120FEF7AD
:103CA000FFF90020FEF7FCF93620FEF7F9F90020B5
:103CB000FEF7F6F94620FEF7F3F90020FEF7F0F9DB
:103CC0005220FEF7EDF90020FEF7EAF96420FEF736
:103CD000E7F90020FEF7E4F97A20FEF7E1F9002089
:103CE000FEF7DEF98B20FEF7DBF90020FEF7D8F9AE
:103CF0009920FEF7D5F90020FEF7D2F9A820FEF7AB
:103D0000CFF90020FEF7CCF9B920FEF7C9F9002061
:103D1000FEF7C6F9C420FEF7C3F90020FEF7C0F98C
:103D2000CA20FEF7BDF90020FEF7BAF9D220FEF74F
:103D3000B7F90020FEF7B4F9D920FEF7B1F9002059
:103D4000FEF7AEF9E020FEF7ABF90020FEF7A8F988
:103D5000F320FEF7A5F90020FEF7A2F9E120FEF717
:103D6000A9F91620FEF79CF90020FEF799F91C200E
:103D7000FEF796F90020FEF793F92220FEF790F95E
:103D80000020FEF78DF93620FEF78AF90020FEF7B5
:103D900087F94520FEF784F90020FEF781F95220CB
:103DA000FEF77EF90020FEF77BF96420FEF778F934
:103DB0000020FEF775F97A20FEF772F90020FEF771
:103DC0006FF98B20FEF76CF90020FEF769F9992056
:103DD000FEF766F90020FEF763F9A820FEF760F908
:103DE0000020FEF75DF9B920FEF75AF90020FEF732
:103DF00057F9C420FEF754F90020FEF751F9CA2004
:103E0000FEF74EF90020FEF74BF9D220FEF748F9F5
:103E10000020FEF745F9D820FEF742F90020FEF712
:103E20003FF9E020FEF73CF90020FEF739F9F320D6
:103E3000FEF736F90020FEF733F9E220FEF73AF9F3
:103E40000520FEF72DF90020FEF72AF90B20FEF7DA
:103E500027F90020FEF724F91B20FEF721F90020A6
:103E6000FEF71EF93420FEF71BF90020FEF718F9C3
:103E70004420FEF715F90020FEF712F94F20FEF757
:103E80000FF90020FEF70CF96120FEF709F9002078
:103E9000FEF706F97920FEF703F90020FEF700F996
:103EA0008820FEF7FDF80020FEF7FAF89720FEF7CD
:103EB000F7F80020FEF7F4F8A620FEF7F1F800204E
:103EC000FEF7EEF8B720FEF7EBF80020FEF7E8F873
:103ED000C220FEF7E5F80020FEF7E2F8C720FEF763
:103EE000DFF80020FEF7DCF8D120FEF7D9F800203B
:103EF000FEF7D6F8D620FEF7D3F80020FEF7D0F86C
:103F0000DD20FEF7CDF80020FEF7CAF8F320FEF71B
:103F1000C7F80020FEF7C4F8E320FEF7CBF8052031
:103F2000FEF7BEF80020FEF7BBF80A20FEF7B8F84F
:103F30000020FEF7B5F81C20FEF7B2F80020FEF7CF
:103F4000AFF83320FEF7ACF80020FEF7A9F84420C4
:103F5000FEF7A6F80020FEF7A3F85020FEF7A0F821
:103F60000020FEF79DF86220FEF79AF80020FEF789
:103F700097F87820FEF794F80020FEF791F8882053
:103F8000FEF78EF80020FEF78BF89720FEF788F8F2
:103F90000020FEF785F8A620FEF782F80020FEF745
:103FA0007FF8B720FEF77CF80020FEF779F8C220F2
:103FB000FEF776F80020FEF773F8C720FEF770F8DA
:103FC0000020FEF76DF8D120FEF76AF80020FEF71A
:103FD00067F8D520FEF764F80020FEF761F8DD20D1
:103FE000FEF75EF80020FEF75BF8F320FEF758F8C6
:103FF0000020FEF755F8E420FEF75CF80120FEF7FC
:104000004FF80020FEF74CF80120FEF749F8002099
:10401000FEF746F80220FEF743F80020FEF740F8CE
:104020002A20FEF73DF80020FEF73AF83C20FEF784
:1040300037F80020FEF734F84B20FEF731F8002067
:10404000FEF72EF85D20FEF72BF80020FEF728F88B
:104050007420FEF725F80020FEF722F88420FEF7F2
:104060001FF80020FEF71CF89320FEF719F8002037
:10407000FEF716F8A220FEF713F80020FEF710F85E
:10408000B320FEF70DF80020FEF70AF8BE20FEF779
:1040900007F80020FEF704F8C420FEF701F800201E
:1040A000FDF7FEFFCD20FDF7FBFF0020FDF7F8FF39
:1040B000D320FDF7F5FF0020FDF7F2FFDD20FDF72F
:1040C000EFFF0020FDF7ECFFF320FDF7E9FF0020F4
:1040D000FDF7E6FFE520FDF7EDFF0020FDF7E0FF2F
:1040E0000020FDF7DDFF0020FDF7DAFF0020FDF7DF
:1040F000D7FF0220FDF7D4FF0020FDF7D1FF2920D4
:10410000FDF7CEFF0020FDF7CBFF3C20FDF7C8FFF9
:104110000020FDF7C5FF4B20FDF7C2FF0020FDF793
:10412000BFFF5D20FDF7BCFF0020FDF7B9FF742045
:10413000FDF7B6FF0020FDF7B3FF8420FDF7B0FFC9
:104140000020FDF7ADFF9320FDF7AAFF0020FDF74B
:10415000A7FFA220FDF7A4FF0020FDF7A1FFB320D9
:10416000FDF79EFF0020FDF79BFFBE20FDF798FFA7
:104170000020FDF795FFC420FDF792FF0020FDF71A
:104180008FFFCD20FDF78CFF0020FDF789FFD320A6
:10419000FDF786FF0020FDF783FFDC20FDF780FFA1
:1041A0000020FDF77DFFF320FDF77AFF0020FDF7EB
:1041B00077FFE620FDF77EFF1120FDF771FF00205D
:1041C000FDF76EFF3420FDF76BFF0020FDF768FF61
:1041D0005620FDF765FF0020FDF762FF7620FDF712
:1041E0005FFF0020FDF75CFF7720FDF759FF0020FF
:1041F000FDF756FF6620FDF753FF0020FDF750FF47
:104200008820FDF74DFF0020FDF74AFF9920FDF7BC
:1042100047FF0020FDF744FFBB20FDF741FF0020D2
:10422000FDF73EFF9920FDF73BFF0020FDF738FF2B
:104230006620FDF735FF0020FDF732FF5520FDF722
:104240002FFF0020FDF72CFF5520FDF729FF002050
:10425000FDF726FF4520FDF723FF0020FDF720FF97
:104260004320FDF71DFF0020FDF71AFF4420FDF756
:1042700017FF0020FDF714FFE720FDF71BFF32209A
:10428000FDF70EFF0020FDF70BFF5520FDF708FF9F
:104290000020FDF705FF7620FDF702FF0020FDF767
:1042A000FFFE6620FDF7FCFE0020FDF7F9FE67200B
:1042B000FDF7F6FE0020FDF7F3FE6720FDF7F0FEA8
:1042C0000020FDF7EDFE8720FDF7EAFE0020FDF758
:1042D000E7FE9920FDF7E4FE0020FDF7E1FEBB209C
:1042E000FDF7DEFE0020FDF7DBFE9920FDF7D8FE8E
:1042F0000020FDF7D5FE7720FDF7D2FE0020FDF768
:10430000CFFE4420FDF7CCFE0020FDF7C9FE56206D
:10431000FDF7C6FE0020FDF7C3FE2320FDF7C0FE1B
:104320000020FDF7BDFE3320FDF7BAFE0020FDF7AB
:10433000B7FE4520FDF7B4FE0020FDF7B1FEE820F2
:10434000FDF7B8FE0020FDF7ABFE0020FDF7A8FE4C
:104350009920FDF7A5FE0020FDF7A2FE8720FDF7BE
:104360009FFE0020FDF79CFE8820FDF799FE0020AF
:10437000FDF796FE7720FDF793FE0020FDF790FEF7
:104380006620FDF78DFE0020FDF78AFE8820FDF7F0
:1043900087FE0020FDF784FEAA20FDF781FE0020A5
:1043A000FDF77EFEBB20FDF77BFE0020FDF778FECB
:1043B0009920FDF775FE0020FDF772FE6620FDF7DF
:1043C0006FFE0020FDF76CFE5520FDF769FE002012
:1043D000FDF766FE5520FDF763FE0020FDF760FE49
:1043E0004420FDF75DFE0020FDF75AFE4420FDF756
:1043F00057FE0020FDF754FE5520FDF751FE00202A
:10440000FDF74EFEE920FDF755FEAA20FDF748FE18
:104410000020FDF745FE0020FDF742FE0020FDF7DD
:104420003FFE0020FDF746FEAA20FDF739FECF2013
:10443000FDF740FE0020FDF733FE0020FDF730FEC3
:104440000020FDF72DFE0020FDF72AFE0020FDF7DD
:1044500027FE0020FDF724FE0020FDF721FE0020AE
:10446000FDF71EFE0020FDF71BFE0020FDF718FEE5
:104470000020FDF715FE0020FDF712FE0020FDF7DD
:104480000FFE0020FDF70CFE0020FDF709FE0020C6
:10449000FDF706FE0020FDF703FEF020FDF70AFE03
:1044A0000020FDF7FDFD5020FDF7FAFD0020FDF78F
:1044B000F7FD0020FDF7F4FD0020FDF7F1FDF320EE
:1044C000FDF7F8FD0020FDF7EBFDF920FDF7F2FD0B
:1044D0000620FDF7E5FD1020FDF7E2FD2920FDF7A0
:1044E000DFFD0020FDF7DCFD3A20FDF7E3FD552060
:1044F000FDF7D6FD1120FDF7DDFD6420FDF7C0FCC2
:104500002920FDF7D7FD3520FDF7D4FD0020FDF76C
:10451000C7FD5120FDF7CEFDFF20FDF7C1FD532063
:10452000FDF7C8FD2C20FDF7BBFD5520FDF7C2FDB2
:104530008220FDF7B5FD2C20FDF7BCFD02F028B868
:10454000FE48808845F2105188427DD155214FF4B4
:104550007040FDF799FDAA214FF20100FDF794FD8F
:1045600052214FF20200FDF78FFD08214FF20300A8
:10457000FDF78AFD01214FF20400FDF785FD0D21B5
:104580004FF43040FDF780FD0D214BF20100FDF7A7
:104590007BFD0D214BF20200FDF776FD34214FF437
:1045A0003640FDF771FD34214BF20160FDF76CFDE3
:1045B00034214BF20260FDF767FD0D214FF43140CD
:1045C000FDF762FD0D214BF20110FDF75DFD0D21A0
:1045D0004BF20210FDF758FD34214FF43740FDF740
:1045E00053FD34214BF20170FDF74EFD34214BF2A7
:1045F0000270FDF749FD00214FF43240FDF744FD04
:1046000000214BF20120FDF73FFD00214BF202207B
:10461000FDF73AFD24214FF43840FDF735FD242104
:104620004BF60100FDF730FD24214BF60200FDF7AB
:104630002BFD01214FF43F40FDF726FD0F214FF4E4
:104640003340FDF721FD00E0FDE30F214BF2013087
:10465000FDF71AFD0F214BF20230FDF715FD342155
:104660004FF43940FDF710FD34214BF60110FDF7F2
:104670000BFD34214BF60210FDF706FD08214FF427
:104680003540FDF701FD08214BF20150FDF7FCFC20
:1046900008214BF20250FDF7F7FC03214FF4424092
:1046A000FDF7F2FC24214FF43A40FDF7EDFC242104
:1046B0004BF60120FDF7E8FC24214BF60220FDF724
:1046C000E3FC00214FF43C40FDF7DEFC78214BF683
:1046D0000140FDF7D9FC00214BF60240FDF7D4FC68
:1046E00000214FF43D40FDF7CFFC78214BF60150FF
:1046F000FDF7CAFC00214BF60250FDF7C5FC002176
:104700004FF43E40FDF7C0FC64214BF60160FDF71D
:10471000BBFC00214FF45140FDF7B6FC33214DF2B4
:104720000110FDF7B1FC00214DF20210FDF7ACFCC9
:1047300034214DF20310FDF7A7FC00214DF20410C7
:10474000FDF7A2FC3A214DF20510FDF79DFC00217A
:104750004DF20610FDF798FC4A214DF20710FDF7C7
:1047600093FC00214DF20810FDF78EFC5C214DF208
:104770000910FDF789FC00214DF20A10FDF784FCB9
:1047800081214DF20B10FDF77FFC00214DF20C1042
:10479000FDF77AFCA6214DF20D10FDF775FC002106
:1047A0004DF20E10FDF770FCE5214DF20F10FDF7F4
:1047B0006BFC01214DF21010FDF766FC13214DF248
:1047C0001110FDF761FC01214DF21210FDF75CFCA8
:1047D00054214DF21310FDF757FC01214DF2141036
:1047E000FDF752FC82214DF21510FDF74DFC012121
:1047F0004DF21610FDF748FCCA214DF21710FDF7D7
:1048000043FC02214DF21810FDF73EFC00214DF251
:104810001910FDF739FC02214DF21A10FDF734FC96
:1048200001214DF21B10FDF72FFC02214DF21C104F
:10483000FDF72AFC34214DF21D10FDF725FC022165
:104840004DF21E10FDF720FC67214DF21F10FDF701
:104850001BFC02214DF22010FDF716FC84214DF2C5
:104860002110FDF711FC02214DF22210FDF70CFC86
:10487000A4214DF22310FDF707FC02214DF2241074
:10488000FDF702FCB7214DF22510FDF7FDFB0221DB
:104890004DF22610FDF7F8FBCF214DF22710FDF762
:1048A000F3FB02214DF22810FDF7EEFBDE214DF265
:1048B0002910FDF7E9FB02214DF22A10FDF7E4FB78
:1048C000F2214DF22B10FDF7DFFB02214DF22C10EF
:1048D000FDF7DAFBFE214DF22D10FDF7D5FB03218C
:1048E0004DF22E10FDF7D0FB10214DF22F10FDF7E9
:1048F000CBFB03214DF23010FDF7C6FB33214DF207
:104900003110FDF7C1FB03214DF23210FDF7BCFB66
:104910006D214DF23310FDF7B7FB00214FF45240EB
:10492000FDF7B2FB33214DF20120FDF7ADFB002175
:104930004DF20220FDF7A8FB342101E0AC0100207C
:104940004DF20320FDF7A0FB00214DF20420FDF7FE
:104950009BFB3A214DF20520FDF796FB00214DF21D
:104960000620FDF791FB4A214DF20720FDF78CFB55
:1049700000214DF20820FDF787FB5C214DF2092054
:10498000FDF782FB00214DF20A20FDF77DFB81211E
:104990004DF20B20FDF778FB00214DF20C20FDF7C6
:1049A00073FBA6214DF20D20FDF76EFB00214DF2A9
:1049B0000E20FDF769FBE5214DF20F20FDF764FBAA
:1049C00001214DF21020FDF75FFB13214DF2112064
:1049D000FDF75AFB01214DF21220FDF755FB542142
:1049E0004DF21320FDF750FB01214DF21420FDF78D
:1049F0004BFB82214DF21520FDF746FB01214DF2C4
:104A00001620FDF741FBCA214DF21720FDF73CFBB4
:104A100002214DF21820FDF737FB00214DF219203D
:104A2000FDF732FB02214DF21A20FDF72DFB01218B
:104A30004DF21B20FDF728FB02214DF21C20FDF753
:104A400023FB34214DF21D20FDF71EFB02214DF208
:104A50001E20FDF719FB67214DF21F20FDF714FB07
:104A600002214DF22020FDF70FFB84214DF2212081
:104A7000FDF70AFB02214DF22220FDF705FBA421E0
:104A80004DF22320FDF700FB02214DF22420FDF71B
:104A9000FBFAB7214DF22520FDF7F6FA02214DF27F
:104AA0002620FDF7F1FACF214DF22720FDF7ECFA91
:104AB00002214DF22820FDF7E7FADE214DF22920F0
:104AC000FDF7E2FA02214DF22A20FDF7DDFAF2218C
:104AD0004DF22B20FDF7D8FA02214DF22C20FDF7E4
:104AE000D3FAFE214DF22D20FDF7CEFA03214DF22F
:104AF0002E20FDF7C9FA10214DF22F20FDF7C4FA40
:104B000003214DF23020FDF7BFFA33214DF2312061
:104B1000FDF7BAFA03214DF23220FDF7B5FA6D2107
:104B20004DF23320FDF7B0FA00214FF45340FDF76A
:104B3000ABFA33214DF20130FDF7A6FA00214DF218
:104B40000230FDF7A1FA34214DF20330FDF79CFA53
:104B500000214DF20430FDF797FA3A214DF205306D
:104B6000FDF792FA00214DF20630FDF78DFA4A2149
:104B70004DF20730FDF788FA00214DF20830FDF7BD
:104B800083FA5C214DF20930FDF77EFA00214DF2E7
:104B90000A30FDF779FA81214DF20B30FDF774FAF6
:104BA00000214DF20C30FDF76FFAA6214DF20D30C9
:104BB000FDF76AFA00214DF20E30FDF765FAE521A6
:104BC0004DF20F30FDF760FA01214DF21030FDF784
:104BD0005BFA13214DF21130FDF756FA01214DF227
:104BE0001230FDF751FA54214DF21330FDF74CFA13
:104BF00001214DF21430FDF747FA82214DF21530B4
:104C0000FDF742FA01214DF21630FDF73DFACA21B7
:104C10004DF21730FDF738FA02214DF21830FDF74A
:104C200033FA00214DF21930FDF72EFA02214DF230
:104C30001A30FDF729FA01214DF21B30FDF724FA55
:104C400002214DF21C30FDF71FFA34214DF21D30C8
:104C5000FDF71AFA02214DF21E30FDF715FA672111
:104C60004DF21F30FDF710FA02214DF22030FDF712
:104C70000BFA84214DF22130FDF706FA02214DF2A4
:104C80002230FDF701FAA4214DF22330FDF7FCF9A3
:104C900002214DF22430FDF7F7F9B7214DF225300E
:104CA000FDF7F2F902214DF22630FDF7EDF9CF21A3
:104CB0004DF22730FDF7E8F902214DF22830FDF7DB
:104CC000E3F9DE214DF22930FDF7DEF902214DF244
:104CD0002A30FDF7D9F9F2214DF22B30FDF7D4F946
:104CE00002214DF22C30FDF7CFF9FE214DF22D308F
:104CF000FDF7CAF903214DF22E30FDF7C5F9102159
:104D00004DF22F30FDF7C0F903214DF23030FDF7A1
:104D1000BBF933214DF23130FDF7B6F903214DF2E5
:104D20003230FDF7B1F96D214DF23330FDF7ACF9BA
:104D300000214FF45440FDF7A7F933214DF2014013
:104D4000FDF7A2F900214DF20240FDF79DF9342153
:104D50004DF20340FDF798F900214DF20440FDF7B4
:104D600093F93A214DF20540FDF78EF900214DF2FD
:104D70000640FDF789F94A214DF20740FDF784F915
:104D800000214DF20840FDF77FF95C214DF209400A
:104D9000FDF77AF900214DF20A40FDF775F98121FE
:104DA0004DF20B40FDF770F900214DF20C40FDF77C
:104DB0006BF9A6214DF20D40FDF766F900214DF289
:104DC0000E40FDF761F9E5214DF20F40FDF75CF96A
:104DD00001214DF21040FDF757F913214DF211401A
:104DE000FDF752F901214DF21240FDF74DF9542122
:104DF0004DF21340FDF748F901214DF21440FDF743
:104E000043F982214DF21540FDF73EF901214DF2A3
:104E10001640FDF739F9CA214DF21740FDF734F974
:104E200002214DF21840FDF72FF900214DF21940F3
:104E3000FDF72AF902214DF21A40FDF725F901216B
:104E40004DF21B4000E006E3FDF71EF902214DF292
:104E50001C40FDF719F934214DF21D40FDF714F9FE
:104E600002214DF21E40FDF70FF967214DF21F4060
:104E7000FDF70AF902214DF22040FDF705F98421E2
:104E80004DF22140FDF700F902214DF22240FDF7DD
:104E9000FBF8A4214DF22340FDF7F6F802214DF274
:104EA0002440FDF7F1F8B7214DF22540FDF7ECF86D
:104EB00002214DF22640FDF7E7F8CF214DF22740C1
:104EC000FDF7E2F802214DF22840FDF7DDF8DE2182
:104ED0004DF22940FDF7D8F802214DF22A40FDF7A6
:104EE000D3F8F2214DF22B40FDF7CEF802214DF21E
:104EF0002C40FDF7C9F8FE214DF22D40FDF7C4F816
:104F000003214DF22E40FDF7BFF810214DF22F4046
:104F1000FDF7BAF803214DF23040FDF7B5F8332123
:104F20004DF23140FDF7B0F803214DF23240FDF76C
:104F3000ABF86D214DF23340FDF7A6F800214FF498
:104F40005540FDF7A1F833214DF20150FDF79CF8D3
:104F500000214DF20250FDF797F834214DF2035035
:104F6000FDF792F800214DF20450FDF78DF83A213B
:104F70004DF20550FDF788F800214DF20650FDF77F
:104F800083F84A214DF20750FDF77EF800214DF2DB
:104F90000850FDF779F85C214DF20950FDF774F8DF
:104FA00000214DF20A50FDF76FF881214DF20B50B0
:104FB000FDF76AF800214DF20C50FDF765F8A621C7
:104FC0004DF20D50FDF760F800214DF20E50FDF747
:104FD0005BF8E5214DF20F50FDF756F801214DF237
:104FE0001050FDF751F813214DF21150FDF74CF818
:104FF00001214DF21250FDF747F854214DF21350A4
:10500000FDF742F801214DF21450FDF73DF88221E1
:105010004DF21550FDF738F801214DF21650FDF70D
:1050200033F8CA214DF21750FDF72EF802214DF248
:105030001850FDF729F800214DF21950FDF724F81A
:1050400002214DF21A50FDF71FF801214DF21B50BD
:10505000FDF71AF802214DF21C50FDF715F8342126
:105060004DF21D50FDF710F802214DF21E50FDF7D4
:105070000BF867214DF21F50FDF706F802214DF2A3
:105080002050FDF701F884214DF22150FCF7FCFF80
:1050900002214DF22250FCF7F7FFA4214DF22350DC
:1050A000FCF7F2FF02214DF22450FCF7EDFFB7218F
:1050B0004DF22550FCF7E8FF02214DF22650FCF797
:1050C000E3FFCF214DF22750FCF7DEFF02214DF226
:1050D0002850FCF7D9FFDE214DF22950FCF7D4FF10
:1050E00002214DF22A50FCF7CFFFF2214DF22B5056
:1050F000FCF7CAFF02214DF22C50FCF7C5FFFE2140
:105100004DF22D50FCF7C0FF03214DF22E50FCF75D
:10511000BBFF10214DF22F50FCF7B6FF03214DF2DB
:105120003050FCF7B1FF33214DF23150FCF7ACFFAA
:1051300003214DF23250FCF7A7FF6D214DF23350A1
:10514000FCF7A2FF00214FF45640FCF79DFF3321EE
:105150004DF20160FCF798FF00214DF20260FCF770
:1051600093FF34214DF20360FCF78EFF00214DF2D6
:105170000460FCF789FF3A214DF20560FCF784FFDB
:1051800000214DF20660FCF77FFF4A214DF20760D7
:10519000FCF77AFF00214DF20860FCF775FF5C21F7
:1051A0004DF20960FCF770FF00214DF20A60FCF738
:1051B0006BFF81214DF20B60FCF766FF00214DF281
:1051C0000C60FCF761FFA6214DF20D60FCF75CFF5F
:1051D00000214DF20E60FCF757FFE5214DF20F6004
:1051E000FCF752FF01214DF21060FCF74DFF132137
:1051F0004DF21160FCF748FF01214DF21260FCF7FF
:1052000043FF54214DF21360FCF73EFF01214DF2A4
:105210001460FCF739FF82214DF21560FCF734FF72
:1052200001214DF21660FCF72FFFCA214DF21760E5
:10523000FCF72AFF02214DF21860FCF725FF002140
:105240004DF21960FCF720FF02214DF21A60FCF7C5
:105250001BFF01214DF21B60FCF716FF02214DF2EE
:105260001C60FCF711FF34214DF21D60FCF70CFFB0
:1052700002214DF21E60FCF707FF67214DF21F600F
:10528000FCF702FF02214DF22060FCF7FDFE8421B5
:105290004DF22160FCF7F8FE02214DF22260FCF78E
:1052A000F3FEA4214DF22360FCF7EEFE02214DF245
:1052B0002460FCF7E9FEB7214DF22560FCF7E4FE1F
:1052C00002214DF22660FCF7DFFECF214DF2276070
:1052D000FCF7DAFE02214DF22860FCF7D5FEDE2154
:1052E0004DF22960FCF7D0FE02214DF22A60FCF756
:1052F000CBFEF2214DF22B60FCF7C6FE02214DF2EF
:105300002C60FCF7C1FEFE214DF22D60FCF7BCFEC7
:1053100003214DF22E60FCF7B7FE10214DF22F60F5
:10532000FCF7B2FE03214DF23060FCF7ADFE3321F5
:105330004DF23160FCF7A8FE03214DF23260FCF71C
:10534000A3FE6D214DF23360FCF79EFE55214FF414
:105350007040FCF799FEAA214FF20100FCF794FE81
:1053600052214FF20200FCF78FFE08214FF203009A
:10537000FCF78AFE00214FF20400FCF785FECC21E9
:105380004FF43140FCF780FE00214BF20110FCF796
:105390007BFE05214FF43640FCF776FE70214FF47A
:1053A0003740FCF771FE70214BF20170FCF76CFE88
:1053B00001214FF43840FCF767FE03214BF6010052
:1053C000FCF762FE03214BF60200FCF75DFE0321B1
:1053D0004BF60300FCF758FE02214FF43C40FCF76B
:1053E00053FE00214BF60140FCF74EFE00214BF628
:1053F0000240FCF749FED0214FF44940FCF744FE3F
:1054000002214CF60110FCF73FFE50214CF6021031
:10541000FCF73AFE50214CF60310FCF735FE502104
:105420004CF60410FCF730FE00214FF45450FCF70A
:105430002BFE55214FF46850FCF726FE4FF48850A0
:10544000FCF738FE7820FCF7D3FC4FF42450FCF72F
:1054500031FE01F09DB8FE48808849F2253188422E
:105460007ED147F6F001E520FCF70EFE4FF4807187
:105470000120FCF709FE4FF4E0610220FCF704FE76
:1054800041F230010320FCF7FFFD00210420FCF76E
:10549000FBFD40F202210820FCF7F6FD0021092067
:1054A000FCF7F2FD00210A20FCF7EEFD00210C20A4
:1054B000FCF7EAFD00210D20FCF7E6FD00210F209E
:1054C000FCF7E2FD00211020FCF7DEFD0721112092
:1054D000FCF7DAFD00211220FCF7D6FD0021132095
:1054E000FCF7D2FD00210720FCF7CEFD41F29061D0
:1054F0001020FCF7C9FD40F227211120FCF7C4FD64
:105500009D211220FCF7C0FD4FF4C8511320FCF779
:10551000BBFD25212920FCF7B7FD0D212B20FCF731
:10552000B3FD07213020FCF7AFFD40F203313120FD
:10553000FCF7AAFD03213220FCF7A6FD40F206216C
:105540003520FCF7A1FD08213620FCF79DFD40F237
:1055500006413720FCF798FD4FF44171382000E0F8
:1055600057E0FCF791FD07213920FCF78DFD40F253
:1055700002613C20FCF788FD08213D20FCF784FDFA
:1055800000215020FCF780FDEF215120FCF77CFD2D
:1055900000215220FCF778FD40F23F115320FCF728
:1055A00073FD4FF427416020FCF76EFD012161205F
:1055B000FCF76AFD00216A20FCF766FD00218020CF
:1055C000FCF762FD00218120FCF75EFD00218220B6
:1055D000FCF75AFD00218320FCF756FD00218420B2
:1055E000FCF752FD00218520FCF74EFD1021902094
:1055F000FCF74AFD4FF4C0619220FCF745FD40F2F4
:1056000033110720FCF740FD22210020FCF73CFD70
:105610001FE78F48808849F2283188427ED141F2C5
:105620008F01EC20FCF730FD41F23421EF20FCF734
:105630002BFD4FF480710120FCF726FD4FF4E06153
:105640000220FCF721FD41F230010320FCF71CFD94
:1056500000210420FCF718FD40F202210820FCF78D
:1056600013FD00210920FCF70FFD00210A20FCF7A3
:105670000BFD01210C20FCF707FD00210D20FCF79C
:1056800003FD00210F20FCF7FFFC00211020FCF798
:10569000FBFC07211120FCF7F7FC00211220FCF78E
:1056A000F3FC00211320FCF7EFFC01210720FCF79D
:1056B000EBFC3220FCF7E4FB41F290411020FCF7B8
:1056C000E3FC40F227211120FCF7DEFC3220FCF73E
:1056D000D7FB8A211220FCF7D7FC3220FCF7D0FB45
:1056E0004FF4D0511320FCF7CFFC06212920FCF702
:1056F000CBFC0D212B20FCF7C7FC3220FCF7C0FBB4
:1057000000212020FCF7C0FC00212120FCF7BCFC7C
:105710003220FCF7B5FB0021302000E074E0FCF7FC
:10572000B3FC40F204613120FCF7AEFC40F20531DD
:105730003220FCF7A9FC00213520FCF7A5FC40F63F
:1057400009413620FCF7A0FC4FF401713720FCF72B
:105750009BFC40F201313820FCF796FC40F20771C7
:105760003920FCF791FC00213C20FCF78DFC40F631
:105770000A213D20FCF788FC3220FCF781FB002148
:105780005020FCF781FCEF215120FCF77DFC00212B
:105790005220FCF779FC40F23F115320FCF774FCD7
:1057A0004FF427416020FCF76FFC01216120FCF7DA
:1057B0006BFC00216A20FCF767FC00218020FCF7CD
:1057C00063FC00218120FCF75FFC00218220FCF7B4
:1057D0005BFC00218320FCF757FC00218420FCF7B0
:1057E00053FC00218520FCF74FFC10219020FCF792
:1057F0004BFC4FF4C0619220FCF746FC40F23311A1
:105800000720FCF741FC24E61148808849F220314A
:1058100088427DD100210846FCF736FC4FF48071A8
:105820000120FCF731FC4FF4E0610220FCF72CFC76
:1058300041F230010320FCF727FC00210420FCF793
:1058400023FC40F202210820FCF71EFC002101E0AD
:10585000AC0100200920FCF717FC00210A20FCF70E
:1058600013FC01210C20FCF70FFC00210D20FCF79C
:105870000BFC00210F20FCF707FC3220FCF700FB9B
:1058800040F201110720FCF7FFFB3220FCF7F8FA89
:105890004FF486511020FCF7F7FB07211120FCF78D
:1058A000F3FB4FF488711220FCF7EEFB4FF43061EC
:1058B0001320FCF7E9FB00212920FCF7E5FB44F26B
:1058C00010012B20FCF7E0FB00215020FCF7DCFB53
:1058D000EF215120FCF7D8FB00215220FCF7D4FB2C
:1058E00040F23F115320FCF7CFFB4FF41C516020D6
:1058F000FCF7CAFB01216120FCF7C6FB00216A20EE
:10590000FCF7C2FB00218020FCF7BEFB002100E079
:1059100031E08120FCF7B8FB00218220FCF7B4FBCA
:1059200000218320FCF7B0FB00218420FCF7ACFBB6
:1059300000218520FCF7A8FB10219020FCF7A4FB98
:1059400000219220FCF7A0FB01219320FCF79CFB97
:105950004FF488719520FCF797FB00219720FCF706
:1059600093FB00219820FCF78FFB40F27311072076
:10597000FCF78AFB6DE5FE48808849F231318842A8
:105980007DD141F21401E720FCF77EFB4FF48071DA
:105990000120FCF779FB4FF400710220FCF774FB47
:1059A00041F238010320FCF76FFB40F2022108208E
:1059B000FCF76AFB00210920FCF766FB00210A20A6
:1059C000FCF762FB00210C20FCF75EFB00210D20A0
:1059D000FCF75AFB00210F20FCF756FB002110209A
:1059E000FCF752FB07211120FCF74EFB002112208F
:1059F000FCF74AFB00211320FCF746FBC820FCF70C
:105A00003FFA41F290611020FCF73EFB40F2272163
:105A10001120FCF739FB3220FCF732FA0C2112205E
:105A2000FCF732FB3220FCF72BFA4FF40061132015
:105A3000FCF72AFB11212920FCF726FB0B212B2048
:105A4000FCF722FB3220FCF71BFA00212020FCF798
:105A50001BFB40F23F112120FCF716FB00213020F8
:105A6000FCF712FB4FF483713120FCF70DFB002192
:105A70003220FCF709FB4FF40171352000E064E0AF
:105A8000FCF702FB41F20A613620FCF7FDFA40F216
:105A900007713720FCF7F8FA4FF483713820FCF7D0
:105AA000F3FA40F207713920FCF7EEFA40F20241B6
:105AB0003C20FCF7E9FA40F60F413D20FCF7E4FA00
:105AC00000215020FCF7E0FAEF215120FCF7DCFA2E
:105AD00000215220FCF7D8FA40F23F115320FCF786
