:020000040800F2
:1000000070390020310200085D1600085F160008F4
:1000100063160008671600086B1600080000000051
:100020000000000000000000000000006F16000843
:10003000711600080000000073160008751600080D
:100040004B0200084B0200084B0200084B0200085C
:100050004B0200084B0200084B0200084B0200084C
:100060004B0200084B0200084B0200084B0200083C
:100070004B0200084B0200084B0200084B0200082C
:100080004B0200084B0200084B0200084B0200081C
:100090004B0200084B0200084B0200084B0200080C
:1000A0004B0200084B0200084B0200084B020008FC
:1000B0004B0200084B0200084B0200084B020008EC
:1000C0004B0200084B0200084B0200084B020008DC
:1000D0004B020008551A00084B0200084B020008AA
:1000E0004B0200084B0200084B0200084B020008BC
:1000F0004B0200084B0200084B0200084B020008AC
:100100004B0200084B0200084B0200084B0200089B
:100110004B0200084B0200084B0200084B0200088B
:100120004B0200084B0200084B0200084B0200087B
:100130004B0200084B0200084B0200084B0200086B
:100140004B0200084B0200084B0200084B0200085B
:100150004B0200084B0200084B0200084B0200084B
:100160004B0200084B0200084B0200084B0200083B
:100170004B0200084B0200084B0200084B0200082B
:100180004B0200084B02000800F002F800F041F8B2
:100190000AA090E8000C82448344AAF10107DA45E2
:1001A00001D100F036F8AFF2090EBAE80F0013F0F3
:1001B000010F18BFFB1A43F001031847007E00002F
:1001C000207E0000103A24BF78C878C1FAD85207C0
:1001D00024BF30C830C144BF04680C6070470000C1
:1001E0000023002400250026103A28BF78C1FBD840
:1001F000520728BF30C148BF0B607047782906F00E
:10020000ED81002070471FB506F0D0FA1FBD10B574
:1002100010BD06F09BFA1146FFF7F5FF06F046F910
:1002200006F0B9FA03B4FFF7F2FF03BC01F0AEFB2E
:100230000948804709480047FEE7FEE7FEE7FEE77A
:10024000FEE7FEE7FEE7FEE7FEE7FEE704480549B6
:10025000054A064B70470000551700088901000841
:100260007033002070390020703500207035002078
:1002700032490143324A1160704770B500210023B2
:100280000F22C4781CB32E4C246804F4E064C4F537
:10029000E064C4F30721C1F10404E3B20A414478E5
:1002A0009C40E1B28478144021430C07210E254C78
:1002B00005786155047804F01F050124AC400578E9
:1002C0006D11AD0005F1E025C5F8004109E00478A5
:1002D00004F01F050124AC401B4D0678761145F84B
:1002E000264070BD194A0A400243154B1B1F1A6075
:1002F000704739B1124A121D12680243104B1B1D80
:100300001A6006E00E4A121D126882430C4B1B1D38
:100310001A607047042808D14FF0E021096941F0C4
:1003200004014FF0E022116107E04FF0E02109697C
:1003300021F004014FF0E022116170470000FA053E
:100340000CED00E000E400E080E100E080FFFF1F32
:1003500030B943F2DB028100A1F1C0410A6005E03F
:1003600043F2D2028100A1F1C0410A606FF07042F5
:10037000411C8900A1F1C0410A608100A1F1C04186
:10038000C1F804217047D0E901121143C26811433A
:10039000026911434269114382691143C2691143E1
:1003A000026A1143426A1143826A1143C26A1143CD
:1003B000026B114302689200A2F1C0421160816891
:1003C00008290BD101688900A1F1C041096841F0F9
:1003D000400201688900A1F1C0410A60416B0968CF
:1003E000426B526841EA0211426B926841EA022173
:1003F000426B928941EA0241426B128A41EA025100
:10040000426B127D41EA0261426B926911430268BC
:10041000521C9200A2F1C0421160C16AB1F5804F36
:100420001BD1816B0968826B526841EA0211826BB1
:10043000926841EA0221826B128A41EA0251826B80
:10044000127D41EA0261826B926911430268920057
:10045000A2F1C042C2F8041107E06FF070420168D7
:100460008900A1F1C041C1F8042170470021016059
:100470000221416000218160C160016141618161AF
:10048000C16101624FF480514162490081620021E3
:10049000C1620163F84941638163704751B18200D1
:1004A000A2F1C042126842F001038200A2F1C042F0
:1004B000136009E08200A2F1C0421268EF4B1A40BB
:1004C0008300A3F1C0431A60704710280AD1182195
:1004D0004FF020421166402151664FF0FC31916689
:1004E000D16610E01821E64A116040214FF0204209
:1004F000C2F884104FF0FC31E14A083211604FF02D
:100500002042C2F88C10704730B500210022002331
:10051000446844F0080485682C43C5682C43056989
:100520002C43456944EA4524856944EA4531C46958
:100530002468C5696D6844EA0524C5692D8944EAC3
:100540000544C5692D7B44EA0562046A2468056A8E
:100550006D6844EA0524056A2D8944EA0544056A64
:100560002D7B44EA05630468102C05D14FF020442C
:100570002166A266E36608E0C14C21604FF020448A
:10058000C4F88820BE4C0C34236030BD10210160BB
:10059000002141608160C160016141618161FC2194
:1005A000C2691160C2695160C2699160C269D1605B
:1005B000026A1160026A5160026A9160026AD16047
:1005C000704799B1102808D14FF02042126E42F0C6
:1005D00004024FF020431A661DE0A94A126842F057
:1005E00004024FF02043C3F8802014E0102809D102
:1005F0004FF02042126EA14BDB1E1A404FF02043F9
:100600001A6608E09E4A12689C4BDB1E1A404FF0A7
:100610002043C3F88020704799B1102808D14FF0CB
:100620002042126E42F040024FF020431A661DE055
:10063000934A126842F040024FF02043C3F88020F2
:1006400014E0102809D14FF02042126E8B4B3F3B33
:100650001A404FF020431A6608E0894A1268874B17
:100660003F3B1A404FF02043C3F8802070470146BB
:100670000020102903D14FF02042506F02E0804A41
:1006800014321068704718207D492031086000201E
:100690000906C1F8A4004FF0FC3079492831086000
:1006A000091D0860091D08607047016841F01001CC
:1006B000426841EA4221826841EA4231704A20326E
:1006C0001160C1680968C268526841EA0221C268C3
:1006D000128941EA0241C268127B41EA0261684A1A
:1006E00028321160016909680269526841EA0221F1
:1006F0000269128941EA02410269127B41EA026100
:100700005F4A2C321160416909684269526841EAC6
:1007100002214269128941EA02414269127B41EA9F
:1007200002614FF02042C2F8B01070470021016012
:1007300041608160FC21C2681160C2685160C2687A
:100740009160C268D16002691160026951600269FA
:1007500091600269D16042691160426951604269E9
:1007600091604269D160704748B1454920310968BC
:1007700041F004014FF02042C2F8A01009E04049C6
:10078000203109683D4AD21E11404FF02042C2F884
:10079000A010704710B5F2B1102807D14FF02043D8
:1007A0005B6E0B434FF02044636632E0B0F5807F10
:1007B00008D1334B1B1D1B680B434FF02044C4F87A
:1007C000843026E02E4B24331B680B434FF020442B
:1007D000C4F8A4301DE0102807D14FF020435B6E11
:1007E0008B434FF02044636613E0B0F5807F08D15F
:1007F000234B1B1D1B688B434FF02044C4F88430EF
:1008000007E01F4B24331B688B434FF02044C4F890
:10081000A43010BD10B5024600200023102A03D1D9
:100820004FF02044636E09E0B2F5807F03D1144C91
:10083000241D236802E0124C2434236803EA0104D7
:100840000CB1012000E0002010BD102807D14FF0AE
:100850002042526E8A434FF020435A6619E0B0F5A9
:10086000807F0FD1064A121D12688A434FF0204341
:10087000C3F884200DE00000B8670008FEFF0F00F9
:10088000800000A0234A12688A434FF02043C3F837
:10089000A420704770B502460020002300240025E4
:1008A000102A03D14FF02046736E08E0B2F5807F26
:1008B00003D1184E203E336801E0164E336803EA38
:1008C000010403EAD10514B10DB1012000E00020BC
:1008D00070BD102808D14FF02042526E22EAD1029A
:1008E0004FF020435A6614E0B0F5807F09D1094AE1
:1008F000203A126822EAD1024FF02043C3F8842044
:1009000007E0044A126822EAD1024FF02043C3F8FC
:10091000A4207047A40000A010B504469848844263
:1009200008D10121084600F086FB0021012000F0DB
:1009300082FB76E09348844208D10121022000F036
:100940007AFB0021022000F076FB6AE08E488442A8
:1009500008D10121042000F06EFB0021042000F0EA
:100960006AFB5EE08948844208D10121082000F03A
:1009700062FB0021082000F05EFB52E084488442C4
:1009800008D10121102000F056FB0021102000F0BA
:1009900052FB46E07F48844208D10121202000F02C
:1009A0004AFB0021202000F046FB3AE07A488442CE
:1009B00008D10121402000F03EFB0021402000F042
:1009C0003AFB2EE07548844208D10121802000F0D6
:1009D00032FB0021802000F02EFB22E07048844290
:1009E00008D10121801500F026FB0021A01500F0A0
:1009F00022FB16E06B48844208D10121401500F02B
:100A00001AFB0021601500F016FB0AE066488442DC
:100A100007D10121001500F00EFB0021201500F088
:100A20000AFB10BDF0B50A4600210023002400BFD8
:100A30003DE0012505FA01F3156805EA03049C422F
:100A400034D105684F000326BE40B54305601579D3
:100A50004E00B5400668354305601579012D02D07A
:100A60001579022D16D185684F000326BE40B54387
:100A7000856055794E00B540866835438560456888
:100A800001268E40B5434560456896798E40B6B2E2
:100A900035434560C5684F000326BE40B543C56079
:100AA000D5794E00B540C6683543C560491C10294C
:100AB000BFD3F0BD4FF6FF7101600021017141719C
:100AC0008171C171704708B54FF480320092009A6D
:100AD0000A430092009AC261C161009AC261C26970
:100AE0000092C269009208BD0246002013690B40C3
:100AF0000BB1012000E0002070470146086980B278
:100B000070470246002053690B400BB1012000E002
:100B1000002070470146486980B2704701837047E2
:100B2000418370470AB1018300E04183704741610E
:100B3000704742694A4042617047F0B50023002483
:100B40004D07ED0E02FA05F3CE1000F1200555F821
:100B500026504E07F70E0F26BE40B543CF1000F1CA
:100B6000200646F82750CE1000F1200555F82650F3
:100B700045EA0304CE1000F1200545F82640F0BDFB
:100B8000000002400004024000080240000C024045
:100B9000001002400014024000180240001C0240F5
:100BA000002002400024024000280240F94800686A
:100BB00040F00100F74908600020F649083108605C
:100BC000F4480068F4490840F2490860F348091DF8
:100BD0000860F348EF4984310860F0481038091D77
:100BE0000860EC48006820F48020EA490860002092
:100BF000E8490C310860E7498C31086070470021F2
:100C0000E44A921C117011460870704710B50146F5
:100C10000022002300204A11012A02D1DD4C236862
:100C200008E0022A03D1DB4C7034236802E0D94C7F
:100C30007434236801F01F02012494401C400CB15D
:100C4000012000E0002010BD38B5002000900024F5
:100C5000002500BF3120FFF7D9FF05460098401C52
:100C600000900098B0F5A04F01D0002DF2D03120B7
:100C7000FFF7CCFF08B1012400E00024204638BD76
:100C800001460020C34A106820F0F80040EAC10085
:100C900010607047C349086070470021BD4A703238
:100CA00011701170012802D004280AD104E001213A
:100CB000B84A7032117005E00521B64A70321170E1
:100CC00000E000BF00BF7047B7490860704770B5CB
:100CD000049C41EA82150126C6EB530645EA064507
:100CE000054345EA0465AB4E361D356070BDAD4920
:100CF00008667047820142EA0172A64B84331A608B
:100D00007047A8498866704710B5830143EA0163BC
:100D100043EA02739F4C8834236010BDA1490867E1
:100D20007047A049C864704702460020994B0833B9
:100D3000186820F0EC6042EA01031843954B083331
:100D40001860704702460020924B0833186820F064
:100D5000784042EA010318438E4B0833186070470D
:100D6000014600208B4A0832106820F00300084337
:100D70001060704787480830006800F00C0070472A
:100D800001460020834A0832106820F0F000084332
:100D900010607047014600207E4A0832106820F437
:100DA000E05008431060704701460020794A08323D
:100DB000106820F4604040EAC10010607047F0B550
:100DC000002100220024022500260223714F08374B
:100DD0003F6807F00C0121B1042905D0082937D15B
:100DE00005E0724F076036E0714F076033E0694FEE
:100DF0003F1D3F68C7F38056664F3F1D3F6807F0B1
:100E00003F036EB16A4FB7FBF3F7DFF888C10CF10F
:100E1000040CDCF800C0CCF3881C07FB0CF40CE0DD
:100E2000624FB7FBF3F7DFF86CC10CF1040CDCF890
:100E300000C0CCF3881C07FB0CF4564F3F1D3F68E5
:100E4000C7F301477F1C7D00B4FBF5F7076002E0A4
:100E5000564F076000BF00BF4E4F08373F6807F08E
:100E6000F0010909534F7A5C0768D7404760494F42
:100E700008373F6807F4E051890A4E4F7A5C4768AB
:100E8000D7408760434F08373F6807F46041490BFC
:100E9000484F7A5C4768D740C760F0BD002100F436
:100EA0004072B2F5407F0AD13A4A0832116821F403
:100EB000F811414A02401143364A08321160354A5E
:100EC00070321268C0F30B031A43324B70331A604E
:100ED00070473549443908607047334940390860E4
:100EE000704736490860704701460020294A8C3215
:100EF000106820F01F004A1E1043264A8C321060F2
:100F0000704701460020234A8C32106820F4F850C4
:100F10004A1E40EA02201F4A8C3210607047014688
:100F200000201C4A8C32106820F4401008431060E6
:100F3000704701460020174A8C32106820F44000A8
:100F400008431060704701460020124A8C32106836
:100F500020F440300843106070471949086070471A
:100F600039B10C4A3032126802430A4B30331A60EE
:100F700006E0084A303212688243064B30331A606A
:100F80007047F9B1034A343212680243014B3433DB
:100F90001A601CE000380240FFFFF6EA103000241F
:100FA0000030002000004742800E47420024F40039
:100FB00000127A0000000020FFFCFF0F5C01474296
:100FC000E01147428F4A126882438E4B1A60704785
:100FD00039B18C4A121D126802438A4B1B1D1A60DC
:100FE00006E0884A121D12688243864B1B1D1A6058
:100FF000704739B1834A0C3212680243814B0C337B
:101000001A6006E07F4A0C32126882437D4B0C3333
:101010001A60704739B17B4A103212680243794B2B
:1010200010331A6006E0774A103212688243754B1B
:1010300010331A60704739B1724A243A1268024379
:10104000704B243B1A6006E06E4A243A12688243D1
:101050006C4B243B1A60704739B16A4A203A1268D7
:101060000243684B203B1A6006E0664A203A126849
:101070008243644B203B1A60704739B1614A1C3A85
:10108000126802435F4B1C3B1A6006E05D4A1C3A43
:10109000126882435B4B1C3B1A60704739B1594A56
:1010A000143A12680243574B143B1A6006E0554A43
:1010B000143A12688243534B143B1A60704739B19B
:1010C000504A103A126802434E4B103B1A6006E039
:1010D0004C4A103A126882434A4B103B1A607047E0
:1010E00039B1484A1C3212680243464B1C331A601D
:1010F00006E0444A1C3212688243424B1C331A6099
:10110000704739B13F4A2032126802433D4B2033C9
:101110001A6006E03B4A203212688243394B203382
:101120001A60704739B1374A243212680243354B8E
:1011300024331A6006E0334A243212688243314B6A
:1011400024331A60704739B12E4A2C321268024398
:101150002C4B2C331A6006E02A4A2C321268824348
:10116000284B2C331A60704739B1264A3032126846
:101170000243244B30331A6006E0224A30321268B0
:101180008243204B30331A607047012808D11D4933
:101190003C31096841F008011A4A3C32116007E00D
:1011A00018493C31096821F00801164A3C321160A7
:1011B000704739B1134A273A12780243114B273B43
:1011C0001A7006E00F4A273A127882430D4B273BEC
:1011D0001A7070470B484030006840F08070094931
:1011E00040310860704701460020064A283A1268DC
:1011F0000A400AB1012000E0002070470149263969
:10120000087070473438024010B50446FA488442EA
:1012100008D101211020FFF752FF00211020FFF715
:101220004EFF57E0F548844209D101214804FFF7F9
:1012300035FF00214FF40030FFF730FF4AE0F0485F
:10124000844209D101218804FFF728FF00214FF4CF
:101250008020FFF723FF3DE0EA48844209D10121C5
:10126000C804FFF71BFF00214FF40020FFF716FF13
:1012700030E0E548844209D101210805FFF70EFF5F
:1012800000214FF48010FFF709FF23E0DF4884427C
:1012900008D101212020FFF712FF00212020FFF7B5
:1012A0000EFF17E0DA48844209D101218807FFF7D1
:1012B000F5FE00214FF08040FFF7F0FE0AE0D54830
:1012C000844207D101214005FFF7E8FE00216005B7
:1012D000FFF7E4FE10BD2DE9FF4705460E4600244A
:1012E000A14600BFA046B08900B100BF2C8A24F4FB
:1012F0004054F08804432C82AC8941F20C60844352
:10130000B08831890843718908430443AC81AC8AB1
:1013100024F44074B0890443AC826846FFF74FFD63
:10132000B548854202D0B948854202D1DDF80C901B
:1013300001E0DDF80890A88900F4004040B109EB15
:10134000C90000EB091031684900B0FBF1F707E074
:1013500009EBC90000EB091031688900B0FBF1F717
:101360006420B7FBF0F004012009642101FB107830
:10137000A88900F4004040B1322000EBC800B0FB67
:10138000F1F000F00700044308E0322000EB081001
:101390006421B0FBF1F000F00F0004432C81BDE8A4
:1013A000FF874FF41651016000218180C1800181C7
:1013B0000C21418100218181704710B50246002037
:1013C000108A20F470600B884C8823438C88234358
:1013D000CC8823431843108210BD00210180418036
:1013E0008180C180704721B1828942F4005282819C
:1013F00004E082894DF6FF731A4082817047028BA8
:1014000002F47F420283028B0A430283704721B1B8
:10141000828942F40042828103E08289C2F30E0293
:101420008281704721B1828A42F40062828204E0A4
:10143000828A4FF2FF731A4082827047C1F308021A
:101440008280704701468888C0F308007047028A8E
:101450004FF6F0731A400282028A0A4302827047F2
:1014600021B1828942F00202828104E082894FF632
:10147000FD731A408281704782894FF2FF731A40D0
:10148000828182890A4382817047028A4FF6DF7324
:101490001A400282028A0A430282704721B1028AFC
:1014A00042F48042028204E0028A4BF6FF731A4043
:1014B00002827047818941F001018181704721B129
:1014C000828A42F00802828204E0828A4FF6F77331
:1014D0001A4082827047028BD2B20283028B42EAA8
:1014E00001220283704721B1828A42F02002828267
:1014F00004E0828A4FF6DF731A408282704721B17E
:10150000828A42F01002828204E0828A4FF6EF73F0
:101510001A4082827047828A4FF6FB731A40828299
:10152000828A0A438282704721B1828A42F0020293
:10153000828204E0828A4FF6FD731A4082827047ED
:101540001AB1838A0B43838202E0838A8B438382AE
:101550007047F0B50346002400260025002040F621
:101560006A17B94200D100BF1846C1F3421401F016
:101570001F06012707FA06F5012C01D10C3004E003
:10158000022C01D1103000E014301AB107682F434B
:10159000076002E00768AF430760F0BD0246002025
:1015A000B1F5007F00D100BF13880B400BB10120C3
:1015B00000E00020704701F40072B2F5007F00D116
:1015C00000BFCA430280704770B502460024002362
:1015D0000025002040F66A16B14200D100BFC1F3D9
:1015E000421501F01F03012606FA03F3012D13D162
:1015F0009689334017E0000000100140004400408D
:1016000000480040004C00400050004000140140E1
:1016100000780040007C0040022D02D1168A334041
:1016200001E0968A33400C12012606FA04F416886B
:10163000344013B10CB1012000E0002070BD10B5A2
:101640000022002340F66A14A14200D100BF0A1212
:1016500001249440A3B2DC43048010BD704700BF56
:10166000FEE700BFFEE700BFFEE700BFFEE77047F2
:1016700070477047704700000CB500200190009043
:101680007648006840F480307449086000BF7348B1
:10169000006800F4003000900198401C0190009810
:1016A00018B90198B0F5A04FF1D16C48006800F46A
:1016B000003010B10120009001E00020009000985F
:1016C000012846D165484030006840F080506349A9
:1016D000403108606248006840F44040604908605A
:1016E0005E48083000685D490831086008460068B7
:1016F00040F4004008600846006840F4A0500860CC
:101700005848091F0860081F006840F08070091FD2
:10171000086000BF5148006800F000700028F9D050
:1017200040F20570504908604C480830006820F0CD
:1017300003004A49083108600846006840F002008A
:10174000086000BF45480830006800F00C00082819
:10175000F8D10CBD10B54548006840F4700043490D
:1017600008603E48006840F001003C4908600020E5
:101770003A4908310860394800683D49084037490E
:1017800008603C48091D0860081F006820F480209C
:10179000091F0860002031490C310860FFF76CFF19
:1017A0004FF0006031498039086010BD70B50020ED
:1017B0000022022300240221284D08352D6805F05F
:1017C0000C0020B1042806D0082834D107E02A4DA7
:1017D0002A4E356033E02A4D284E35602FE01F4DEC
:1017E0002D1D2D68C5F380541C4D2D1D2D6805F051
:1017F0003F0154B1224DB5FBF1F5184E361D366848
:10180000C6F3881605FB06F209E01B4DB5FBF1F5A2
:10181000124E361D3668C6F3881605FB06F20F4DCC
:101820002D1D2D68C5F301456D1C6B00B2FBF3F552
:10183000124E356003E0104D104E356000BF00BF02
:10184000064D08352D68C5F303150E4E705D0B4D22
:101850002D68C540094E356070BD0000003802405B
:101860000070004008544007003C024088ED00E052
:10187000FFFFF6FE103000240024F40010000020CA
:1018800000127A001400002010B504466FF0040026
:10189000FEF740FDE11704EB5171C1F3C701394A6E
:1018A00011701046007800EB4001C1EBC0104FF6FC
:1018B000FF7101EAC0003449088010BD0146314A79
:1018C00012784A434FF0E0235A6100229A611A4687
:1018D000126942F001021A6100BF4FF0E022106964
:1018E00000F001021AB100F48032002AF5D04FF066
:1018F000E022126922F001024FF0E0231A61002277
:101900009A6170470146204A12884A434FF0E0230B
:101910005A6100229A611A46126942F001021A6164
:1019200000BF4FF0E022106900F001021AB100F48C
:101930008032002AF5D04FF0E022126922F0010235
:101940004FF0E0231A6100229A61704770B5044697
:101950004FF4077094FBF0F0C6B24FF4077094FB9D
:10196000F0F100FB114085B205E04FF40770FFF77E
:10197000C9FF701EC6B2002EF7D115B12846FFF779
:10198000C1FF70BD2400002026000020014600BFDA
:10199000704700BF4E4A128802F04002002AF9D078
:1019A000C2B24B4B9A80704710B588B004460121F3
:1019B0000846FFF7D5FA01211020FFF72BFB07227D
:1019C00009214448FFF7B9F807220A214148FFF7E7
:1019D000B4F84FF4C060069002208DF81C008DF81A
:1019E0001D0000208DF81E0001208DF81F0006A9A3
:1019F0003848FFF717F802940020ADF80C00ADF856
:101A00000E00ADF81000ADF814000C20ADF8120077
:101A100002A92F48FFF75FFC01212D48FFF7E3FCE7
:101A200040212B48FFF7C7FD012240F225512848ED
:101A3000FFF78FFD25208DF8040003208DF80500A9
:101A40008DF8060001208DF8070001A8FEF715FCAF
:101A500008B010BD10B540F225511D48FFF7B4FD88
:101A600010B31B48FFF7EEFCC4B21B48008800F41B
:101A70000040C8B91848008800F4804060B10A2CC2
:101A800003D000201449088020E01348008840F467
:101A900000401149088019E00D2C06D10E4800883D
:101AA00040F480400C49088010E00B480088C0F3E7
:101AB0000D000A490C5408480088401C064908805B
:101AC00008460088C72801DD0020088010BD0000FE
:101AD00000100140000002402C00002034000020D3
:101AE0001CB501212020FFF73BFA4FF4C0600090A5
:101AF00001208DF8040000208DF8060003208DF8E9
:101B0000050001208DF8070069460448FEF78AFFAA
:101B10004FF4C0610148FFF701F81CBD00140240FA
:101B20001CB501211020FFF71BFA1820009000209F
:101B30008DF804008DF8060003208DF805000120C3
:101B40008DF8070069460248FEF76CFF1CBD0000D7
:101B500000100240FB480089FB490880704703B52C
:101B6000BDF80000F8490880BDF804004FF0D841E6
:101B7000A1F880000CBD01B5BDF800000090BDF8D3
:101B80000000F149891C088008BD01B5BDF80000BE
:101B90000090BDF80000EC49088008BD30B504464F
:101BA0000D46E848808849F24131884205D0E54831
:101BB000808845F21031884214D1E2494889FFF704
:101BC000E4FF2012FFF7D7FFE0B2FFF7D4FFDD49B3
:101BD0008889FFF7DAFF2812FFF7CDFFE8B2FFF799
:101BE000CAFF5DE0D748808846F6040188421DD1CF
:101BF000D4488079012804D1D2480088401E001BB7
:101C000084B2D0494889FFF7C0FF2012FFF7B3FF25
:101C1000E0B2FFF7B0FFCB498889FFF7B6FF281283
:101C2000FFF7A9FFE8B2FFF7A6FF39E0C5488088B3
:101C300045F21051884220D1C2494889FFF7A5FFDB
:101C40002012FFF798FFBF494989491C88B2FFF766
:101C50009CFFE0B2FFF78FFFBA498889FFF795FF35
:101C60002812FFF788FFB7498989491C88B2FFF716
:101C70008CFFE8B2FFF77FFF12E0B24880790128BD
:101C800004D1B0480088401E001B84B2AD49488989
:101C90002146FFF764FFAB4988892946FFF75FFFBC
:101CA00030BDF0B50746002435E000262FE004EBF8
:101CB0004400304481B20020FFF770FFFFF74AFF75
:101CC000002520E004EB840007EB401030F81500FD
:101CD00060B94FF6FF709C49891C08804FF0D841CD
:101CE000A1F880009849891C08800AE000209649E4
:101CF000891C08804FF0D841A1F880009249891CC6
:101D00000880681C85B2502DDCDB701C86B2032E67
:101D1000CDDB601C84B2502CC7DBF0BD70B504462F
:101D20000D4616468748808849F24131884205D0E1
:101D30008448808845F21031884214D1814948890D
:101D4000FFF723FF2012FFF716FFE0B2FFF713FFA4
:101D50007C498889FFF719FF2812FFF70CFFE8B2CA
:101D6000FFF709FF5DE07748808845F2105188420F
:101D700020D174494889FFF708FF2012FFF7FBFEC6
:101D800070494989491C88B2FFF7FFFEE0B2FFF7AE
:101D9000F2FE6C498889FFF7F8FE2812FFF7EBFE88
:101DA00068498989491C88B2FFF7EFFEE8B2FFF75E
:101DB000E2FE36E06348808846F6040188421DD181
:101DC00060488079012804D15E480088401E001BCD
:101DD00084B25C494889FFF7D8FE2012FFF7CBFE9A
:101DE000E0B2FFF7C8FE57498889FFF7CEFE2812F8
:101DF000FFF7C1FEE8B2FFF7BEFE12E0514880795E
:101E0000012804D14F480088401E001B84B24D4970
:101E100048892146FFF7A3FE4A4988892946FFF7EA
:101E20009EFE48480089484908804FF0D840A0F8F5
:101E3000806070BD2DE9F84F80460E4617461C465F
:101E4000B3462046E31704EB5373DB1021464FEAF9
:101E5000E47C04EB5C7C4FEAEC0CA4EBCC0CBCF116
:101E6000000F02D04FF0010C01E04FF0000C634472
:101E7000224604EBD27C4FEA6C0C03FB0CF3DBB282
:101E80000093A7F12000C7B2002556E00C2C07D123
:101E900007EB47002D4901EB800010F8059013E097
:101EA000102C05D12A4800EB071010F805900BE024
:101EB000182C07D107EBC700264901EB800010F86A
:101EC000059001E0BDE8F88F4FF0000A2FE009F01F
:101ED000800030B12048028831464046FFF71EFF9F
:101EE00007E00A9828B91D48028831464046FFF7A6
:101EF00015FF4FEA49604FEA1069701C86B211481D
:101F00004088B04200DCDDE7A6EB0B00A0420AD11E
:101F10005E4608F101001FFA80F80A480088404533
:101F200000DCCFE706E00AF1010000F0FF0ABAF199
:101F3000080FCCDB00BF681CC5B200988542A5DB4A
:101F400000BFBFE7FC0000207E00006CD4670008E3
:101F5000486C0008387200082E0000203000002075
:101F600010B50246012000E050430B00A1F101042E
:101F7000E1B2F9D110BD2DE9FE4F82460F469046E1
:101F80000026102500200290C34604E00A20BBFB77
:101F9000F0FB701CC6B2BBF1000FF7D1002438E093
:101FA000301B401EC1B20A20FFF7DAFFB8FBF0F089
:101FB0000A21B0FBF1F201FB12090298B0B9701EC0
:101FC000A04213DDB9F1000F0ED1002005EBD57151
:101FD000491001FB0471CDE9000588B22B4620228F
:101FE0005146FFF727FF12E001200290002005EB89
:101FF000D571491001FB0471CDE9000588B209F1E2
:102000003001CAB22B465146FFF714FF00BF601CD7
:10201000C4B2B442C4DBBDE8FE8F08B5FE480088F8
:102020000090BDF8000008BD01B5BDF80000FFF745
:10203000ACFD0520FFF742FCFFF7EFFF08BDF649B6
:102040000880704730B5014601F01F04C1F3451305
:10205000CA0AE50205EB43151544A8B230BD00BF1E
:102060000100A0F10102D0B2FAD170473EB504469A
:102070000D460020029001900090E8480088A042A0
:1020800003DDE6484088A84201DC00203EBD294629
:102090002046FFF783FDE148808849F241318842BC
:1020A0000BD0DE48808846F60401884205D0DB4824
:1020B000808845F21031884203D12E20FFF765FD5C
:1020C0000DE0D648808845F21051884204D14FF483
:1020D0003850FFF75AFD02E02220FFF756FDCF48A7
:1020E000808849F22031884202D10220FFF7B7FFF1
:1020F000FFF793FF0220FFF7B2FFFFF78EFF02907A
:10210000C648808849F2413188420BD0C348808854
:1021100045F21031884205D0C048808845F2105100
:10212000884210D10220FFF79AFFFFF776FF009058
:10213000BDF80800C0B20190BDF804004FF6FF7171
:1021400001EA00200190B548808849F22531884293
:1021500016D0B248808844F23551884210D0AF483A
:102160008088091F88420BD0AC4880884BF205510B
:10217000884205D0A94880884CF20551884202D196
:10218000BDF8080082E7A548808849F241318842BD
:102190000BD0A248808845F21031884205D09F4874
:1021A000808845F2105188420DD1BDF80800C01258
:1021B000C002BDF80410891240EA4110BDF80010B9
:1021C00040EAE12062E7BDF80800FFF73BFF5DE76A
:1021D00000B59248808849F2413188420BD08F483F
:1021E000808846F60401884205D08C48808845F2F4
:1021F0001031884203D12920FFF7C7FC0FE0874840
:10220000808845F21051884204D14FF42450FFF7E2
:10221000BCFC04E040F273110720FFF7A0FC00BDF6
:1022200000B57E48808849F2413188420BD07B4816
:10223000808846F60401884205D07848808845F2B7
:102240001031884203D12820FFF79FFC0EE073482D
:10225000808845F21051884204D14FF42050FFF796
:1022600094FC03E000210720FFF779FC00BD2DE975
:10227000F04305460024A1466848807901281ED114
:102280006648808846F60401884218D0082D15D289
:10229000DFE805F00406080A0C0E101206250DE012
:1022A00007250BE0042509E0052507E0012505E0E9
:1022B000002503E0032501E0022500BF00BF5748C9
:1022C000808849F24131884211D05448808846F6CE
:1022D000040188420BD05148808845F21031884271
:1022E00005D04E48808845F21051884278D1082D9B
:1022F0001CD2DFE805F00406090C0F12151800BF08
:1023000014E044F0800411E044F040040EE044F096
:10231000C0040BE044F0200408E044F0600405E051
:1023200044F0A00402E044F0E00400BF00BF3B48DA
:10233000808845F21051884202D14FF4585901E08B
:102340004FF036093548808845F21031884207D071
:102350003248808845F21051884201D044F0080488
:102360002E48808846F60401884201D144F00204D8
:1023700021464846FFF7F3FB04F0200018B9274830
:10238000807901280FD1254800882449498888424E
:1023900018DA2248B0F800804088204908800846B2
:1023A000A0F802800EE01D4800881C494988884238
:1023B00008DD1A48B0F800804088184908800846AF
:1023C000A0F802801548807901280AD11348808836
:1023D00046F60401884204D010484688078803E086
:1023E0007FE00E48068847880C48808845F21051E7
:1023F00088424FD109494889FFF7C7FB0020FFF702
:10240000BAFB06494989491C88B2FFF7BEFB002088
:10241000FFF7B1FB014903E08000006CFC000020E5
:102420004989891C88B2FFF7B0FB711EC1F30F20E8
:10243000FFF7A1FBFE494989C91C88B2FFF7A5FB3C
:10244000711EC8B2FFF797FBF9498889FFF79DFB1A
:102450000020FFF790FBF6498989491C88B2FFF7F5
:1024600094FB0020FFF787FBF1498989891C88B21A
:10247000FFF78BFB791EC1F30F20FFF77CFBEC49C4
:102480008989C91C88B2FFF780FB791EC8B2FFF7A3
:1024900072FB5AE0E6494889FFF777FB0020FFF717
:1024A0006AFB0020FFF767FB711EC1F30F20FFF7E7
:1024B00062FB711EC8B2FFF75EFBDD498889FFF73A
:1024C00064FB0020FFF757FB0020FFF754FB791E49
:1024D000C1F30F20FFF74FFB791EC8B2FFF74BFB8C
:1024E00033E0082D1CD2DFE805F004070A0D0F12B7
:1024F000151844F0300413E044F0100410E044F0E8
:1025000020040DE000BF0BE044F0380408E044F084
:10251000280405E044F0180402E044F0080400BF79
:1025200000BFC348808848F68911884205D14FF022
:10253000110946F24000044303E04FF0030944F45C
:10254000805421464846FFF70AFBBDE8F08330B5CA
:1025500004460D4629462046FFF720FBFFF7FAFA0E
:10256000B4480088B449088030BD10B50446002C3A
:1025700052D1AF498871F02008804FF4A070488094
:102580000846808849F2413188420BD0A8488088AB
:1025900046F60401884205D0A548808845F21031EE
:1025A00088421AD12C20A24908812A2048812B2058
:1025B00088810846808846F60401884205D09C48F8
:1025C000808845F21031884206D14FF4A0709849B6
:1025D00008804FF4F070488079E09548808845F293
:1025E0001051884210D14FF43050914908814FF476
:1025F000285048814FF42C5088814FF4F0700880A7
:102600004FF44870488062E02220894908812020E8
:102610004881212088815AE00120854988714FF442
:10262000A0700880F02048800846808849F2413137
:10263000884205D07E48808845F21031884207D113
:102640002C207B4908812A2048812B2088812BE07F
:102650007748808846F60401884207D12C207449C7
:1026600008812B2048812A2088811DE070488088BD
:1026700045F21051884210D14FF430506C49088116
:102680004FF4285048814FF42C5088814FF4487003
:1026900008804FF4F070488006E0222064490881E9
:1026A00021204881202088816148808846F60401E5
:1026B000884205D05E48808845F21031884206D1B4
:1026C0004FF4F0705A4908804FF4A0704880002001
:1026D000FFF7CDFD10BD2DE9FF4F04460D46164610
:1026E0001F46A019401E86B2E819401E87B2504806
:1026F000808849F2413188420BD04D48808845F2AC
:102700001031884205D04A48808846F60401884244
:1027100020D147494889FFF738FA2012FFF72BFAF2
:10272000E0B2FFF728FA3012FFF725FAF0B2FFF710
:1027300022FA3F498889FFF728FA2812FFF71BFA87
:10274000E8B2FFF718FA3812FFF715FAF8B2FFF7F8
:1027500012FA85E03648808845F21051884244D10B
:1027600033494889FFF711FA2012FFF704FA30497C
:102770004989491C88B2FFF708FAE0B2FFF7FBF974
:102780002B494989891C88B2FFF7FFF93012FFF7FE
:10279000F2F927494989C91C88B2FFF7F6F9F0B266
:1027A000FFF7E9F922498889FFF7EFF92812FFF7C7
:1027B000E2F91F498989491C88B2FFF7E6F9E8B2B6
:1027C000FFF7D9F91A498989891C88B2FFF7DDF921
:1027D0003812FFF7D0F916498989C91C88B2FFF76A
:1027E000D4F9F8B2FFF7C7F93AE011488079012827
:1027F0000ED1A846B9460E480088801B401E1FFA1D
:1028000080FA0B480088001B401E1FFA80FB03E083
:10281000A046B146AA46BB465020039051200290E4
:1028200052200190532000904146039806E000009A
:10283000FC0000202E0000208000006CFFF78FF9C4
:1028400049460298FFF78BF951460198FFF787F93F
:1028500059460098FFF783F929462046FFF79EF96D
:10286000BDE8FF8F70B504460026FE480588408805
:102870004543FC48808846F60401884216D1F94851
:102880008079012812D10020F64988712A204881D8
:102890002B20888100210846FFF780F90120F149AB
:1028A00088712B2048812A20888103E00021084676
:1028B000FFF774F9FFF74EF9002602E0EA480480BA
:1028C000761CAE42FAD370BD00B5A1B000202090B6
:1028D00001217A20FEF744FB01210846FEF778FB30
:1028E0004FF400401E9001208DF87C0000208DF8F0
:1028F0007E0002208DF87D0001208DF87F001EA94A
:10290000DA48FEF78FF84CF233701E9002208DF8F3
:102910007C0000208DF87E0003208DF87D000120D2
:102920008DF87F001EA9D248FEF77CF84FF6807024
:102930001E9002208DF87C0000208DF87E00032080
:102940008DF87D0001208DF87F001EA9C948FEF793
:1029500069F84FF480501E9002208DF87C00002012
:102960008DF87E0003208DF87D0001208DF87F001A
:102970001EA9C148FEF756F84FF480501E90022061
:102980008DF87C0000208DF87E0003208DF87D00FE
:1029900001208DF87F001EA9B848FEF743F80C22ED
:1029A0000021B348FEF7C9F80C220121B048FEF718
:1029B000C4F80C220421AE48FEF7BFF80C22052112
:1029C000AB48FEF7BAF80C220821A948FEF7B5F883
:1029D0000C220921A648FEF7B0F80C220A21A448CF
:1029E000FEF7ABF80C220E21A148FEF7A6F80C2248
:1029F0000F219F48FEF7A1F80C2207219D48FEF702
:102A00009CF80C2208219B48FEF797F80C2209211C
:102A10009848FEF792F80C220A219648FEF78DF8A6
:102A20000C220B219348FEF788F80C22114691489E
:102A3000FEF783F80C220D218E48FEF77EF80C225B
:102A40000E218C48FEF779F80C220F218948FEF7F9
:102A500074F80C2211468848FEF76FF80C221146D4
:102A60008648FEF76AF80F20089000200990182089
:102A70000A9000200B900C900D900E900820019071
:102A800000200290082003900020049005900690FA
:102A9000079006200F9000201090119010201290A7
:102AA0000020139015901490169017904FF48050BA
:102AB0001890002019904FF480401A9000201B902D
:102AC00008A81C9001A81D900FA8FDF75CFC01212F
:102AD0000620FDF7E3FC3220FEF738FF012100203D
:102AE000FFF73DF83220FEF731FF0020FFF79CFA98
:102AF0005C49888008468088FF280ADB0846808871
:102B00004FF6FF71884204D056488088B0F5134FC5
:102B10007ED1D320FFF739F8FFF77FFA514988803B
:102B2000FFF77BFA4F498880FFF777FA4D49888095
:102B3000084680884FF6FF7101EA002049498880E5
:102B4000FFF76BFA47498988084346498880084659
:102B5000808849F24131884278D0BF20FFF715F8CC
:102B6000FFF75BFA3F498880FFF757FA3D498880B5
:102B7000FFF753FA3B498880FFF74FFA39498880BD
:102B8000084680884FF6FF7101EA002035498880A9
:102B9000FFF743FA33498988084332498880084659
:102BA000808846F60401884250D0D420FEF7EDFF1D
:102BB000FFF733FA2B498880FFF72FFA29498880DD
:102BC000FFF72BFA27498880084680884FF6FF7167
:102BD00001EA002023498880FFF71FFA21498988EC
:102BE0000843204988800846808845F21031884291
:102BF0002CD04FF45A40FEF7C8FFFFF70EFA1949E0
:102C000088804FF45B40FEF7C0FFFFF706FA00E054
:102C10001CE014498880084680884FF6FF7101EA5D
:102C20000020104988804FF45C40FEF7AEFFFFF7AC
:102C3000F4F90C49898808430A4988800846808845
:102C4000B0F5004F02D145F21050888005488088C9
:102C500049F2413188421AD00248808845F2103149
:102C600088420DE0FC0000208000006C000402405F
:102C7000000C024000100240001402400018024004
:102C800005D0FB48808845F2105188421DD1F94893
:102C9000006820F00F004FF02041C1F81C010846E9
:102CA000D0F81C0120F47060C1F81C010846D0F86F
:102CB0001C0140F00300C1F81C010846D0F81C01BB
:102CC00040F40070C1F81C0128E0E948808846F60D
:102CD0000401884205D0E64880884CF205518842BC
:102CE0001CD1E448006820F00F004FF02041C1F8EB
:102CF0001C010846D0F81C0120F47060C1F81C01CA
:102D00000846D0F81C0140F00A00C1F81C01084632
:102D1000D0F81C0140F44060C1F81C01D4488188FF
:102D2000D5A003F01BFCD248808849F2413188428B
:102D30007ED1CF20FEF729FF0020FEF71CFF209850
:102D4000401C2090C120FEF716FF3020FEF713FF35
:102D5000ED20FEF71AFF6420FEF70DFF0320FEF7BB
:102D60000AFF1220FEF707FF8120FEF704FFE8208C
:102D7000FEF70BFF8520FEF7FEFE1020FEF7FBFEA0
:102D80007A20FEF7F8FECB20FEF7FFFE3920FEF793
:102D9000F2FE2C20FEF7EFFE0020FEF7ECFE3420C2
:102DA000FEF7E9FE0220FEF7E6FEF720FEF7EDFE55
:102DB0002020FEF7E0FEEA20FEF7E7FE0020FEF707
:102DC000DAFE0020FEF7D7FEC020FEF7DEFE1B2055
:102DD000FEF7D1FEC120FEF7D8FE0120FEF7CBFEA4
:102DE000C520FEF7D2FE3020FEF7C5FE3020FEF7EC
:102DF000C2FEC720FEF7C9FEB720FEF7BCFE362094
:102E0000FEF7C3FE4820FEF7B6FE3A20FEF7BDFEF1
:102E10005520FEF7B0FEB120FEF7B7FE0020FEF70A
:102E2000AAFE1A20FEF7A7FEB620FEF7AEFE00E0CF
:102E30009AE00A20FEF79FFEA220FEF79CFEF220F9
:102E4000FEF7A3FE0020FEF796FE2620FEF79DFE6D
:102E50000120FEF790FEE020FEF797FE0F20FEF720
:102E60008AFE2A20FEF787FE2820FEF784FE08202F
:102E7000FEF781FE0E20FEF77EFE0820FEF77BFEA9
:102E80005420FEF778FEA920FEF775FE4320FEF7DA
:102E900072FE0A20FEF76FFE0F20FEF76CFE002088
:102EA000FEF769FE0020FEF766FE0020FEF763FED7
:102EB0000020FEF760FEE120FEF767FE0020FEF72F
:102EC0005AFE1520FEF757FE1720FEF754FE072086
:102ED000FEF751FE1120FEF74EFE0620FEF74BFED8
:102EE0002B20FEF748FE5620FEF745FE3C20FEF75D
:102EF00042FE0520FEF73FFE1020FEF73CFE0F20AD
:102F0000FEF739FE3F20FEF736FE3F20FEF733FE88
:102F10000F20FEF730FE2B20FEF737FE0020FEF7D5
:102F20002AFE0020FEF727FE0120FEF724FE3F20A8
:102F3000FEF721FE2A20FEF728FE0020FEF71BFEEA
:102F40000020FEF718FE0020FEF715FEEF20FEF72A
:102F500012FE1120FEF719FE7820FEF7F7FC29205B
:102F6000FEF713FE03F068B84148808846F6040176
:102F700088427CD11120FEF708FE1420FEF7E6FC03
:102F8000D020FEF702FE0720FEF7F5FD4220FEF7F7
:102F9000F2FD1D20FEF7EFFDD120FEF7F6FD00202B
:102FA000FEF7E9FD1A20FEF7E6FD0920FEF7E3FD36
:102FB000D220FEF7EAFD0120FEF7DDFD2220FEF71C
:102FC000DAFDC020FEF7E1FD1020FEF7D4FD3B2026
:102FD000FEF7D1FD0020FEF7CEFD0220FEF7CBFD6F
:102FE0001120FEF7C8FDC520FEF7CFFD0320FEF738
:102FF000C2FDC820FEF7C9FD0020FEF7BCFD25205C
:10300000FEF7B9FD2120FEF7B6FD0520FEF7B3FD62
:103010000020FEF7B0FD0A20FEF7ADFD6520FEF7AB
:10302000AAFD2520FEF7A7FD7720FEF7A4FD50207E
:10303000FEF7A1FD0F20FEF79EFD0020FEF79BFD91
:10304000F820FEF7A2FD0120FEF795FDFE20FEF719
:103050009CFD0020FEF78FFD0220FEF78CFD202056
:10306000FEF793FD3620FEF790FD08200CE038E0D7
:10307000FC0000201C0100A0204C43442049443A9D
:1030800025780D0A00000000FEF775FD3A20FEF7D6
:103090007CFD5520FEF76FFD2B20FEF776FD00200E
:1030A000FEF769FD0020FEF766FD0120FEF763FDD7
:1030B0003F20FEF760FD2A20FEF767FD0020FEF7A7
:1030C0005AFD0020FEF757FD0120FEF754FDDF20DA
:1030D000FEF751FD7820FEF739FC2920FEF755FD5B
:1030E00040E7FE48808845F21031884240F07C87F6
:1030F000ED20FEF74AFD0120FEF73DFDFE20FEF724
:103100003AFDEE20FEF741FDDE20FEF734FD2120E2
:10311000FEF731FDF120FEF738FD0120FEF72BFD13
:10312000DF20FEF732FD1020FEF725FDC420FEF75C
:103130002CFD8F20FEF71FFDC620FEF726FD002088
:10314000FEF719FDE220FEF716FDE220FEF713FD63
:10315000E220FEF710FDBF20FEF717FDAA20FEF7C4
:103160000AFDB020FEF711FD0D20FEF704FD002042
:10317000FEF701FD0D20FEF7FEFC0020FEF7FBFC34
:103180001120FEF7F8FC0020FEF7F5FC1920FEF7F1
:10319000F2FC0020FEF7EFFC2120FEF7ECFC002003
:1031A000FEF7E9FC2D20FEF7E6FC0020FEF7E3FC2D
:1031B0003D20FEF7E0FC0020FEF7DDFC5D20FEF781
:1031C000DAFC0020FEF7D7FC5D20FEF7D4FC0020DF
:1031D000FEF7D1FCB120FEF7D8FC8020FEF7CBFC37
:1031E0000020FEF7C8FC8B20FEF7C5FC0020FEF790
:1031F000C2FC9620FEF7BFFC0020FEF7BCFCB2200C
:10320000FEF7C3FC0020FEF7B6FC0020FEF7B3FC7F
:103210000220FEF7B0FC0020FEF7ADFC0320FEF715
:10322000AAFC0020FEF7A7FCB320FEF7AEFC0020AE
:10323000FEF7A1FC0020FEF79EFC0020FEF79BFCA1
:103240000020FEF798FC0020FEF795FC0020FEF71A
:1032500092FC0020FEF78FFC0020FEF78CFC002083
:10326000FEF789FC0020FEF786FC0020FEF783FCB9
:103270000020FEF780FC0020FEF77DFC0020FEF71A
:103280007AFC0020FEF777FC0020FEF774FC00209B
:10329000FEF771FC0020FEF76EFC0020FEF76BFCD1
:1032A0000020FEF768FC0020FEF765FC0020FEF71A
:1032B00062FC0020FEF75FFC0020FEF75CFCB420FF
:1032C000FEF763FC8B20FEF756FC0020FEF753FC54
:1032D0009620FEF750FC0020FEF74DFCA120FEF7E3
:1032E0004AFC0020FEF747FCB520FEF74EFC02200A
:1032F000FEF741FC0020FEF73EFC0320FEF73BFCFE
:103300000020FEF738FC0420FEF735FC0020FEF715
:1033100032FCB620FEF739FC0020FEF72CFC002022
:10332000FEF729FCB720FEF730FC0020FEF723FC57
:103330000020FEF720FC3F20FEF71DFC0020FEF7DA
:103340001AFC5E20FEF717FC0020FEF714FC642038
:10335000FEF711FC0020FEF70EFC8C20FEF70BFCA4
:103360000020FEF708FCAC20FEF705FC0020FEF76D
:1033700002FCDC20FEF7FFFB0020FEF7FCFB7020C8
:10338000FEF7F9FB0020FEF7F6FB9020FEF7F3FBBB
:103390000020FEF7F0FBEB20FEF7EDFB0020FEF730
:1033A000EAFBDC20FEF7E7FB0020FEF7E4FBB82099
:1033B000FEF7EBFB0020FEF7DEFB0020FEF7DBFB59
:1033C0000020FEF7D8FB0020FEF7D5FB0020FEF71B
:1033D000D2FB0020FEF7CFFB0020FEF7CCFB002045
:1033E000FEF7C9FBBA20FEF7D0FB2420FEF7C3FB93
:1033F0000020FEF7C0FB0020FEF7BDFB0020FEF71B
:10340000BAFBC120FEF7C1FB2020FEF7B4FB002071
:10341000FEF7B1FB5420FEF7AEFB0020FEF7ABFB3E
:10342000FF20FEF7A8FB0020FEF7A5FBC220FEF759
:10343000ACFB0A20FEF79FFB0020FEF79CFB04205C
:10344000FEF799FB0020FEF796FBC320FEF79DFBDD
:103450003C20FEF790FB0020FEF78DFB3A20FEF7A4
:103460008AFB0020FEF787FB3920FEF784FB002053
:10347000FEF781FB3720FEF77EFB0020FEF77BFB8B
:103480003C20FEF778FB0020FEF775FB3620FEF7A8
:1034900072FB0020FEF76FFB3220FEF76CFB002072
:1034A000FEF769FB2F20FEF766FB0020FEF763FBAB
:1034B0002C20FEF760FB0020FEF75DFB2920FEF7C5
:1034C0005AFB0020FEF757FB2620FEF754FB002096
:1034D000FEF751FB2420FEF74EFB01E0FC0000202C
:1034E0000020FEF748FB2420FEF745FB0020FEF7F6
:1034F00042FB2320FEF73FFB0020FEF73CFB3C2075
:10350000FEF739FB0020FEF736FB3620FEF733FBD3
:103510000020FEF730FB3220FEF72DFB0020FEF7E7
:103520002AFB2F20FEF727FB0020FEF724FB2C2090
:10353000FEF721FB0020FEF71EFB2920FEF71BFBF8
:103540000020FEF718FB2620FEF715FB0020FEF7F3
:1035500012FB2420FEF70FFB0020FEF70CFB2420BB
:10356000FEF709FB0020FEF706FB2320FEF703FB16
:103570000020FEF700FBC420FEF707FB6220FEF7E9
:10358000FAFA0020FEF7F7FA0520FEF7F4FA002019
:10359000FEF7F1FA8420FEF7EEFA0020FEF7EBFAD0
:1035A000F020FEF7E8FA0020FEF7E5FA1820FEF713
:1035B000E2FA0020FEF7DFFAA420FEF7DCFA002092
:1035C000FEF7D9FA1820FEF7D6FA0020FEF7D3FA54
:1035D0005020FEF7D0FA0020FEF7CDFA0C20FEF7BF
:1035E000CAFA0020FEF7C7FA1720FEF7C4FA002037
:1035F000FEF7C1FA9520FEF7BEFA0020FEF7BBFAEF
:10360000F320FEF7B8FA0020FEF7B5FAE620FEF741
:10361000B2FA0020FEF7AFFAC520FEF7B6FA322064
:10362000FEF7A9FA0020FEF7A6FA4420FEF7A3FA57
:103630000020FEF7A0FA6520FEF79DFA0020FEF7B5
:103640009AFA7620FEF797FA0020FEF794FA88207F
:10365000FEF791FA0020FEF78EFAC620FEF795FAE3
:103660002020FEF788FA0020FEF785FA1720FEF7E3
:1036700082FA0020FEF77FFA0120FEF77CFA002094
:10368000FEF779FAC720FEF780FA0020FEF773FAFA
:103690000020FEF770FA0020FEF76DFA0020FEF71A
:1036A0006AFAC820FEF771FA0020FEF764FA0020DB
:1036B000FEF761FA0020FEF75EFA0020FEF75BFAE3
:1036C000C920FEF762FA0020FEF755FA0020FEF747
:1036D00052FA0020FEF74FFA0020FEF74CFA0020C5
:1036E000FEF749FA0020FEF746FA0020FEF743FAFB
:1036F0000020FEF740FA0020FEF73DFA0020FEF71A
:103700003AFA0020FEF737FA0020FEF734FA0020DC
:10371000FEF731FA0020FEF72EFA0020FEF72BFA12
:103720000020FEF728FAE020FEF72FFA1620FEF719
:1037300022FA0020FEF71FFA1C20FEF71CFA0020D8
:10374000FEF719FA2120FEF716FA0020FEF713FA09
:103750003620FEF710FA0020FEF70DFA4620FEF79D
:103760000AFA0020FEF707FA5220FEF704FA0020BA
:10377000FEF701FA6420FEF7FEF90020FEF7FBF9E0
:103780007A20FEF7F8F90020FEF7F5F98B20FEF716
:10379000F2F90020FEF7EFF99920FEF7ECF900208E
:1037A000FEF7E9F9A820FEF7E6F90020FEF7E3F9B5
:1037B000B920FEF7E0F90020FEF7DDF9C420FEF79E
:1037C000DAF90020FEF7D7F9CA20FEF7D4F9002075
:1037D000FEF7D1F9D220FEF7CEF90020FEF7CBF9A3
:1037E000D920FEF7C8F90020FEF7C5F9E020FEF762
:1037F000C2F90020FEF7BFF9F320FEF7BCF9002064
:10380000FEF7B9F9E120FEF7C0F91620FEF7B3F98B
:103810000020FEF7B0F91C20FEF7ADF90020FEF7FE
:10382000AAF92220FEF7A7F90020FEF7A4F9362016
:10383000FEF7A1F90020FEF79EF94520FEF79BF95F
:103840000020FEF798F95220FEF795F90020FEF7C8
:1038500092F96420FEF78FF90020FEF78CF97A20A8
:10386000FEF789F90020FEF786F98B20FEF783F931
:103870000020FEF780F99920FEF77DF90020FEF781
:103880007AF9A820FEF777F90020FEF774F9B9203D
:10389000FEF771F90020FEF76EF9C420FEF76BF910
:1038A0000020FEF768F9CA20FEF765F90020FEF750
:1038B00062F9D220FEF75FF90020FEF75CF9D8200C
:1038C000FEF759F90020FEF756F9E020FEF753F90C
:1038D0000020FEF750F9F320FEF74DF90020FEF727
:1038E0004AF9E220FEF751F90520FEF744F90020DD
:1038F000FEF741F90B20FEF73EF90020FEF73BF9F9
:103900001B20FEF738F90020FEF735F93420FEF7CA
:1039100032F90020FEF72FF94420FEF72CF90020A1
:10392000FEF729F94F20FEF726F90020FEF723F9CC
:103930006120FEF720F90020FEF71DF97920FEF73F
:103940001AF90020FEF717F98820FEF714F9002075
:10395000FEF711F99720FEF70EF90020FEF70BF99C
:10396000A620FEF708F90020FEF705F9B720FEF7BC
:1039700002F90020FEF7FFF8C220FEF7FCF8002055
:10398000FEF7F9F8C720FEF7F6F80020FEF7F3F887
:10399000D120FEF7F0F80020FEF7EDF8D620FEF774
:1039A000EAF80020FEF7E7F8DD20FEF7E4F8002053
:1039B000FEF7E1F8F320FEF7DEF80020FEF7DBF873
:1039C000E320FEF7E2F80520FEF7D5F80020FEF729
:1039D000D2F80A20FEF7CFF80020FEF7CCF81C2022
:1039E000FEF7C9F80020FEF7C6F83320FEF7C3F84B
:1039F0000020FEF7C0F84420FEF7BDF80020FEF7D7
:103A0000BAF85020FEF7B7F80020FEF7B4F86220AD
:103A1000FEF7B1F80020FEF7AEF87820FEF7ABF81D
:103A20000020FEF7A8F88820FEF7A5F80020FEF792
:103A3000A2F89720FEF79FF80020FEF79CF8A6203A
:103A4000FEF799F80020FEF796F8B720FEF793F8F6
:103A50000020FEF790F8C220FEF78DF80020FEF758
:103A60008AF8C720FEF787F80020FEF784F8D120F7
:103A7000FEF781F80020FEF77EF8D520FEF77BF8F0
:103A80000020FEF778F8DD20FEF775F80020FEF73D
:103A900072F8F320FEF76FF80020FEF76CF8E420D0
:103AA000FEF773F80120FEF766F80020FEF763F8D2
:103AB0000120FEF760F80020FEF75DF80220FEF717
:103AC0005AF80020FEF757F82A20FEF754F8002095
:103AD000FEF751F83C20FEF74EF80020FEF74BF8B9
:103AE0004B20FEF748F80020FEF745F85D20FEF772
:103AF00042F80020FEF73FF87420FEF73CF8002063
:103B0000FEF739F88420FEF736F80020FEF733F888
:103B10009320FEF730F80020FEF72DF8A220FEF7E4
:103B20002AF80020FEF727F8B320FEF724F800203B
:103B3000FEF721F8BE20FEF71EF80020FEF71BF866
:103B4000C420FEF718F80020FEF715F8CD20FEF788
:103B500012F80020FEF70FF8D320FEF70CF8002033
:103B6000FEF709F8DD20FEF706F80020FEF703F85F
:103B7000F320FEF700F80020FDF7FDFFE520FEF73B
:103B800004F80020FDF7F7FF0020FDF7F4FF002008
:103B9000FDF7F1FF0020FDF7EEFF0220FDF7EBFF40
:103BA0000020FDF7E8FF2920FDF7E5FF0020FDF7E5
:103BB000E2FF3C20FDF7DFFF0020FDF7DCFF4B209C
:103BC000FDF7D9FF0020FDF7D6FF5D20FDF7D3FFFD
:103BD0000020FDF7D0FF7420FDF7CDFF0020FDF79A
:103BE000CAFF8420FDF7C7FF0020FDF7C4FF932024
:103BF000FDF7C1FF0020FDF7BEFFA220FDF7BBFFD0
:103C00000020FDF7B8FFB320FDF7B5FF0020FDF75A
:103C1000B2FFBE20FDF7AFFF0020FDF7ACFFC420D0
:103C2000FDF7A9FF0020FDF7A6FFCD20FDF7A3FFBC
:103C30000020FDF7A0FFD320FDF79DFF0020FDF73A
:103C40009AFFDC20FDF797FF0020FDF794FFF3209B
:103C5000FDF791FF0020FDF78EFFE620FDF795FFB1
:103C60001120FDF788FF0020FDF785FF3420FDF7C8
:103C700082FF0020FDF77FFF5620FDF77CFF00202C
:103C8000FDF779FF7620FDF776FF0020FDF773FF43
:103C90007720FDF770FF0020FDF76DFF6620FDF730
:103CA0006AFF0020FDF767FF8820FDF764FF002012
:103CB000FDF761FF9920FDF75EFF0020FDF75BFF38
:103CC000BB20FDF758FF0020FDF755FF9920FDF7B9
:103CD00052FF0020FDF74FFF6620FDF74CFF00204C
:103CE000FDF749FF5520FDF746FF0020FDF743FF94
:103CF0005520FDF740FF0020FDF73DFF4520FDF773
:103D00003AFF0020FDF737FF4320FDF734FF002086
:103D1000FDF731FF4420FDF72EFF0020FDF72BFFBC
:103D2000E720FDF732FF3220FDF725FF0020FDF7E9
:103D300022FF5520FDF71FFF0020FDF71CFF762016
:103D4000FDF719FF0020FDF716FF6620FDF713FFB2
:103D50000020FDF710FF6720FDF70DFF0020FDF7A5
:103D60000AFF6720FDF707FF0020FDF704FF87200B
:103D7000FDF701FF0020FDF7FEFE9920FDF7FBFE99
:103D80000020FDF7F8FEBB20FDF7F5FE0020FDF753
:103D9000F2FE9920FDF7EFFE0020FDF7ECFE772004
:103DA000FDF7E9FE0020FDF7E6FE4420FDF7E3FE07
:103DB0000020FDF7E0FE5620FDF7DDFE0020FDF7B8
:103DC000DAFE2320FDF7D7FE0020FDF7D4FE3320D6
:103DD000FDF7D1FE0020FDF7CEFE4520FDF7CBFE1E
:103DE0000020FDF7C8FEE820FDF7CFFE0020FDF71C
:103DF000C2FE0020FDF7BFFE9920FDF7BCFE0020AB
:103E0000FDF7B9FE8720FDF7B6FE0020FDF7B3FEF3
:103E10008820FDF7B0FE0020FDF7ADFE7720FDF70E
:103E2000AAFE0020FDF7A7FE6620FDF7A4FE0020F5
:103E3000FDF7A1FE8820FDF79EFE0020FDF79BFE0A
:103E4000AA20FDF798FE0020FDF795FEBB20FDF7A8
:103E500092FE0020FDF78FFE9920FDF78CFE0020DA
:103E6000FDF789FE6620FDF786FE0020FDF783FE44
:103E70005520FDF780FE0020FDF77DFE5520FDF763
:103E80007AFE0020FDF777FE4420FDF774FE002047
:103E9000FDF771FE4420FDF76EFE0020FDF76BFE7E
:103EA0005520FDF768FE0020FDF765FEE920FDF7CF
:103EB0006CFEAA20FDF75FFE0020FDF75CFE0020EF
:103EC000FDF759FE0020FDF756FE0020FDF75DFED0
:103ED000AA20FDF750FECF20FDF757FE0020FDF78A
:103EE0004AFE0020FDF747FE0020FDF744FE0020BB
:103EF000FDF741FE0020FDF73EFE0020FDF73BFEF2
:103F00000020FDF738FE0020FDF735FE0020FDF70C
:103F100032FE0020FDF72FFE0020FDF72CFE0020D2
:103F2000FDF729FE0020FDF726FE0020FDF723FE09
:103F30000020FDF720FE0020FDF71DFE0020FDF70C
:103F40001AFEF020FDF721FE0020FDF714FE5020A0
:103F5000FDF711FE0020FDF70EFE0020FDF70BFE21
:103F60000020FDF708FEF320FDF70FFE0020FDF70F
:103F700002FEF920FDF709FE0620FDF7FCFD1020EA
:103F8000FDF7F9FD2920FDF7F6FD0020FDF7F3FD13
:103F90003A20FDF7FAFD5520FDF7EDFD1120FDF764
:103FA000F4FD6420FDF7D2FC2920FDF7EEFD35205D
:103FB000FDF7EBFD0020FDF7DEFD5120FDF7E5FDEF
:103FC000FF20FDF7D8FD5320FDF7DFFD2C20FDF786
:103FD000D2FD5520FDF7D9FD8220FDF7CCFD2C2028
:103FE000FDF7D3FD02F028B8FE48808845F2105155
:103FF00088427DD155214FF47040FDF7B0FDAA21D4
:104000004FF20100FDF7ABFD52214FF20200FDF728
:10401000A6FD08214FF20300FDF7A1FD01214FF29B
:104020000400FDF79CFD0D214FF43040FDF797FD96
:104030000D214BF20100FDF792FD0D214BF2020024
:10404000FDF78DFD34214FF43640FDF788FD342116
:104050004BF20160FDF783FD34214BF20260FDF766
:104060007EFD0D214FF43140FDF779FD0D214BF21E
:104070000110FDF774FD0D214BF20210FDF76FFDED
:1040800034214FF43740FDF76AFD34214BF20170C3
:10409000FDF765FD34214BF20270FDF760FD002154
:1040A0004FF43240FDF75BFD00214BF20120FDF79C
:1040B00056FD00214BF20220FDF751FD24214FF463
:1040C0003840FDF74CFD24214BF60100FDF747FD7C
:1040D00024214BF60200FDF742FD01214FF43F4041
:1040E000FDF73DFD0F214FF43340FDF738FD00E0B3
:1040F000FDE30F214BF20130FDF731FD0F214BF2B3
:104100000230FDF72CFD34214FF43940FDF727FD37
:1041100034214BF60110FDF722FD34214BF602103D
:10412000FDF71DFD08214FF43540FDF718FD08216E
:104130004BF20150FDF713FD08214BF20250FDF741
:104140000EFD03214FF44240FDF709FD24214FF4F9
:104150003A40FDF704FD24214BF60120FDF7FFFC5A
:1041600024214BF60220FDF7FAFC00214FF43C40DD
:10417000FDF7F5FC78214BF60140FDF7F0FC00213E
:104180004BF60240FDF7EBFC00214FF43D40FDF7FC
:10419000E6FC78214BF60150FDF7E1FC00214BF6DF
:1041A0000250FDF7DCFC00214FF43E40FDF7D7FC48
:1041B00064214BF60160FDF7D2FC00214FF4514021
:1041C000FDF7CDFC33214DF20110FDF7C8FC0021B5
:1041D0004DF20210FDF7C3FC34214DF20310FDF740
:1041E000BEFC00214DF20410FDF7B9FC3A214DF25E
:1041F0000510FDF7B4FC00214DF20610FDF7AFFCF1
:104200004A214DF20710FDF7AAFC00214DF20810DB
:10421000FDF7A5FC5C214DF20910FDF7A0FC002183
:104220004DF20A10FDF79BFC81214DF20B10FDF7BA
:1042300096FC00214DF20C10FDF791FCA6214DF2E9
:104240000D10FDF78CFC00214DF20E10FDF787FCE0
:10425000E5214DF20F10FDF782FC01214DF2101007
:10426000FDF77DFC13214DF21110FDF778FC0121C3
:104270004DF21210FDF773FC54214DF21310FDF7AF
:104280006EFC01214DF21410FDF769FC82214DF204
:104290001510FDF764FC01214DF21610FDF75FFCCF
:1042A000CA214DF21710FDF75AFC02214DF21810E9
:1042B000FDF755FC00214DF21910FDF750FC0221CD
:1042C0004DF21A10FDF74BFC01214DF21B10FDF7CA
:1042D00046FC02214DF21C10FDF741FC34214DF249
:1042E0001D10FDF73CFC02214DF21E10FDF737FCBE
:1042F00067214DF21F10FDF732FC02214DF2201014
:10430000FDF72DFC84214DF22110FDF728FC022140
:104310004DF22210FDF723FCA4214DF22310FDF7EE
:104320001EFC02214DF22410FDF719FCB7214DF2BD
:104330002510FDF714FC02214DF22610FDF70FFCAD
:10434000CF214DF22710FDF70AFC02214DF2281073
:10435000FDF705FCDE214DF22910FDF700FC0221DE
:104360004DF22A10FDF7FBFBF2214DF22B10FDF769
:10437000F6FB02214DF22C10FDF7F1FBFE214DF270
:104380002D10FDF7ECFB03214DF22E10FDF7E7FB9E
:1043900010214DF22F10FDF7E2FB03214DF23010FA
:1043A000FDF7DDFB33214DF23110FDF7D8FB032182
:1043B0004DF23210FDF7D3FB6D214DF23310FDF7B6
:1043C000CEFB00214FF45240FDF7C9FB33214DF2E3
:1043D0000120FDF7C4FB00214DF20220FDF7BFFBD9
:1043E000342101E0FC0000204DF20320FDF7B7FB73
:1043F00000214DF20420FDF7B2FB3A214DF20520D9
:10440000FDF7ADFB00214DF20620FDF7A8FB4A2188
:104410004DF20720FDF7A3FB00214DF20820FDF728
:104420009EFB5C214DF20920FDF799FB00214DF226
:104430000A20FDF794FB81214DF20B20FDF78FFB45
:1044400000214DF20C20FDF78AFBA6214DF20D2034
:10445000FDF785FB00214DF20E20FDF780FBE521E5
:104460004DF20F20FDF77BFB01214DF21020FDF7EF
:1044700076FB13214DF21120FDF771FB01214DF266
:104480001220FDF76CFB54214DF21320FDF767FB62
:1044900001214DF21420FDF762FB82214DF215201F
:1044A000FDF75DFB01214DF21620FDF758FBCA21F7
:1044B0004DF21720FDF753FB02214DF21820FDF7B6
:1044C0004EFB00214DF21920FDF749FB02214DF270
:1044D0001A20FDF744FB01214DF21B20FDF73FFBA5
:1044E00002214DF21C20FDF73AFB34214DF21D2034
:1044F000FDF735FB02214DF21E20FDF730FB672151
:104500004DF21F20FDF72BFB02214DF22020FDF77D
:1045100026FB84214DF22120FDF721FB02214DF2E3
:104520002220FDF71CFBA4214DF22320FDF717FBF1
:1045300002214DF22420FDF712FBB7214DF2252078
:10454000FDF70DFB02214DF22620FDF708FBCF21E0
:104550004DF22720FDF703FB02214DF22820FDF745
:10456000FEFADE214DF22920FDF7F9FA02214DF283
:104570002A20FDF7F4FAF2214DF22B20FDF7EFFA95
:1045800002214DF22C20FDF7EAFAFE214DF22D20FA
:10459000FDF7E5FA03214DF22E20FDF7E0FA102198
:1045A0004DF22F20FDF7DBFA03214DF23020FDF70D
:1045B000D6FA33214DF23120FDF7D1FA03214DF225
:1045C0003220FDF7CCFA6D214DF23320FDF7C7FA0A
:1045D00000214FF45340FDF7C2FA33214DF2013070
:1045E000FDF7BDFA00214DF20230FDF7B8FA342193
:1045F0004DF20330FDF7B3FA00214DF20430FDF720
:10460000AEFA3A214DF20530FDF7A9FA00214DF23C
:104610000630FDF7A4FA4A214DF20730FDF79FFA64
:1046200000214DF20830FDF79AFA5C214DF2093075
:10463000FDF795FA00214DF20A30FDF790FA81213D
:104640004DF20B30FDF78BFA00214DF20C30FDF7E7
:1046500086FAA6214DF20D30FDF781FA00214DF2C8
:104660000E30FDF77CFAE5214DF20F30FDF777FAB9
:1046700001214DF21030FDF772FA13214DF2113085
:10468000FDF76DFA01214DF21230FDF768FA542161
:104690004DF21330FDF763FA01214DF21430FDF7AE
:1046A0005EFA82214DF21530FDF759FA01214DF2E3
:1046B0001630FDF754FACA214DF21730FDF74FFAC4
:1046C00002214DF21830FDF74AFA00214DF219305F
:1046D000FDF745FA02214DF21A30FDF740FA0121AB
:1046E0004DF21B30FDF73BFA02214DF21C30FDF775
:1046F00036FA34214DF21D30FDF731FA02214DF228
:104700001E30FDF72CFA67214DF21F30FDF727FA16
:1047100002214DF22030FDF722FA84214DF22130A2
:10472000FDF71DFA02214DF22230FDF718FAA421FF
:104730004DF22330FDF713FA02214DF22430FDF73C
:104740000EFAB7214DF22530FDF709FA02214DF29C
:104750002630FDF704FACF214DF22730FDF7FFF99F
:1047600002214DF22830FDF7FAF9DE214DF2293011
:10477000FDF7F5F902214DF22A30FDF7F0F9F221AB
:104780004DF22B30FDF7EBF902214DF22C30FDF705
:10479000E6F9FE214DF22D30FDF7E1F903214DF24E
:1047A0002E30FDF7DCF910214DF22F30FDF7D7F94F
:1047B00003214DF23030FDF7D2F933214DF2313083
:1047C000FDF7CDF903214DF23230FDF7C8F96D2127
:1047D0004DF23330FDF7C3F900214FF45440FDF79B
:1047E000BEF933214DF20140FDF7B9F900214DF238
:1047F0000240FDF7B4F934214DF20340FDF7AFF963
:1048000000214DF20440FDF7AAF93A214DF205408E
:10481000FDF7A5F900214DF20640FDF7A0F94A2168
:104820004DF20740FDF79BF900214DF20840FDF7DE
:1048300096F95C214DF20940FDF791F900214DF206
:104840000A40FDF78CF981214DF20B40FDF787F905
:1048500000214DF20C40FDF782F9A6214DF20D40EA
:10486000FDF77DF900214DF20E40FDF778F9E521C5
:104870004DF20F40FDF773F901214DF21040FDF7A5
:104880006EF913214DF21140FDF769F901214DF246
:104890001240FDF764F954214DF21340FDF75FF922
:1048A00001214DF21440FDF75AF982214DF21540D5
:1048B000FDF755F901214DF21640FDF750F9CA21D7
:1048C0004DF21740FDF74BF902214DF21840FDF76C
:1048D00046F900214DF21940FDF741F902214DF250
:1048E0001A40FDF73CF901214DF21B4000E006E3C0
:1048F000FDF735F902214DF21C40FDF730F9342166
:104900004DF21D40FDF72BF902214DF21E40FDF73F
:1049100026F967214DF21F40FDF721F902214DF2E2
:104920002040FDF71CF984214DF22140FDF717F9D5
:1049300002214DF22240FDF712F9A4214DF223404D
:10494000FDF70DF902214DF22440FDF708F9B721DA
:104950004DF22540FDF703F902214DF22640FDF707
:10496000FEF8CF214DF22740FDF7F9F802214DF274
:104970002840FDF7F4F8DE214DF22940FDF7EFF86D
:1049800002214DF22A40FDF7EAF8F2214DF22B40C8
:10499000FDF7E5F802214DF22C40FDF7E0F8FE218D
:1049A0004DF22D40FDF7DBF803214DF22E40FDF7CF
:1049B000D6F810214DF22F40FDF7D1F803214DF22A
:1049C0003040FDF7CCF833214DF23140FDF7C7F808
:1049D00003214DF23240FDF7C2F86D214DF2334014
:1049E000FDF7BDF800214FF45540FDF7B8F833212D
:1049F0004DF20150FDF7B3F800214DF20250FDF7E2
:104A0000AEF834214DF20350FDF7A9F800214DF224
:104A10000450FDF7A4F83A214DF20550FDF79FF838
:104A200000214DF20650FDF79AF84A214DF2075049
:104A3000FDF795F800214DF20850FDF790F85C2144
:104A40004DF20950FDF78BF800214DF20A50FDF7A9
:104A500086F881214DF20B50FDF781F800214DF2CF
:104A60000C50FDF77CF8A6214DF20D50FDF777F8BC
:104A700000214DF20E50FDF772F8E5214DF20F5076
:104A8000FDF76DF801214DF21050FDF768F8132184
:104A90004DF21150FDF763F801214DF21250FDF770
:104AA0005EF854214DF21350FDF759F801214DF2F3
:104AB0001450FDF754F882214DF21550FDF74FF8D0
:104AC00001214DF21650FDF74AF8CA214DF2175058
:104AD000FDF745F802214DF21850FDF740F800218E
:104AE0004DF21950FDF73BF802214DF21A50FDF737
:104AF00036F801214DF21B50FDF731F802214DF23D
:104B00001C50FDF72CF834214DF21D50FDF727F80D
:104B100002214DF21E50FDF722F867214DF21F5081
:104B2000FDF71DF802214DF22050FDF718F8842101
:104B30004DF22150FDF713F802214DF22250FDF7FE
:104B40000EF8A4214DF22350FDF709F802214DF291
:104B50002450FDF704F8B7214DF22550FCF7FFFF74
:104B600002214DF22650FCF7FAFFCF214DF22750DB
:104B7000FCF7F5FF02214DF22850FCF7F0FFDE2193
:104B80004DF22950FCF7EBFF02214DF22A50FCF7C1
:104B9000E6FFF2214DF22B50FCF7E1FF02214DF22E
:104BA0002C50FCF7DCFFFE214DF22D50FCF7D7FF17
:104BB00003214DF22E50FCF7D2FF10214DF22F5061
:104BC000FCF7CDFF03214DF23050FCF7C8FF332135
:104BD0004DF23150FCF7C3FF03214DF23250FCF788
:104BE000BEFF6D214DF23350FCF7B9FF00214FF4A9
:104BF0005640FCF7B4FF33214DF20160FCF7AFFFE4
:104C000000214DF20260FCF7AAFF34214DF203604F
:104C1000FCF7A5FF00214DF20460FCF7A0FF3A214C
:104C20004DF20560FCF79BFF00214DF20660FCF79A
:104C300096FF4A214DF20760FCF791FF00214DF2EB
:104C40000860FCF78CFF5C214DF20960FCF787FFE0
:104C500000214DF20A60FCF782FF81214DF20B60CA
:104C6000FCF77DFF00214DF20C60FCF778FFA621D8
:104C70004DF20D60FCF773FF00214DF20E60FCF762
:104C80006EFFE5214DF20F60FCF769FF01214DF247
:104C90001060FCF764FF13214DF21160FCF75FFF19
:104CA00001214DF21260FCF75AFF54214DF21360BE
:104CB000FCF755FF01214DF21460FCF750FF8221F3
:104CC0004DF21560FCF74BFF01214DF21660FCF729
:104CD00046FFCA214DF21760FCF741FF02214DF259
:104CE0001860FCF73CFF00214DF21960FCF737FF1C
:104CF00002214DF21A60FCF732FF01214DF21B60D8
:104D0000FCF72DFF02214DF21C60FCF728FF342137
:104D10004DF21D60FCF723FF02214DF21E60FCF7EF
:104D20001EFF67214DF21F60FCF719FF02214DF2B3
:104D30002060FCF714FF84214DF22160FCF70FFF87
:104D400002214DF22260FCF70AFFA4214DF22360FC
:104D5000FCF705FF02214DF22460FCF700FFB721AC
:104D60004DF22560FCF7FBFE02214DF22660FCF7B8
:104D7000F6FECF214DF22760FCF7F1FE02214DF245
:104D80002860FCF7ECFEDE214DF22960FCF7E7FE1F
:104D900002214DF22A60FCF7E2FEF2214DF22B6077
:104DA000FCF7DDFE02214DF22C60FCF7D8FEFE215F
:104DB0004DF22D60FCF7D3FE03214DF22E60FCF77F
:104DC000CEFE10214DF22F60FCF7C9FE03214DF2FB
:104DD0003060FCF7C4FE33214DF23160FCF7BFFEBA
:104DE00003214DF23260FCF7BAFE6D214DF23360C3
:104DF000FCF7B5FE55214FF47040FCF7B0FEAA2138
:104E00004FF20100FCF7ABFE52214FF20200FCF71B
:104E1000A6FE08214FF20300FCF7A1FE00214FF28D
:104E20000400FCF79CFECC214FF43140FCF797FEC8
:104E300000214BF20110FCF792FE05214FF43640A1
:104E4000FCF78DFE70214FF43740FCF788FE70218F
:104E50004BF20170FCF783FE01214FF43840FCF760
:104E60007EFE03214BF60100FCF779FE03214BF691
:104E70000200FCF774FE03214BF60300FCF76FFE03
:104E800002214FF43C40FCF76AFE00214BF6014042
:104E9000FCF765FE00214BF60240FCF760FED021D6
:104EA0004FF44940FCF75BFE02214CF60110FCF781
:104EB00056FE50214CF60210FCF751FE50214CF6E4
:104EC0000310FCF74CFE50214CF60410FCF747FE93
:104ED00000214FF45450FCF742FE55214FF4685026
:104EE000FCF73DFE4FF48850FCF74FFE7820FCF7AE
:104EF000E5FC4FF42450FCF748FE01F09DB8FE4855
:104F0000808849F2253188427ED147F6F001E520BC
:104F1000FCF725FE4FF480710120FCF720FE4FF4D2
:104F2000E0610220FCF71BFE41F230010320FCF798
:104F300016FE00210420FCF712FE40F20221082098
:104F4000FCF70DFE00210920FCF709FE00210A20D4
:104F5000FCF705FE00210C20FCF701FE00210D20CE
:104F6000FCF7FDFD00210F20FCF7F9FD00211020CA
:104F7000FCF7F5FD07211120FCF7F1FD00211220BF
:104F8000FCF7EDFD00211320FCF7E9FD00210720CF
:104F9000FCF7E5FD41F290611020FCF7E0FD40F2E6
:104FA00027211120FCF7DBFD9D211220FCF7D7FD06
:104FB0004FF4C8511320FCF7D2FD25212920FCF71E
:104FC000CEFD0D212B20FCF7CAFD07213020FCF778
:104FD000C6FD40F203313120FCF7C1FD0321322030
:104FE000FCF7BDFD40F206213520FCF7B8FD082195
:104FF0003620FCF7B4FD40F206413720FCF7AFFD48
:105000004FF44171382000E057E0FCF7A8FD07217C
:105010003920FCF7A4FD40F202613C20FCF79FFD23
:1050200008213D20FCF79BFD00215020FCF797FD57
:10503000EF215120FCF793FD00215220FCF78FFD5A
:1050400040F23F115320FCF78AFD4FF427416020C6
:10505000FCF785FD01216120FCF781FD00216A201C
:10506000FCF77DFD00218020FCF779FD00218120E7
:10507000FCF775FD00218220FCF771FD00218320E3
:10508000FCF76DFD00218420FCF769FD00218520DF
:10509000FCF765FD10219020FCF761FD4FF4C06125
:1050A0009220FCF75CFD40F233110720FCF757FD1E
:1050B00022210020FCF753FD1FE78F48808849F22A
:1050C000283188427ED141F28F01EC20FCF747FD68
:1050D00041F23421EF20FCF742FD4FF480710120B2
:1050E000FCF73DFD4FF4E0610220FCF738FD41F292
:1050F00030010320FCF733FD00210420FCF72FFDD5
:1051000040F202210820FCF72AFD00210920FCF7CB
:1051100026FD00210A20FCF722FD01210C20FCF7CE
:105120001EFD00210D20FCF71AFD00210F20FCF7C9
:1051300016FD00211020FCF712FD07211120FCF7BD
:105140000EFD00211220FCF70AFD00211320FCF7C0
:1051500006FD01210720FCF702FD3220FCF7F6FBDB
:1051600041F290411020FCF7FAFC40F22721112077
:10517000FCF7F5FC3220FCF7E9FB8A211220FCF752
:10518000EEFC3220FCF7E2FB4FF4D0511320FCF789
:10519000E6FC06212920FCF7E2FC0D212B20FCF780
:1051A000DEFC3220FCF7D2FB00212020FCF7D7FCEC
:1051B00000212120FCF7D3FC3220FCF7C7FB0021A3
:1051C000302000E074E0FCF7CAFC40F204613120BA
:1051D000FCF7C5FC40F205313220FCF7C0FC002191
:1051E0003520FCF7BCFC40F609413620FCF7B7FC43
:1051F0004FF401713720FCF7B2FC40F20131382046
:10520000FCF7ADFC40F207713920FCF7A8FC002147
:105210003C20FCF7A4FC40F60A213D20FCF79FFC53
:105220003220FCF793FB00215020FCF798FCEF2183
:105230005120FCF794FC00215220FCF790FC40F236
:105240003F115320FCF78BFC4FF427416020FCF703
:1052500086FC01216120FCF782FC00216A20FCF71A
:105260007EFC00218020FCF77AFC00218120FCF7E5
:1052700076FC00218220FCF772FC00218320FCF7E1
:105280006EFC00218420FCF76AFC00218520FCF7DD
:1052900066FC10219020FCF762FC4FF4C061922064
:1052A000FCF75DFC40F233110720FCF758FC24E6C4
:1052B0001148808849F2203188427DD1002108467A
:1052C000FCF74DFC4FF480710120FCF748FC4FF4D3
:1052D000E0610220FCF743FC41F230010320FCF7BF
:1052E0003EFC00210420FCF73AFC40F20221082099
:1052F000FCF735FC002101E0FC0000200920FCF750
:105300002EFC00210A20FCF72AFC01210C20FCF7CE
:1053100026FC00210D20FCF722FC00210F20FCF7C9
:105320001EFC3220FCF712FB40F201110720FCF7B3
:1053300016FC3220FCF70AFB4FF486511020FCF7D4
:105340000EFC07211120FCF70AFC4FF48871122093
:10535000FCF705FC4FF430611320FCF700FC002142
:105360002920FCF7FCFB44F210012B20FCF7F7FB93
:1053700000215020FCF7F3FBEF215120FCF7EFFB5D
:1053800000215220FCF7EBFB40F23F115320FCF7C9
:10539000E6FB4FF41C516020FCF7E1FB012161208A
:1053A000FCF7DDFB00216A20FCF7D9FB00218020FF
:1053B000FCF7D5FB002100E031E08120FCF7CFFBBA
:1053C00000218220FCF7CBFB00218320FCF7C7FBE8
:1053D00000218420FCF7C3FB00218520FCF7BFFBE4
:1053E00010219020FCF7BBFB00219220FCF7B7FBBB
:1053F00001219320FCF7B3FB4FF488719520FCF753
:10540000AEFB00219720FCF7AAFB00219820FCF7B7
:10541000A6FB40F273110720FCF7A1FB6DE5FE48E7
:10542000808849F2313188427DD141F21401E72070
:10543000FCF795FB4FF480710120FCF790FB4FF4D3
:1054400000710220FCF78BFB41F238010320FCF7CE
:1054500086FB40F202210820FCF781FB0021092095
:10546000FCF77DFB00210A20FCF779FB00210C20D2
:10547000FCF775FB00210D20FCF771FB00210F20CC
:10548000FCF76DFB00211020FCF769FB07211120C0
:10549000FCF765FB00211220FCF761FB00211320C3
:1054A000FCF75DFBC820FCF751FA41F29061102037
:1054B000FCF755FB40F227211120FCF750FB32206E
:1054C000FCF744FA0C211220FCF749FB3220FCF7D0
:1054D0003DFA4FF400611320FCF741FB1121292014
:1054E000FCF73DFB0B212B20FCF739FB3220FCF7AE
:1054F0002DFA00212020FCF732FB40F23F11212041
:10550000FCF72DFB00213020FCF729FB4FF48371C1
:105510003120FCF724FB00213220FCF720FB4FF464
:105520000171352000E064E0FCF719FB41F20A61EB
:105530003620FCF714FB40F207713720FCF70FFB15
:105540004FF483713820FCF70AFB40F207713920D1
:10555000FCF705FB40F202413C20FCF700FB40F663
:105560000F413D20FCF7FBFA00215020FCF7F7FA31
:10557000EF215120FCF7F3FA00215220FCF7EFFA5B
:1055800040F23F115320FCF7EAFA4FF41C5160201F
:10559000FCF7E5FA01216120FCF7E1FA00216A201D
:1055A000FCF7DDFA00218020FCF7D9FA00218120E8
:1055B000FCF7D5FA00218220FCF7D1FA00218320E4
:1055C000FCF7CDFA00218420FCF7C9FA00218520E0
:1055D000FCF7C5FA10219020FCF7C1FA4FF4C06126
:1055E0009220FCF7BCFA40F233110720FCF7B7FA1F
:1055F00083E48948808845F2084188427ED14FF48F
:1056000080710120FCF7ABFA4FF4E0610220FCF757
:10561000A6FA41F230010320FCF7A1FA0021042090
:10562000FCF79DFA40F207210820FCF798FA0021C8
:105630000920FCF794FA00210A20FCF790FA0021D7
:105640000C20FCF78CFA00210D20FCF788FA0021D1
:105650000F20FCF784FA1420FCF778F941F2B061CE
:105660001020FCF77CFA01211120FCF778FA0121C7
:105670001720FCF774FA4FF49C711220FCF76FFAB4
:105680004FF400611320FCF76AFA09212920FCF786
:1056900066FA09212A20FCF762FA0021A420FCF70F
:1056A0005EFA00215020FCF75AFAEF215120FCF756
:1056B00056FA00215220FCF752FA40F23F115320D3
:1056C000FCF74DFA4FF41C516020FCF748FA012119
:1056D0006120FCF744FA00216A20FCF740FA00211F
:1056E0008020FCF73CFA00218120FCF738FA0021E9
:1056F0008220FCF734FA0021832000E023E0FCF74D
:105700002EFA00218420FCF72AFA00218520FCF7DC
:1057100026FA13219020FCF722FA00219220FCF7B0
:105720001EFA03219320FCF71AFA4FF48871952092
:10573000FCF715FA40F273110720FCF710FA32203B
:10574000FCF704F9B8E43448808841F205518842F6
:105750007ED100210720FCF702FA3220FCF7F6F890
:105760004FF48E711220FCF7FAF90121A420FCF706
:10577000F6F90F210820FCF7F2F908210A20FCF7BE
:10578000EEF908210D20FCF7EAF940F2077130200C
:10579000FCF7E5F907213120FCF7E1F940F203615C
:1057A0003220FCF7DCF94FF4E0613320FCF7D7F945
:1057B00040F202213420FCF7D2F902213520FCF717
:1057C000CEF941F60F713620FCF7C9F940F20771A6
:1057D0003720FCF7C4F900213820FCF7C0F900217C
:1057E0003920FCF7BCF940F207713A20FCF7B7F911
:1057F00000213B20FCF7B3F907213C20FCF7AFF96F
:1058000000213D20FCF7ABF93220FCF79FF8012185
:105810000720FCF7A4F901E0FC000020012117207B
:10582000FCF79DF93220FCF791F84FF4BD511020A0
:10583000FCF795F940F217211120FCF790F94FF48D
:105840008F711220FCF78BF94FF47061132000E088
:1058500097E0FCF784F900212A20FCF780F90A215F
:105860002920FCF77CF94FF49F711220FCF777F99F
:1058700000215020FCF773F9EF215120FCF76FF95C
:1058800000215220FCF76BF940F23F115320FCF746
:1058900066F94FF41C516020FCF761F90121612089
:1058A000FCF75DF900216A20FCF759F900218020FE
:1058B000FCF755F900218120FCF751F900218220E5
:1058C000FCF74DF900218320FCF749F900218420E1
:1058D000FCF745F900218520FCF741F913219020C0
:1058E000FCF73DF94FF440719220FCF738F905219F
:1058F0009320FCF734F900219520FCF730F90021C2
:105900009720FCF72CF900219820FCF728F94FF498
:1059100080710120FCF723F94FF4E0610220FCF7CD
:105920001EF941F238010320FCF719F90021042087
:10593000FCF715F900210C20FCF711F900210F20CC
:10594000FCF70DF900212020FCF709F900212120A6
:10595000FCF705F921210720FCF701F91420FBF7DA
:10596000F5FF61210720FCF7FAF81420FBF7EEFFA2
:1059700040F273110720FCF7F2F81420FBF7E6FF62
:105980005AE3FE4880884BF2055188427ED10021BF
:105990000846FCF7E4F800210846FCF7E0F800218F
:1059A0000846FCF7DCF800210846FCF7D8F801218E
:1059B000A420FCF7D4F81420FBF7C8FF4FF41C51C7
:1059C0006020FCF7CCF840F202210820FCF7C7F871
:1059D0004FF405713020FCF7C2F843F21571312005
:1059E000FCF7BDF840F204613220FCF7B8F840F64D
:1059F00016613320FCF7B3F842F211213420FCF792
:105A0000AEF84FF4A8513520FCF7A9F848F2075139
:105A10003620FCF7A4F841F207413720FCF79FF845
:105A200041F203413820FCF79AF820213920FCF795
:105A300096F81A219020FCF792F800211020FCF72C
:105A40008EF807211120FCF78AF800211220FCF7BC
:105A500086F800211320FCF782F81420FBF776FF6C
:105A60004FF4E6611020FCF77AF840F2371111206C
:105A7000FCF775F81420FBF769FF4FF4DC71122076
:105A8000FCF76DF81420FBF761FF00E083E04FF4B2
:105A900070611320FCF763F880212A20FCF75FF87F
:105AA00048212920FCF75BF81420FBF74FFF4FF447
:105AB00080710120FCF753F84FF4E0610220FCF7FD
:105AC0004EF841F238010320FCF749F840F2022178
:105AD0000820FCF744F800210A20FCF740F80021D8
